:100000000C9462000C948A000C948A000C948A0070
:100010000C948A000C948A000C948A000C948A0038
:100020000C948A000C948A000C948A000C948A0028
:100030000C948A000C948A000C948A000C948A0018
:100040000C94EB040C948A000C948A000C948A00A3
:100050000C948A000C948A000C948A000C948A00F8
:100060000C9435050C948A00F503FC03080419046C
:100070001B0422042E043F04550457040000000012
:10008000250028002B0004040404040404040202D4
:100090000202020203030303030301020408102007
:1000A0004080010204081020010204081020000012
:1000B0000008000201000003040700000000000027
:1000C0000000630611241FBECFEFD8E0DEBFCDBF16
:1000D00011E0A0E0B1E0EEE8F0E102C005900D9281
:1000E000A031B107D9F722E0A0E1B1E001C01D9233
:1000F000AE34B207E1F710E0C2E6D0E004C02197C9
:10010000FE010E940408C136D107C9F70E94B80653
:100110000C9445080C940000382F2091CD0190914B
:10012000CC01213208F049C08091A9018111FCCF96
:1001300042E04093A9013093A8013FEF3093A7011B
:100140001092A6012093A501ACEAB1E045E851E088
:10015000FA013E2F341B321718F43D913193F9CF39
:100160001092840120918401990F922B9093840125
:1001700090918301913061F41092830190918401F8
:100180009093BB009091BC0093FDF8CF95EC01C01B
:1001900095EE9093BC009091A9019230E1F390917B
:1001A000A7019F3F79F08091A701803241F08091B3
:1001B000A701803331F084E005C081E003C082E014
:1001C00001C083E01092AB011092CD011092AA0100
:1001D000089590E0FC01E255FF4F2491FC01E656A2
:1001E000FF4F3491FC01EA57FF4FE491EE23B1F148
:1001F000222339F1233091F038F42130A9F0223054
:1002000001F584B58F7D12C0273091F02830A1F020
:100210002430B9F4809180008F7D03C080918000EC
:100220008F77809380000DC084B58F7784BD09C01F
:100230008091B0008F7703C08091B0008F7D809354
:10024000B000F0E0EE0FFF1FE458FF4FA591B4910E
:100250008FB7F894EC913E2B3C938FBF0895CF92CB
:10026000DF92EF92FF920F931F93CF93DF936C0176
:100270007A018B01C0E0D0E0CE15DF0589F0D8010E
:100280006D918D01D601ED91FC910190F081E02DF1
:10029000C6010995892B11F47E0102C02196ECCF8D
:1002A000C701DF91CF911F910F91FF90EF90DF90E9
:1002B000CF90089585ED8093BC008091BC0084FDB3
:1002C000FCCF1092A901089540913201262F30E011
:1002D000240F311D21323105DCF42091A901243095
:1002E000C9F4FC0180E090E0861758F430913201A7
:1002F0002191DC01A05FBE4FA30FB11D2C9301968D
:10030000F3CF80913201680F6093320180E008954D
:1003100081E0089582E008950895E0917D01809143
:100320007C01E81730F4F0E0E95AFE4F808190E05C
:1003300008958FEF9FEF089590917D0180917C014A
:10034000981750F4E92FF0E0E95AFE4F208130E091
:100350009F5F90937D0102C02FEF3FEFC901089589
:1003600080917C0190E020917D01821B910908958C
:10037000CF92DF92EF92FF920F931F93CF93DF9371
:100380007C01262F972F8A018091AA01882391F062
:10039000C62FD72F6E01C40ED51ECC15DD0571F00A
:1003A0006991D701ED91FC910190F081E02DC70199
:1003B0000995F3CF642F822F0E946401C801DF9159
:1003C000CF911F910F91FF90EF90DF90CF90089504
:1003D000CF93DF931F92CDB7DEB769832091AA0137
:1003E0002223D1F02091CD01203240F021E030E0F5
:1003F000FC013383228380E090E015C08091AB0143
:10040000E82FF0E0E455FE4F998190838F5F809351
:10041000AB018093CD0105C061E0CE0101960E9441
:10042000640181E090E00F90DF91CF910895CF9328
:10043000DF931F92CDB7DEB7FC018081806291E02F
:100440009093AA018093CC011092AB011092CD0140
:100450008EEC91E049830E94E8014981642F8EEC83
:1004600091E00E94E80181E00F90DF91CF910C9420
:100470008C000E944008CF93DF93EC01988190623A
:1004800081E08093AA019093CC011092AB0110926D
:10049000CD018EEC91E00E94E80181E00E948C0089
:1004A00088819091A9019111FCCF91E09093A901CD
:1004B0009093A8012FEF2093A7011092A60110920C
:1004C000A50190938401909184018062880F892B0B
:1004D0008093840180918301813061F410928301C3
:1004E000809184018093BB008091BC0083FDF8CF94
:1004F00085EC01C085EE8093BC008091A90181301C
:10050000E1F38091A601811103C08091A60101C091
:1005100081E0A5E8B1E027E531E0F9019E2F921BCB
:10052000981718F49D919193F9CF10927D018093C3
:100530007C018EEC91E00E949C01DF91CF910895A7
:100540000F931F93CF93DF93EC0189818823F1F000
:1005500001E0683008F400E0162F602FCE010E9401
:100560003B02912F977041E050E060E070E004C0E2
:10057000440F551F661F771F9A95D2F74095482361
:10058000602FCE010E94170281E08A83DF91CF9114
:100590001F910F910895CF93DF93EC0168838981B8
:1005A000811132C08B859C858530910591F46F85D2
:1005B000CE010E94A0026989CE010E94A0026B892F
:1005C000CE010E94A0026D89CE010E94A0026F8917
:1005D00018C08430910571F46F85CE010E94A0028D
:1005E0006989CE010E94A0026B89CE010E94A002FF
:1005F0006D8907C0029741F46F85CE010E94A00269
:100600006989CE010E94A00281E08983DF91CF91A8
:100610000895EF92FF920F931F93CF93DF93EC0116
:1006200019821A821E861D861C821B82198E1A8EC2
:100630001B8E1C8E7A876987588B4F87298B3A8B44
:100640001C8B0B8BFE8AED8A622F0E94A0026B89A5
:10065000CE010E94A0026D89CE010E94A002188ED8
:100660001F8A84E090E09C878B87DF91CF911F9158
:100670000F91FF90EF900895FF920F931F93CF93E8
:10068000DF93EC018981882361F1862F8770F82E32
:10069000683010F095E101C094E1142F062F692F06
:1006A000CE010E943B0241E050E060E070E004C0F7
:1006B000440F551F661F771FFA94D2F7112311F0CC
:1006C000482B02C040954823083010F063E101C078
:1006D00062E1CE01DF91CF911F910F91FF900C94B9
:1006E0001702DF91CF911F910F91FF9008950F9303
:1006F0001F93CF93DF93EC018B018B859C85029731
:1007000009F56130710569F024F4672BD9F440E0F4
:1007100009C06230710561F06330710599F440E001
:1007200008C041E06F85CE010E943C0341E006C055
:1007300041E06F85CE010E943C0340E06989CE0113
:100740000E943C038B859C85049709F040C00130D2
:100750001105C1F054F401151105C9F541E06F858B
:10076000CE010E943C0340E013C002301105D9F0D5
:100770000330110561F541E06F85CE010E943C0315
:1007800040E017C040E06F85CE010E943C0341E08D
:100790006989CE010E943C0341E06B89CE010E9431
:1007A0003C0340E010C040E06F85CE010E943C0356
:1007B00041E06989CE010E943C0340E06B89CE0193
:1007C0000E943C0341E06D89CE010E943C038B8571
:1007D0009C85059709F088C00A30110508F084C08F
:1007E000F801EC5CFF4F0C94040840E06F85CE01EB
:1007F0000E943C0341E061C040E06F85CE010E9451
:100800003C0341E06989CE010E943C0340E05AC0AC
:1008100040E06F85CE010E943C0341E06989CE0132
:100820000E943C0340E06B89CE010E943C0341E002
:100830004EC040E001C041E06F85CE010E943C0304
:1008400041E006C041E06F85CE010E943C0340E0DC
:100850006989CE010E943C0340E00BC041E06F85F6
:10086000CE010E943C0340E06989CE010E943C0316
:1008700041E06B89CE010E943C0341E010C041E0A1
:100880006F85CE010E943C0340E06989CE010E9441
:100890003C0341E06B89CE010E943C0340E06D893E
:1008A000CE010E943C0340E017C041E001C040E09F
:1008B0006F85CE010E943C0340E06989CE010E9411
:1008C0003C0341E06B89CE010E943C0340E06D890E
:1008D000CE010E943C0341E06F89CE01DF91CF91B0
:1008E0001F910F910C943C03DF91CF911F910F91B9
:1008F00008950F931F93FC0181E090E0948383831C
:100900003FB7F89480917F0190918001A09181017F
:10091000B091820126B5A89B05C02F3F19F0019622
:10092000A11DB11D3FBFBA2FA92F982F8827820F75
:10093000911DA11DB11D42E0880F991FAA1FBB1F69
:100940004A95D1F7418D528D638D748D8C019D0137
:10095000041B150B260B370B45815681678170856B
:10096000041715072607370758F2818F928FA38F38
:10097000B48F23813481858596852130310569F0D6
:10098000892B31F0858596850197968785870FC0DD
:100990008185928596878587F5CF0196968785878D
:1009A000218532858217930711F4168615862385D3
:1009B0003485858596852530310519F064E070E031
:1009C00002C06AE070E00E94D107BC01CF011F9114
:1009D0000F910C9477031F920F920FB60F92112470
:1009E0002F933F938F939F93AF93BF938091780101
:1009F00090917901A0917A01B0917B0130917701BA
:100A000023E0230F2D3720F40196A11DB11D05C051
:100A100026E8230F0296A11DB11D20937701809334
:100A2000780190937901A0937A01B0937B01809132
:100A30007F0190918001A0918101B0918201019686
:100A4000A11DB11D80937F0190938001A09381012E
:100A5000B0938201BF91AF919F918F913F912F9160
:100A60000F900FBE0F901F9018951F920F920FB608
:100A70000F9211242F933F934F935F936F937F9324
:100A80008F939F93AF93BF93EF93FF938091B900A0
:100A9000887F803609F49CC068F5883209F45BC011
:100AA00090F4803109F454C038F4882309F4F6C076
:100AB000883009F44DC0F6C0883109F44CC080324A
:100AC00009F45DC0EFC0803409F468C048F4803395
:100AD00009F455C0883309F0E5C08093A701D8C058
:100AE000803509F44FC0883509F45DC0883409F0B9
:100AF000D9C0D6C0883909F4C7C0A8F4883709F42A
:100B000067C038F4883609F463C0803709F460C0E0
:100B1000C9C0883809F4B8C0803909F45FC080388A
:100B200009F0C0C05BC0803B09F486C038F4803A4D
:100B300009F466C0883A09F47FC0B4C0803C09F467
:100B4000A7C0883C09F4A4C0883B09F48AC0AAC0A5
:100B50008091840110C09091A6018091A501981701
:100B600070F5E091A60181E08E0F8093A601F0E080
:100B7000EB57FE4F80818093BB0085EC86C080934D
:100B8000A7018EC0E091A60181E08E0F8093A6019F
:100B90008091BB00F0E0EB57FE4F80839091A6015F
:100BA0008091A5016EC0E091A60181E08E0F809337
:100BB000A6018091BB00F0E0EB57FE4F808380914F
:100BC000A80181116DC081E08093830184EA61C036
:100BD00083E08093A90110925601CFCF80915601F6
:100BE000803208F051C0E091560181E08E0F809371
:100BF00056018091BB00F0E0EA5CFE4F8083BDCFE0
:100C000085EC8093BC001092A9018091560180323E
:100C100030F4E0915601F0E0EA5CFE4F1082609102
:100C2000560170E0E0913401F091350186E391E0E6
:100C300009951092560136C084E08093A901109264
:100C4000330110923201E0913001F09131010995A8
:100C500080913201811105C081E0809332011092B0
:100C60001001E091330181E08E0F80933301F0E0B9
:100C7000E05FFE4F80818093BB00909133018091B3
:100C80003201981708F479CF85E88093BC000AC038
:100C900085EC8093BC001092A90104C01092A701BA
:100CA0000E945A01FF91EF91BF91AF919F918F9157
:100CB0007F916F915F914F913F912F910F900FBE58
:100CC0000F901F901895EF92FF920F931F93EEECE9
:100CD000F1E01382128288EE93E0A0E0B0E084831A
:100CE0009583A683B78384E091E09183808383E03A
:100CF000E82EF12C02E010E021E030E040E050E08E
:100D000068EC70E081E392E00E94090397E0E92E2D
:100D1000F12C06E010E025E030E044E050E068EC23
:100D200070E084E192E00E9409032BE0E22EF12CB6
:100D30000AE010E029E030E048E050E068EC70E0C4
:100D400087EF91E00E9409033FE0E32EF12C0EE0D3
:100D500010E02DE030E04CE050E068EC70E08AED0F
:100D600091E00E9409031F910F91FF90EF90089569
:100D7000789484B5826084BD84B5816084BD85B576
:100D8000826085BD85B5816085BD80916E00816082
:100D900080936E0010928100809181008260809328
:100DA000810080918100816080938100809180002A
:100DB0008160809380008091B10084608093B10055
:100DC0008091B00081608093B00080917A0084604F
:100DD00080937A0080917A00826080937A0080917B
:100DE0007A00816080937A0080917A008068809395
:100DF0007A001092C10010927E0110927D01109233
:100E00007C011092AB011092CD011092A90181E0FA
:100E10008093A8011092830182E10E94E90083E19E
:100E20000E94E9008091B9008E7F8093B900809183
:100E3000B9008D7F8093B90088E48093B80085E481
:100E40008093BC004FEF60E08EE791E00E941702B4
:100E50004FEF61E08EE791E00E94170260917E0102
:100E600081E392E00E94CB0260917E0184E192E0F6
:100E70000E94CB0260917E0187EF91E00E94CB023D
:100E800060917E018AED91E00E94CB0220913A02AE
:100E900030913B02032E000C440B550B812C87E84C
:100EA000982E83E9A82E83E0B82EC501B4010E94D4
:100EB000E5079AE0C92ED12CE12CF12CCA01B90129
:100EC000A70196010E94E50720933602309337026E
:100ED000409338025093390220911D0230911E0236
:100EE000032E000C440B550BC501B4010E94E5070D
:100EF000CA01B901A70196010E94E50720931902D2
:100F000030931A0240931B0250931C02209100025E
:100F100030910102032E000C440B550BC501B401A6
:100F20000E94E507CA01B901A70196010E94E507E1
:100F30002093FC013093FD014093FE015093FF018B
:100F40002091E3013091E401032E000C440B550B7A
:100F5000C501B4010E94E507CA01B901A7019601C4
:100F60000E94E5072093DF013093E0014093E10107
:100F70005093E201C0E0D0E081E392E00E94790466
:100F800084E192E00E94790487EF91E00E94790465
:100F90008AED91E00E947904209771F30E9400008D
:100FA000EBCF97FB072E16F4009407D077FD09D0FE
:100FB0000E940A0807FC05D03EF4909581959F4F4A
:100FC0000895709561957F4F0895052E97FB1EF447
:100FD00000940E94FC0757FD07D00E941E0807FCE2
:100FE00003D04EF40C94FC07509540953095219514
:100FF0003F4F4F4F5F4F0895909580957095619545
:101000007F4F8F4F9F4F0895EE0FFF1F0590F49174
:10101000E02D0994AA1BBB1B51E107C0AA1FBB1FEF
:10102000A617B70710F0A61BB70B881F991F5A9574
:10103000A9F780959095BC01CD010895A1E21A2EE3
:10104000AA1BBB1BFD010DC0AA1FBB1FEE1FFF1F6C
:10105000A217B307E407F50720F0A21BB30BE40BBC
:10106000F50B661F771F881F991F1A9469F7609503
:101070007095809590959B01AC01BD01CF010895BD
:0E10800081E090E0F8940C944508F894FFCFBE
:10108E0000000000E801B801B0019C018D018C0147
:00000001FF
