:100000000C9462000C948A000C948A000C948A0070
:100010000C948A000C948A000C948A000C948A0038
:100020000C948A000C948A000C948A000C94850429
:100030000C948A000C948A000C948A000C948A0018
:100040000C94BC010C948A000C942A090C940409A9
:100050000C948A000C948A000C948A000C948A00F8
:100060000C9446050C948A007D0384039003A1033D
:10007000A303AA03B603C703DD03DF0300000000E8
:10008000250028002B0004040404040404040202D4
:100090000202020203030303030301020408102007
:1000A0004080010204081020010204081020000012
:1000B0000008000201000003040700000000000027
:1000C00000005C0911241FBECFEFD8E0DEBFCDBF1A
:1000D00023E0A6E3B1E001C01D92A135B207E1F72C
:1000E00011E0A0E0B1E0ECE7F9E102C005900D926B
:1000F000A633B107D9F710E0C2E6D0E004C02197DB
:10010000FE010E945C0CC136D107C9F70E94C70AE4
:100110000C94BC0C0C94000085ED8093BC00809185
:10012000BC0084FDFCCF1092CF010895409158018E
:10013000262F30E0240F311D21323105DCF42091CF
:10014000CF012430C9F4FC0180E090E0861758F418
:10015000309158012191DC01AA5CBE4FA30FB11D63
:100160002C930196F3CF80915801680F609358014A
:1001700080E0089581E0089582E008950895E09177
:10018000A8018091A701E81730F4F0E0E258FE4F93
:10019000808190E008958FEF9FEF08959091A801DE
:1001A0008091A701981750F4E92FF0E0E258FE4F34
:1001B000208130E09F5F9093A80102C02FEF3FEFB6
:1001C000C90108958091A70190E02091A801821BA8
:1001D00091090895CF92DF92EF92FF920F931F93B0
:1001E000CF93DF937C01262F972F8A018091D00136
:1001F000882391F0C62FD72F6E01C40ED51ECC15C3
:10020000DD0571F06991D701ED91FC910190F081CC
:10021000E02DC7010995F3CF642F822F0E9496002D
:10022000C801DF91CF911F910F91FF90EF90DF9068
:10023000CF900895CF93DF931F92CDB7DEB7698338
:100240002091D0012223D1F02091F301203240F0FF
:1002500021E030E0FC013383228380E090E015C090
:100260008091D101E82FF0E0EE52FE4F998190830A
:100270008F5F8093D1018093F30105C061E0CE01CF
:1002800001960E94960081E090E00F90DF91CF915F
:1002900008950E94760C90E0FC01E255FF4F3491E6
:1002A000FC01E656FF4F2491FC01EA57FF4FE49111
:1002B000EE2309F43BC0332339F1333091F038F4A5
:1002C0003130A9F0323001F584B58F7D12C037305E
:1002D00091F03830A1F03430B9F4809180008F7DF6
:1002E00003C0809180008F77809380000DC084B51B
:1002F0008F7784BD09C08091B0008F7703C0809153
:10030000B0008F7D8093B000F0E0EE0FFF1FE45847
:10031000FF4FA591B4918FB7F894EC91611103C090
:1003200020952E2301C02E2B2C938FBF08953FB70D
:10033000F8948091A3019091A401A091A501B0919E
:10034000A60126B5A89B05C02F3F19F00196A11D57
:10035000B11D3FBFBA2FA92F982F8827820F911D5B
:10036000A11DB11DBC01CD0142E0660F771F881FA2
:10037000991F4A95D1F708951F920F920FB60F92C9
:1003800011242F933F938F939F93AF93BF938091AB
:100390009F019091A001A091A101B091A201309183
:1003A0009E0123E0230F2D3720F40196A11DB11DDE
:1003B00005C026E8230F0296A11DB11D20939E01C2
:1003C00080939F019093A001A093A101B093A201FB
:1003D0008091A3019091A401A091A501B091A601E3
:1003E0000196A11DB11D8093A3019093A401A09338
:1003F000A501B093A601BF91AF919F918F913F91BD
:100400002F910F900FBE0F901F901895CF93DF93F1
:10041000EC01688381E089838B859C85853091051B
:1004200091F46F85CE010E94D9086989CE010E949E
:10043000D9086B89CE010E94D9086D89CE010E942E
:10044000D9086F8918C08430910571F46F85CE0189
:100450000E94D9086989CE010E94D9086B89CE0112
:100460000E94D9086D8907C0029751F46F85CE01AB
:100470000E94D9086989CE01DF91CF910C94D908E7
:10048000DF91CF910895CF93DF931F92CDB7DEB761
:10049000FC018081806291E09093D0018093F20111
:1004A0001092D1011092F30184EF91E049830E94F0
:1004B0001A014981642F84EF91E00E941A0181E0C2
:1004C0000F90DF91CF910C947C08CF93DF93EC01D8
:1004D0009881906281E08093D0019093F201109214
:1004E000D1011092F30184EF91E00E941A0181E0A2
:1004F0000E947C0888819091CF019111FCCF91E0FE
:100500009093CF019093CE012FEF2093CD011092C5
:10051000CC011092CB019093AA019091AA01806224
:10052000880F892B8093AA018091A901813061F401
:100530001092A9018091AA018093BB008091BC0018
:1005400083FDF8CF85EC01C085EE8093BC008091DF
:10055000CF018130E1F38091CC01811103C0809102
:10056000CC0101C081E0ABEAB1E02EE731E0F90156
:100570009E2F921B981718F49D919193F9CF10928A
:10058000A8018093A70184EF91E00E94CE00DF9143
:10059000CF910895FF920F931F93CF93DF93EC01B8
:1005A0008981882361F1862F8770F82E683010F0DA
:1005B00095E101C094E1142F062F692FCE010E940E
:1005C000650241E050E060E070E004C0440F551F58
:1005D000661F771FFA94D2F7112311F0482B02C03F
:1005E00040954823083010F063E101C062E1CE017C
:1005F000DF91CF911F910F91FF900C944302DF91F7
:10060000CF911F910F91FF900895CF93DF93EC014D
:100610008B859C858230910509F56130710579F0F3
:100620002CF4672B09F0E6C040E00AC06230710587
:1006300071F06330710509F0DDC040E009C041E0B0
:100640006F85CE010E94CA0241E06989CEC041E0B7
:100650006F85CE010E94CA0240E0F7CF8430910539
:1006600009F03FC061307105C9F054F4672B09F0FF
:10067000C1C041E06F85CE010E94CA0240E014C0B3
:1006800062307105E1F06330710509F0B3C041E0FB
:100690006F85CE010E94CA0240E017C040E06F851E
:1006A000CE010E94CA0241E06989CE010E94CA02BD
:1006B00041E06B89CE010E94CA0240E010C040E0D8
:1006C0006F85CE010E94CA0241E06989CE010E9475
:1006D000CA0240E06B89CE010E94CA0241E06D89E6
:1006E00084C0059709F086C06A30710508F082C0A1
:1006F000FB01EC5CFF4F0C945C0C40E06F85CE017D
:100700000E94CA0241E061C040E06F85CE010E94B4
:10071000CA0241E06989CE010E94CA0240E05AC083
:1007200040E06F85CE010E94CA0241E06989CE0196
:100730000E94CA0240E06B89CE010E94CA0241E0D9
:100740004EC040E001C041E06F85CE010E94CA0268
:1007500041E006C041E06F85CE010E94CA0240E040
:100760006989CE010E94CA0240E00BC041E06F855A
:10077000CE010E94CA0240E06989CE010E94CA02ED
:1007800041E06B89CE010E94CA0241E010C041E005
:100790006F85CE010E94CA0240E06989CE010E94A5
:1007A000CA0241E06B89CE010E94CA0240E06D8915
:1007B000CE010E94CA0240E017C041E001C040E003
:1007C0006F85CE010E94CA0240E06989CE010E9475
:1007D000CA0241E06B89CE010E94CA0240E06D89E5
:1007E000CE010E94CA0241E06F89CE01DF91CF9114
:1007F0000C94CA02DF91CF9108954F925F926F924D
:100800007F928F929F92AF92BF92CF92DF92EF92A0
:10081000FF920F931F93CF93DF93EC018B0177FF30
:1008200004C000271127061B170B161617062CF4F9
:1008300081E090E09C838B8304C0672B11F01C82C5
:100840001B8284E0E82EF12C9AE0C92ED12C0115F0
:10085000110509F449C00E949701898C9A8CAB8CD0
:10086000BC8C2B013C01481859086A087B088D8014
:100870009E80AF80B884481459046A047B0438F31E
:10088000698F7A8F8B8F9C8F2B813C818D859E8584
:100890002130310559F401969E878D8729853A8547
:1008A0008217930771F41E861D860BC0892B21F4D5
:1008B00089859A859E878D878D859E8501979E87E0
:1008C0008D87015011092B853C858D859E852530AE
:1008D000310511F4B60101C0B7010E94480CBC01FA
:1008E000CE010E940503B3CFDF91CF911F910F91ED
:1008F000FF90EF90DF90CF90BF90AF909F908F9040
:100900007F906F905F904F9008951F920F920FB657
:100910000F9211242F933F934F935F936F937F9385
:100920008F939F93AF93BF93EF93FF9380917D013C
:1009300087FF05C010928500109284001BC0209193
:100940007D01022E000C330B8091240290E02817C9
:10095000390784F480917D01082E000C990BFC016D
:10096000EE0FFF1F8E0F9F1FFC01E050FE4F808196
:1009700086FD15C080917D018F5F80937D01209160
:100980007D01022E000C330B8091240290E0281789
:100990003907C4F480917D018C3064F113C08091DB
:1009A0007D01082E000C990BFC01EE0FFF1F8E0F2E
:1009B0009F1FFC01E050FE4F808160E08F730E941A
:1009C0004B01D8CF809184009091850004968034AB
:1009D0009C4918F480E49CE905C0809184009091C2
:1009E0008500049690938900809388008FEF809310
:1009F0007D013BC0209184003091850080917D0174
:100A0000082E000C990BFC01EE0FFF1F8E0F9F1F8D
:100A1000FC01E050FE4F81819281820F931F9093E1
:100A200089008093880080917D01082E000C990B2D
:100A3000FC01EE0FFF1F8E0F9F1FFC01E050FE4FC9
:100A4000808186FF12C080917D01082E000C990BD9
:100A5000FC01EE0FFF1F8E0F9F1FFC01E050FE4FA9
:100A6000808161E08F730E944B01FF91EF91BF91F4
:100A7000AF919F918F917F916F915F914F913F9136
:100A80002F910F900FBE0F901F9018951F920F92ED
:100A90000FB60F9211242F933F934F935F936F9351
:100AA0007F938F939F93AF93BF93EF93FF93809127
:100AB000B900887F803609F49CC068F5883209F453
:100AC0005BC090F4803109F454C038F4882309F4F1
:100AD000F6C0883009F44DC0F6C0883109F44CC026
:100AE000803209F45DC0EFC0803409F468C048F476
:100AF000803309F455C0883309F0E5C08093CD01F7
:100B0000D8C0803509F44FC0883509F45DC08834F9
:100B100009F0D9C0D6C0883909F4C7C0A8F488370D
:100B200009F467C038F4883609F463C0803709F4E3
:100B300060C0C9C0883809F4B8C0803909F45FC002
:100B4000803809F0C0C05BC0803B09F486C038F42F
:100B5000803A09F466C0883A09F47FC0B4C0803C8A
:100B600009F4A7C0883C09F4A4C0883B09F48AC0F2
:100B7000AAC08091AA0110C09091CC018091CB01B4
:100B8000981770F5E091CC0181E08E0F8093CC0135
:100B9000F0E0E555FE4F80818093BB0085EC86C078
:100BA0008093CD018EC0E091CC0181E08E0F8093C7
:100BB000CC018091BB00F0E0E555FE4F8083909121
:100BC000CC018091CB016EC0E091CC0181E08E0F11
:100BD0008093CC018091BB00F0E0E555FE4F80830F
:100BE0008091CE0181116DC081E08093A90184EADA
:100BF00061C083E08093CF0110927C01CFCF8091C0
:100C00007C01803208F051C0E0917C0181E08E0FC0
:100C100080937C018091BB00F0E0E45AFE4F80831A
:100C2000BDCF85EC8093BC001092CF0180917C01F8
:100C3000803230F4E0917C01F0E0E45AFE4F108203
:100C400060917C0170E0E0915A01F0915B018CE5CC
:100C500091E0099510927C0136C084E08093CF0129
:100C60001092590110925801E0915601F0915701EC
:100C7000099580915801811105C081E08093580148
:100C800010923601E091590181E08E0F8093590155
:100C9000F0E0EA5CFE4F80818093BB0090915901A7
:100CA00080915801981708F479CF85E88093BC00AB
:100CB0000AC085EC8093BC001092CF0104C0109252
:100CC000CD010E948C00FF91EF91BF91AF919F9158
:100CD0008F917F916F915F914F913F912F910F90E5
:100CE0000FBE0F901F901895CF92DF92EF92FF9258
:100CF0000F931F93CF93DF936C017A018B01C0E0B8
:100D0000D0E0CE15DF0589F0D8016D918D01D601B7
:100D1000ED91FC910190F081E02DC6010995892BA0
:100D200011F47E0102C02196ECCFC701DF91CF9173
:100D30001F910F91FF90EF90DF90CF900895FC01ED
:100D4000918D828D981761F0828DDF01A80FB11D02
:100D50005D968C91928D9F5F9F73928F90E0089526
:100D60008FEF9FEF0895FC01918D828D981731F0E0
:100D7000828DE80FF11D858D90E008958FEF9FEF34
:100D80000895FC01918D228D892F90E0805C9F4F0A
:100D9000821B91098F739927089586E292E00E9441
:100DA000C10621E0892B09F420E0822F0895FC017F
:100DB000848DDF01A80FB11DA35ABF4F2C91848DE4
:100DC00090E001968F739927848FA689B7892C9319
:100DD000A089B1898C9180648C93938D848D9813B4
:100DE00006C00288F389E02D80818F7D808308957D
:100DF000EF92FF920F931F93CF93DF93EC0181E06B
:100E0000888F9B8D8C8D981305C0E889F989808126
:100E100085FD24C0F62E0B8D10E00F5F1F4F0F7362
:100E20001127E02E8C8DE8120CC00FB607FCFACF0C
:100E3000E889F989808185FFF5CFCE010E94D70628
:100E4000F1CF8B8DFE01E80FF11DE35AFF4FF082C9
:100E50000B8FEA89FB898081806207C0EE89FF8958
:100E60006083E889F98980818064808381E090E0F3
:100E7000DF91CF911F910F91FF90EF900895CF9345
:100E8000DF93EC01888D8823C9F0EA89FB89808192
:100E900085FD05C0A889B9898C9186FD0FC00FB664
:100EA00007FCF5CF808185FFF2CFA889B9898C91A5
:100EB00085FFEDCFCE010E94D706E7CFDF91CF911E
:100EC000089580E090E0892B29F00E94CD068111E1
:100ED0000C94000008958F929F92AF92BF92CF9290
:100EE000DF92EF92FF920E9497014B015C0180ED2F
:100EF000C82E87E0D82EE12CF12C0E949701DC014E
:100F0000CB0188199909AA09BB09883E9340A1051C
:100F1000B10558F021E0C21AD108E108F10888EEC5
:100F2000880E83E0981EA11CB11CC114D104E104F9
:100F3000F10419F7FF90EF90DF90CF90BF90AF9042
:100F40009F908F900895EF92FF920F931F93CF93EE
:100F5000DF937C018B014DE050E064E271E086E2BA
:100F600092E00E94740642E050E062E371E086E2A3
:100F700092E00E9474060230110544F4C2E3D0E00E
:100F80000130110539F00FEF1FEF04C0C4E6D0E0C7
:100F900001E010E0B801C7010E94FD032197D1F7DD
:100FA000DF91CF911F910F91FF90EF900895AF9235
:100FB000BF92CF92DF92EF92FF920F931F93CF9346
:100FC000DF9363E070E00E94480C8B01EC01EBECD6
:100FD000F2E080E090E0419151914017510711F407
:100FE0009C0104C0019686309105A9F72430310593
:100FF00008F459C0C090C902D090CA02A090C5029E
:10100000B090C60282E3E82EF12C2430310519F5A8
:1010100061E070E0C5010E94FD036FEF7FEFC60144
:101020000E94FD0381E0E81AF10891F72091CB02BC
:101030003091CC021093CC020093CB028091D50268
:101040009091D6023093D6022093D5029093CE028F
:101050008093CD0222C06FEF7FEFC5010E94FD0398
:1010600061E070E0C6010E94FD0381E0E81AF1082A
:1010700091F72091CD023091CE021093CE020093D1
:10108000CD028091D5029091D6023093D602209362
:10109000D5029093CC028093CB029093D40280939C
:1010A000D30220E030E0BE012230310581F0233050
:1010B000310591F02130310529F08091C3029091E2
:1010C000C4020EC08091C7029091C80209C08091ED
:1010D000C5029091C60204C08091C9029091CA02D3
:1010E000DF91CF911F910F91FF90EF90DF90CF9004
:1010F000BF90AF900C94A307382F2091F3019091EB
:10110000F201213208F049C08091CF018111FCCF5A
:1011100042E04093CF013093CE013FEF3093CD01B9
:101120001092CC012093CB01A2EDB1E04BEA51E04B
:10113000FA013E2F341B321718F43D913193F9CF49
:101140001092AA012091AA01990F922B9093AA01C3
:101150009091A901913061F41092A9019091AA0196
:101160009093BB009091BC0093FDF8CF95EC01C02B
:1011700095EE9093BC009091CF019230E1F3909165
:10118000CD019F3F79F08091CD01803241F0809177
:10119000CD01803331F084E005C081E003C082E0FE
:1011A00001C083E01092D1011092F3011092D0019E
:1011B00008950F931F93CF93DF93EC0189818823C8
:1011C000F1F001E0683008F400E0162F602FCE0146
:1011D0000E946502912F977041E050E060E070E05E
:1011E00004C0440F551F661F771F9A95D2F740958C
:1011F0004823602FCE010E94430281E08A83DF9161
:10120000CF911F910F9108951F920F920FB60F92D9
:1012100011242F933F934F935F936F937F938F93FB
:101220009F93AF93BF93EF93FF9386E292E00E9468
:10123000D706FF91EF91BF91AF919F918F917F91D1
:101240006F915F914F913F912F910F900FBE0F9033
:101250001F9018951F920F920FB60F9211242F9383
:101260008F939F93EF93FF93E0913602F0913702B3
:101270008081E0913C02F0913D0282FD12C090819C
:1012800080913F028F5F8F7320914002821751F04F
:10129000E0913F02F0E0EA5DFD4F958F80933F02C1
:1012A00001C08081FF91EF919F918F912F910F90BD
:1012B0000FBE0F901F9018951092290210922802CD
:1012C00088EE93E0A0E0B0E080932A0290932B0296
:1012D000A0932C02B0932D0228E031E03093270236
:1012E0002093260225EC30E0309333022093320223
:1012F00024EC30E0309335022093340220EC30E0CF
:10130000309337022093360221EC30E030933902DB
:101310002093380222EC30E030933B0220933A02D3
:1013200026EC30E030933D0220933C0210923F02C5
:101330001092400210924102109242021092F70164
:101340001092F6018093F8019093F901A093FA01AD
:10135000B093FB0188E191E09093F5018093F40153
:1013600010923503109236031092420310924103FB
:10137000109238031092370310924D0310924E03CF
:1013800010924F031092500328EC30E030933E034C
:1013900020933D0382E090E09093440380934303C5
:1013A00083E090E0909346038093450310924803B6
:1013B0001092470381E090E090934A0380934903A1
:1013C00010924C0310924B0384E090E09093400302
:1013D00080933F0310921803109219031092250373
:1013E0001092240310921B0310921A0310923003E0
:1013F0001092310310923203109233033093210381
:101400002093200346E050E05093270340932603A7
:1014100047E050E0509329034093280390932B0317
:1014200080932A0345E050E050932D0340932C0312
:1014300010922F0310922E03909323038093220384
:101440001092FB021092FC02109208031092070304
:101450001092FE021092FD021092130310921403D8
:101460001092150310921603309304032093030384
:1014700048E050E050930A034093090349E050E0EC
:1014800050930C0340930B034AE050E050930E033B
:1014900040930D034BE050E05093100340930F0333
:1014A0001092120310921103909306038093050388
:1014B0001092DE021092DF021092EB021092EA020A
:1014C0001092E1021092E0021092F6021092F702DE
:1014D0001092F8021092F9023093E7022093E6028C
:1014E0002CE030E03093ED022093EC022DE030E070
:1014F0003093EF022093EE022EE030E03093F102C1
:101500002093F0022FE030E03093F3022093F202B8
:101510001092F5021092F4029093E9028093E8028F
:10152000809124028C30A0F491E0980F90932402D3
:101530008093DA0290E0FC01EE0FFF1F8E0F9F1FD9
:10154000FC01E050FE4F88EB9BE09283818303C057
:101550008FEF8093DA02809124028C30A0F491E026
:10156000980F909324028093D70290E0FC01EE0F35
:10157000FF1F8E0F9F1FFC01E050FE4F88EB9BE08A
:101580009283818308958FEF8093D7020895CF933C
:10159000DF93CDB7DEB764970FB6F894DEBF0FBE0A
:1015A000CDBF789484B5826084BD84B5816084BDEC
:1015B00085B5826085BD85B5816085BD80916E00F1
:1015C000816080936E001092810080918100826022
:1015D000809381008091810081608093810080915F
:1015E00080008160809380008091B100846080934E
:1015F000B1008091B00081608093B00080917A004A
:10160000846080937A0080917A00826080937A006F
:1016100080917A00816080937A0080917A0080685E
:1016200080937A001092C100E0913602F091370267
:1016300082E08083E0913202F09133021082E091E7
:101640003402F09135028FEC808310923E02E091DB
:101650003A02F0913B0286E08083E0913802F091FB
:101660003902808180618083E0913802F0913902F3
:10167000808188608083E0913802F0913902808116
:1016800080688083E0913802F091390280818F7DFB
:101690008083109225021092A8011092A701109247
:1016A000D1011092F3011092CF0181E08093CE011D
:1016B0001092A90161E082E10E944B0161E083E1A7
:1016C0000E944B018091B9008E7F8093B900809178
:1016D000B9008D7F8093B90088E48093B80085E4D9
:1016E0008093BC004FEF60E085E292E00E944302ED
:1016F0004FEF61E085E292E00E9443026091250293
:1017000087E193E00E9406026091250284E393E062
:101710000E940602609125028AEF92E00E94060272
:10172000609125028DED92E00E94060220913D031A
:1017300030913E03032E000C440B550B812C87E89F
:10174000982E83E9A82E83E0B82EC501B4010E942B
:101750007B0C9AE0C92ED12CE12CF12CCA01B901E5
:10176000A70196010E947B0C2093390330933A0322
:1017700040933B0350933C0320912003309121037D
:10178000032E000C440B550BC501B4010E947B0CC9
:10179000CA01B901A70196010E947B0C20931C038A
:1017A00030931D0340931E0350931F0320910303A6
:1017B00030910403032E000C440B550BC501B401FA
:1017C0000E947B0CCA01B901A70196010E947B0C03
:1017D0002093FF02309300034093010350930203D0
:1017E0002091E6023091E702032E000C440B550BCA
:1017F000C501B4010E947B0CCA01B901A701960181
:101800000E947B0C2093E2023093E3024093E402B7
:101810005093E5021A86198681E090E09C878B87B9
:1018200082E090E09E878D8783E090E0988B8F87A1
:1018300084E090E09A8B898B85E090E09C8B8B8B89
:1018400084E393E09A83898387E193E09C838B838D
:101850008AEF92E09E838D838DED92E098878F834F
:1018600084E1FE013196A3ECB2E001900D928A95DD
:10187000E1F78CE090E00E94D7070E946B0783E0BD
:1018800090E00E94D7070E946B070E946107F1CF8A
:1018900097FB072E16F4009407D077FD09D00E941D
:1018A000620C07FC05D03EF4909581959F4F0895FA
:1018B000709561957F4F0895EE0FFF1F0590F4918D
:1018C000E02D0994AA1BBB1B51E107C0AA1FBB1F37
:1018D000A617B70710F0A61BB70B881F991F5A95BC
:1018E000A9F780959095BC01CD01089581E090E025
:1018F000F8940C94BC0C052E97FB1EF400940E94E7
:10190000920C57FD07D00E949A0C07FC03D04EF4AE
:101910000C94920C50954095309521953F4F4F4F28
:101920005F4F089590958095709561957F4F8F4F8B
:101930009F4F0895A1E21A2EAA1BBB1BFD010DC0EB
:10194000AA1FBB1FEE1FFF1FA217B307E407F5076F
:1019500020F0A21BB30BE40BF50B661F771F881F4B
:10196000991F1A9469F760957095809590959B01E1
:0C197000AC01BD01CF010895F894FFCF39
:10197C000100000000000000F8067406C1069F0676
:10198C00B3063F07000000001A01EA00E200CE0097
:10199C00BF00BE005475726E65642043616C6C654B
:0619AC0064000D0A0000BA
:107E0000112484B714BE81FFF0D085E080938100F7
:107E100082E08093C00088E18093C10086E0809377
:107E2000C20080E18093C4008EE0C9D0259A86E02C
:107E300020E33CEF91E0309385002093840096BBD3
:107E4000B09BFECF1D9AA8958150A9F7CC24DD24C4
:107E500088248394B5E0AB2EA1E19A2EF3E0BF2EE7
:107E6000A2D0813461F49FD0082FAFD0023811F036
:107E7000013811F484E001C083E08DD089C08234E0
:107E800011F484E103C0853419F485E0A6D080C0E4
:107E9000853579F488D0E82EFF2485D0082F10E0AE
:107EA000102F00270E291F29000F111F8ED06801E7
:107EB0006FC0863521F484E090D080E0DECF843638
:107EC00009F040C070D06FD0082F6DD080E0C81688
:107ED00080E7D80618F4F601B7BEE895C0E0D1E017
:107EE00062D089930C17E1F7F0E0CF16F0E7DF06D8
:107EF00018F0F601B7BEE89568D007B600FCFDCFD4
:107F0000A601A0E0B1E02C9130E011968C91119780
:107F100090E0982F8827822B932B1296FA010C0160
:107F200087BEE89511244E5F5F4FF1E0A038BF0790
:107F300051F7F601A7BEE89507B600FCFDCF97BE46
:107F4000E89526C08437B1F42ED02DD0F82E2BD052
:107F50003CD0F601EF2C8F010F5F1F4F84911BD097
:107F6000EA94F801C1F70894C11CD11CFA94CF0C13
:107F7000D11C0EC0853739F428D08EE10CD085E9AC
:107F80000AD08FE07ACF813511F488E018D01DD067
:107F900080E101D065CF982F8091C00085FFFCCF94
:107FA0009093C60008958091C00087FFFCCF809118
:107FB000C00084FD01C0A8958091C6000895E0E648
:107FC000F0E098E1908380830895EDDF803219F02E
:107FD00088E0F5DFFFCF84E1DECF1F93182FE3DFCA
:107FE0001150E9F7F2DF1F91089580E0E8DFEE27F6
:047FF000FF270994CA
:027FFE00040479
:0400000300007E007B
:00000001FF