:100000000C9467000C948F000C948F000C948F005C
:100010000C948F000C948F000C948F000C948F0024
:100020000C948F000C948F000C948F000C94F806A5
:100030000C948F000C948F000C948F000C948F0004
:100040000C9497020C948F000C94DF010C94B9016E
:100050000C948F000C948F000C948F000C948F00E4
:100060000C94B9070C948F00B603BD03C903DA03DF
:10007000DC03E303EF03000416041804000000008F
:10008000250028002B0004040404040404040202D4
:100090000202020203030303030301020408102007
:1000A0004080010204081020010204081020000012
:1000B0000008000201000003040700000000000027
:1000C000000000000000240027002A004E0D11242B
:1000D0001FBECFEFD8E0DEBFCDBF23E0A4E2B1E08A
:1000E00001C01D92AD34B207E1F711E0A0E0B1E02C
:1000F000E4E8FDE102C005900D92A432B107D9F702
:1001000010E0C7E6D0E004C02197FE010E943E0E39
:10011000C636D107C9F70E949A0B0C94C00E0C94F6
:100120000000FC01918D828D981761F0828DDF01B6
:10013000A80FB11D5D968C91928D9F5F9F73928FDA
:1001400090E008958FEF9FEF0895FC01918D828DCF
:10015000981731F0828DE80FF11D858D90E008959C
:100160008FEF9FEF0895FC01918D228D892F90E0F4
:10017000805C9F4F821B91098F739927089588E0B7
:1001800092E00E94B30021E0892B09F420E0822F45
:100190000895FC01848DDF01A80FB11DA35ABF4F44
:1001A0002C91848D90E001968F739927848FA68976
:1001B000B7892C93A089B1898C9180648C93938D9D
:1001C000848D981306C00288F389E02D80818F7D8D
:1001D00080830895EF92FF920F931F93CF93DF9345
:1001E000EC0181E0888F9B8D8C8D981305C0E88988
:1001F000F989808185FD24C0F62E0B8D10E00F5FFC
:100200001F4F0F731127E02E8C8DE8120CC00FB614
:1002100007FCFACFE889F989808185FFF5CFCE0107
:100220000E94C900F1CF8B8DFE01E80FF11DE35A4A
:10023000FF4FF0820B8FEA89FB898081806207C0C3
:10024000EE89FF896083E889F989808180648083F1
:1002500081E090E0DF91CF911F910F91FF90EF909F
:100260000895CF93DF93EC01888D8823C9F0EA8944
:10027000FB89808185FD05C0A889B9898C9186FD9F
:100280000FC00FB607FCF5CF808185FFF2CFA8899C
:10029000B9898C9185FFEDCFCE010E94C900E7CFCF
:1002A000DF91CF9108950C94BF003FB7F8948091EF
:1002B0002B0190912C01A0912D01B0912E0126B51A
:1002C000A89B05C02F3F19F00196A11DB11D3FBF8E
:1002D000BA2FA92F982F8827820F911DA11DB11D1C
:1002E000BC01CD0142E0660F771F881F991F4A9518
:1002F000D1F708950E94580ECF93DF93EC016883E5
:1003000081E089838B859C858530910591F46F858B
:10031000CE010E94140A6989CE010E94140A6B89D9
:10032000CE010E94140A6D89CE010E94140A6F89C1
:1003300018C08430910571F46F85CE010E94140AB3
:100340006989CE010E94140A6B89CE010E94140AA9
:100350006D8907C0029751F46F85CE010E94140A7F
:100360006989CE01DF91CF910C94140ADF91CF916E
:1003700008951F920F920FB60F9211242F933F935F
:100380004F935F936F937F938F939F93AF93BF939D
:10039000EF93FF9388E092E00E94C900FF91EF91F4
:1003A000BF91AF919F918F917F916F915F914F918D
:1003B0003F912F910F900FBE0F901F9018951F9295
:1003C0000F920FB60F9211242F938F939F93EF9359
:1003D000FF93E0911802F09119028081E0911E02D2
:1003E000F0911F0282FD12C09081809121028F5FE7
:1003F0008F7320912202821751F0E0912102F0E0E8
:10040000E85FFD4F958F8093210201C08081FF91AD
:10041000EF919F918F912F910F900FBE0F901F9092
:10042000189590E0FC01E255FF4F3491FC01E6562F
:10043000FF4F2491FC01EA57FF4FE491EE2309F4AA
:100440003BC0332339F1333091F038F43130A9F027
:10045000323001F584B58F7D12C0373091F03830DD
:10046000A1F03430B9F4809180008F7D03C0809179
:1004700080008F77809380000DC084B58F7784BD16
:1004800009C08091B0008F7703C08091B0008F7D4C
:100490008093B000F0E0EE0FFF1FE458FF4FA591EE
:1004A000B4918FB7F894EC91611103C020952E237D
:1004B00001C02E2B2C938FBF08958F929F92AF92E5
:1004C000BF92CF92DF92EF92FF926B017C010E946C
:1004D00055014B015C01C114D104E104F104F1F0B8
:1004E0000E945501DC01CB0188199909AA09BB09B1
:1004F000883E9340A105B10570F321E0C21AD108EE
:10050000E108F10888EE880E83E0981EA11CB11C5A
:10051000C114D104E104F10419F7DDCFFF90EF908D
:10052000DF90CF90BF90AF909F908F9008951F92D3
:100530000F920FB60F9211242F933F938F939F9397
:10054000AF93BF938091270190912801A091290139
:10055000B0912A013091260123E0230F2D3720F49A
:100560000196A11DB11D05C026E8230F0296A11D0D
:10057000B11D209326018093270190932801A09319
:100580002901B0932A0180912B0190912C01A09117
:100590002D01B0912E010196A11DB11D80932B015B
:1005A00090932C01A0932D01B0932E01BF91AF9198
:1005B0009F918F913F912F910F900FBE0F901F90A1
:1005C0001895CF93DF931F92CDB7DEB7FC018081E2
:1005D000806291E09093E401809306021092E5011D
:1005E0001092070285EA92E049830E944C054981F6
:1005F000642F85EA92E00E944C0581E00F90DF9124
:10060000CF910C94B709FF920F931F93CF93DF9371
:10061000EC018981882361F1862F8770F82E68307C
:1006200010F095E101C094E1142F062F692FCE013F
:100630000E947C0541E050E060E070E004C0440F9F
:10064000551F661F771FFA94D2F7112311F0482B1C
:1006500002C040954823083010F063E101C062E118
:10066000CE01DF91CF911F910F91FF900C94E10289
:10067000DF91CF911F910F91FF900895CF93DF935A
:10068000EC018B859C858230910509F561307105FF
:1006900079F02CF4672B09F0E6C040E00AC0623024
:1006A000710571F06330710509F0DDC040E009C0EB
:1006B00041E06F85CE010E94030341E06989CEC00D
:1006C00041E06F85CE010E94030340E0F7CF843004
:1006D000910509F03FC061307105C9F054F4672BF2
:1006E00009F0C1C041E06F85CE010E94030340E0E4
:1006F00014C062307105E1F06330710509F0B3C0D8
:1007000041E06F85CE010E94030340E017C040E046
:100710006F85CE010E94030341E06989CE010E94EA
:10072000030341E06B89CE010E94030340E010C047
:1007300040E06F85CE010E94030341E06989CE014C
:100740000E94030340E06B89CE010E94030341E055
:100750006D8984C0059709F086C06A30710508F07C
:1007600082C0FB01EC5CFF4F0C943E0E40E06F85B5
:10077000CE010E94030341E061C040E06F85CE01DD
:100780000E94030341E06989CE010E94030340E017
:100790005AC040E06F85CE010E94030341E06989A1
:1007A000CE010E94030340E06B89CE010E94030347
:1007B00041E04EC040E001C041E06F85CE010E94A3
:1007C000030341E006C041E06F85CE010E940303B0
:1007D00040E06989CE010E94030340E00BC041E084
:1007E0006F85CE010E94030340E06989CE010E941B
:1007F000030341E06B89CE010E94030341E010C076
:1008000041E06F85CE010E94030340E06989CE017B
:100810000E94030341E06B89CE010E94030340E084
:100820006D89CE010E94030340E017C041E001C082
:1008300040E06F85CE010E94030340E06989CE014C
:100840000E94030341E06B89CE010E94030340E054
:100850006D89CE010E94030341E06F89CE01DF91D3
:10086000CF910C940303DF91CF9108954F925F9243
:100870006F927F928F929F92AF92BF92CF92DF92B0
:10088000EF92FF920F931F93CF93DF93EC018B01B5
:1008900077FF04C000271127061B170B1616170633
:1008A0002CF481E090E09C838B8304C0672B11F0D3
:1008B0001C821B8284E0E82EF12C9AE0C92ED12CF8
:1008C0000115110509F449C00E945501898C9A8CC3
:1008D000AB8CBC8C2B013C01481859086A087B087A
:1008E0008D809E80AF80B884481459046A047B04CC
:1008F00038F3698F7A8F8B8F9C8F2B813C818D850C
:100900009E852130310559F401969E878D87298572
:100910003A858217930771F41E861D860BC0892BBA
:1009200021F489859A859E878D878D859E8501977F
:100930009E878D87015011092B853C858D859E856D
:100940002530310511F4B60101C0B7010E942A0E0D
:10095000BC01CE010E943E03B3CFDF91CF911F9126
:100960000F91FF90EF90DF90CF90BF90AF909F904E
:100970008F907F906F905F904F90089585ED80935A
:10098000BC008091BC0084FDFCCF1092E30108956F
:1009900040915201262F30E0240F311D21323105C4
:1009A000DCF42091E3012430C9F4FC0180E090E004
:1009B000861758F4309152012191DC01A05DBE4FA1
:1009C000A30FB11D2C930196F3CF80915201680FB4
:1009D0006093520180E0089581E0089582E00895D7
:1009E0000895E091250180912401E81730F4F0E0AA
:1009F000E356FE4F808190E008958FEF9FEF0895BA
:100A00009091250180912401981750F4E92FF0E08E
:100A1000E356FE4F208130E09F5F9093250102C096
:100A20002FEF3FEFC90108958091240190E02091BC
:100A30002501821B91090895CF92DF92EF92FF92D8
:100A40000F931F93CF93DF937C01262F972F8A015B
:100A50008091E401882391F0C62FD72F6E01C40E38
:100A6000D51ECC15DD0571F06991D701ED91FC9192
:100A70000190F081E02DC7010995F3CF642F822FFB
:100A80000E94C804C801DF91CF911F910F91FF9080
:100A9000EF90DF90CF900895CF93DF931F92CDB763
:100AA000DEB769832091E4012223D1F0209107026F
:100AB000203240F021E030E0FC013383228380E0EB
:100AC00090E015C08091E501E82FF0E0EA51FE4F7B
:100AD000998190838F5F8093E5018093070205C021
:100AE00061E0CE0101960E94C80481E090E00F9081
:100AF000DF91CF9108950895CF93DF93EC01988112
:100B0000906281E08093E401909306021092E501E7
:100B10001092070285EA92E00E944C0581E00E9453
:100B2000B70988819091E3019111FCCF91E09093F6
:100B3000E3019093E2012FEF2093E1011092E00195
:100B40001092DF019093BE019091BE018062880FE8
:100B5000892B8093BE018091BD01813061F4109298
:100B6000BD018091BE018093BB008091BC0083FDDC
:100B7000F8CF85EC01C085EE8093BC008091E30145
:100B80008130E1F38091E001811103C08091E001A7
:100B900001C081E0AFEBB1E02DE931E0F9019E2F1A
:100BA000921B981718F49D919193F9CF10922501FB
:100BB0008093240185EA92E00E940005DF91CF91A5
:100BC0000895CF92DF92EF92FF92CF93DF93EC01E3
:100BD000603282E078070CF03DC077FD06C0653BCF
:100BE00071052CF064EB70E002C060E070E0898178
:100BF00028E830E06901C81AD10887FDD394CC0CED
:100C0000DD1CCC0CDD1C0D2C000CEE08FF088A81CD
:100C100028E532E0281B310987FD3395220F331F69
:100C2000220F331FC901330FAA0BBB0B9C01AD016F
:100C30002C193D094E095F09DB010E94870E24EB48
:100C400030E040E050E00E945D0EC20ED31EE41E74
:100C5000F51EB60188818C3080F5998148E850E016
:100C6000491B510997FD5395440F551F440F551FBC
:100C70006417750784F09A8128E532E0291B310951
:100C800097FD3395220F331F220F331FAB01261719
:100C900037070CF4A90142505109440F551F2FB7D3
:100CA000F89490E0FC01EE0FFF1F8E0F9F1FFC01D8
:100CB000E758FE4F528341832FBFDF91CF91FF90C2
:100CC000EF90DF90CF900895CF93DF93DC018C916C
:100CD0008C3008F06DC09B013327F901E656FF4FB9
:100CE0008491F901EA57FF4F2491222399F030E0D3
:100CF000220F331FF901EE53FF4FC591D491F90133
:100D0000E458FF4F259134919FB7F894E881E82B80
:100D1000E8839FBF8C91E82FF0E09F01220F331FE3
:100D2000E20FF31FE758FE4F6F739081907C692BA1
:100D3000608311961C92119712961C9212976CE088
:100D40000E941E0E9CE0899FB001112440E050E0FB
:100D50009A01260F371FF901EE0FFF1F2E0F3F1FBD
:100D6000F901E758FE4F908196FD16C04F5F5F4F27
:100D70004C30510569F781110FC01092800082E05C
:100D8000809381001092850010928400B19A809126
:100D90006F00826080936F00EC91F0E0CF01880FCC
:100DA000991FE80FF91FE758FE4F80818064808308
:100DB0008C91DF91CF910895FC01909178019C3046
:100DC000A0F481E0890F809378019083892F90E0CF
:100DD000FC01EE0FFF1F8E0F9F1FFC01E758FE4F17
:100DE00088EB9BE09283818308958FEF8083089541
:100DF0001F920F920FB60F9211242F933F934F9390
:100E00005F936F937F938F939F93AF93BF93EF9372
:100E1000FF938091770187FF05C0109285001092A3
:100E200084001BC020917701022E000C330B8091AF
:100E3000780190E02817390784F480917701082E13
:100E4000000C990BFC01EE0FFF1F8E0F9F1FFC0182
:100E5000E758FE4F808186FD15C0809177018F5F36
:100E60008093770120917701022E000C330B809143
:100E7000780190E028173907C4F4809177018C300D
:100E800064F113C080917701082E000C990BFC01CE
:100E9000EE0FFF1F8E0F9F1FFC01E758FE4F808152
:100EA00060E08F730E941102D8CF809184009091EE
:100EB0008500049680349C4918F480E49CE905C0C0
:100EC000809184009091850004969093890080938E
:100ED00088008FEF809377013BC020918400309190
:100EE000850080917701082E000C990BFC01EE0F14
:100EF000FF1F8E0F9F1FFC01E758FE4F81819281DB
:100F0000820F931F909389008093880080917701CE
:100F1000082E000C990BFC01EE0FFF1F8E0F9F1F78
:100F2000FC01E758FE4F808186FF12C08091770157
:100F3000082E000C990BFC01EE0FFF1F8E0F9F1F58
:100F4000FC01E758FE4F808161E08F730E9411021F
:100F5000FF91EF91BF91AF919F918F917F916F9191
:100F60005F914F913F912F910F900FBE0F901F9067
:100F700018951F920F920FB60F9211242F933F9343
:100F80004F935F936F937F938F939F93AF93BF9391
:100F9000EF93FF938091B900887F803609F49CC05D
:100FA00068F5883209F45BC090F4803109F454C0CC
:100FB00038F4882309F4F6C0883009F44DC0F6C02F
:100FC000883109F44CC0803209F45DC0EFC0803430
:100FD00009F468C048F4803309F455C0883309F037
:100FE000E5C08093E101D8C0803509F44FC0883551
:100FF00009F45DC0883409F0D9C0D6C0883909F435
:10100000C7C0A8F4883709F467C038F4883609F4F3
:1010100063C0803709F460C0C9C0883809F4B8C01B
:10102000803909F45FC0803809F0C0C05BC0803BE4
:1010300009F486C038F4803A09F466C0883A09F4A5
:101040007FC0B4C0803C09F4A7C0883C09F4A4C0A8
:10105000883B09F48AC0AAC08091BE0110C090915B
:10106000E0018091DF01981770F5E091E00181E0E7
:101070008E0F8093E001F0E0E154FE4F8081809379
:10108000BB0085EC86C08093E1018EC0E091E00159
:1010900081E08E0F8093E0018091BB00F0E0E1548D
:1010A000FE4F80839091E0018091DF016EC0E0915E
:1010B000E00181E08E0F8093E0018091BB00F0E0C1
:1010C000E154FE4F80838091E20181116DC081E087
:1010D0008093BD0184EA61C083E08093E3011092B4
:1010E0007601CFCF80917601803208F051C0E09137
:1010F000760181E08E0F809376018091BB00F0E055
:10110000EA5AFE4F8083BDCF85EC8093BC001092DD
:10111000E30180917601803230F4E0917601F0E0D5
:10112000EA5AFE4F10826091760170E0E09154011E
:10113000F091550186E591E009951092760136C04F
:1011400084E08093E3011092530110925201E091E8
:101150005001F0915101099580915201811105C012
:1011600081E08093520110923001E091530181E0BF
:101170008E0F80935301F0E0E05DFE4F80818093FD
:10118000BB009091530180915201981708F479CFD8
:1011900085E88093BC000AC085EC8093BC00109267
:1011A000E30104C01092E1010E94BE04FF91EF919F
:1011B000BF91AF919F918F917F916F915F914F916F
:1011C0003F912F910F900FBE0F901F901895CF92C7
:1011D000DF92EF92FF920F931F93CF93DF936C01F7
:1011E0007A018B01C0E0D0E0CE15DF0589F0D8018F
:1011F0006D918D01D601ED91FC910190F081E02D72
:10120000C6010995892B11F47E0102C02196ECCF0D
:10121000C701DF91CF911F910F91FF90EF90DF9069
:10122000CF900895CF92DF92EF92FF920F931F938A
:10123000CF93DF931F92CDB7DEB77C016B01623095
:1012400071054CF402E310E06130710549F0CC24E3
:10125000CA94DC2C05C004E610E0CC24C394D12C45
:10126000442381F00B5F1F4F0DC02115310531F470
:10127000D194C194D1082B5F3F4F40E01216130662
:101280006CF48901B601C70149830E9436049801B4
:10129000215031094981442389F3E7CF62E370E0AB
:1012A00080E090E00F90DF91CF911F910F91FF9020
:1012B000EF90DF90CF900C945D028F929F92AF924F
:1012C000BF92CF92DF92EF92FF920F931F93CF9333
:1012D000DF931F92CDB7DEB77C016B014A0142302C
:1012E00051054CF402E310E04130510549F08824E7
:1012F0008A94982C05C004E610E088248394912CED
:10130000222371F00B5F1F4F0BC04115510521F4D3
:101310004B5F5F4F450120E014161506ACF48A01BF
:10132000B401C70129830E943604AA24BB24A8184B
:10133000B908B501C6010E943604A80141505109FF
:101340002981222349F3E1CF62E370E080E090E05D
:101350000F90DF91CF911F910F91FF90EF90DF9051
:10136000CF90BF90AF909F908F900C945D02382FDC
:101370002091070290910602213208F049C0809125
:10138000E3018111FCCF42E04093E3013093E2019D
:101390003FEF3093E1011092E0012093DF01A6EED0
:1013A000B1E04FEB51E0FA013E2F341B321718F435
:1013B0003D913193F9CF1092BE012091BE01990F5A
:1013C000922B9093BE019091BD01913061F41092E7
:1013D000BD019091BE019093BB009091BC0093FD24
:1013E000F8CF95EC01C095EE9093BC009091E3018D
:1013F0009230E1F39091E1019F3F79F08091E1011A
:10140000803241F08091E101803331F084E005C009
:1014100081E003C082E001C083E01092E5011092F8
:1014200007021092E40108950F931F93CF93DF9367
:10143000EC0189818823F1F001E0683008F400E0D4
:10144000162F602FCE010E947C05912F977041E0EE
:1014500050E060E070E004C0440F551F661F771F26
:101460009A95D2F740954823602FCE010E94E10261
:1014700081E08A83DF91CF911F910F910895CF92E0
:10148000DF92EF92FF920F931F93CF93DF9363E06E
:1014900070E00E942A0E6B017C01E1ECF2E080E03A
:1014A00090E0219131912C153D0511F4EC0104C01F
:1014B000019686309105A9F7C230D10508F051C0D8
:1014C000E091B702F091B8028585968511E08233EC
:1014D000910521F08639910509F010E0E091B30201
:1014E000F091B402858596858233910519F086398D
:1014F000910511F401E004C0112309F4F4C000E0E7
:1015000062E370E08091BB029091BC020E94E10511
:101510001123A9F08091B7029091B802002359F0ED
:1015200020E040E050E0BC018091B3029091B40211
:101530000E945D090DC040E060E070E007C040E03F
:1015400060E070E08091B3029091B4020E941209B1
:1015500064E670E08091BB029091BC020E94E105BC
:10156000C2C0E091B102F091B2028585968501E09A
:101570008233910521F08639910509F000E0E09170
:10158000B502F091B6028585968511E0823391050A
:1015900041F08639910509F010E0011102C01123D4
:1015A00079F162E370E08091B9029091BA020E94F1
:1015B000E1050023A1F08091B1029091B2021123C4
:1015C00051F06091B5027091B60220E040E050E029
:1015D0000E945D090DC040E060E070E007C040E09F
:1015E00060E070E08091B5029091B6020E9412090D
:1015F00064E670E08091B9029091BA020E94E10520
:10160000C430D10508F46FC062E370E08091B90284
:101610009091BA020E94E1056091B7027091B80200
:101620008091B3029091B40221E02497C9F441E083
:1016300050E00E945D092091C1023091C202D09217
:10164000C202C092C1028091CB029091CC02309331
:10165000CC022093CB029093C4028093C30218C0A3
:1016600040E050E00E945D092091C3023091C40225
:10167000D092C402C092C3028091CB029091CC025E
:101680003093CC022093CB029093C2028093C1028C
:101690009093CA028093C90264E670E08091B90217
:1016A0009091BA020E94E10562E370E08091BB0272
:1016B0009091BC020E94E1056091B7027091B8025E
:1016C00020E040E050E08091B3029091B4020E948B
:1016D0005D0964E670E08091BB029091BC020E94BB
:1016E000E105C0E0D0E041E0B701C230D10579F0BA
:1016F000C330D10589F0219729F08091B1029091F2
:10170000B2020EC08091B5029091B60209C08091DC
:10171000B3029091B40204C08091B7029091B802D4
:10172000DF91CF911F910F91FF90EF90DF90CF90BD
:101730000C941209CF93DF93CDB7DEB76C970FB639
:10174000F894DEBF0FBECDBF789484B5826084BDAF
:1017500084B5816084BD85B5826085BD85B58160B5
:1017600085BD80916E00816080936E001092810033
:1017700080918100826080938100809181008160EE
:1017800080938100809180008160809380008091AF
:10179000B10084608093B1008091B000816080933B
:1017A000B00080917A00846080937A0080917A0002
:1017B000826080937A0080917A00816080937A00C1
:1017C00080917A00806880937A001092C100E09145
:1017D0001802F091190282E08083E0911402F091E6
:1017E00015021082E0911602F09117028FEC8083AF
:1017F00010922002E0911C02F0911D0286E080838D
:10180000E0911A02F0911B02808180618083E09157
:101810001A02F0911B02808188608083E0911A0295
:10182000F0911B02808180688083E0911A02F09120
:101830001B0280818F7D808310922F0110922501E1
:10184000109224011092E501109207021092E30118
:1018500081E08093E2011092BD0161E082E10E948B
:10186000110261E083E10E9411028091B9008E7F34
:101870008093B9008091B9008D7F8093B90088E48E
:101880008093B80085E48093BC004FEF60E08FE266
:1018900091E00E94E1024FEF61E08FE291E00E944F
:1018A000E1028CE08093B80060912F0183E193E026
:1018B0000E947C0160912F0180E393E00E947C01F3
:1018C00060912F0186EF92E00E947C0160912F01D0
:1018D00089ED92E00E947C012091390330913A0316
:1018E000032E000C440B550B812C87E8982E83E9BE
:1018F000A82E83E0B82EC501B4010E945D0E9AE0C7
:10190000C92ED12CE12CF12CCA01B901A7019601F5
:101910000E945D0E209335033093360340933703C6
:101920005093380320911C0330911D03032E000CAB
:10193000440B550BC501B4010E945D0ECA01B901EB
:10194000A70196010E945D0E20931803309319039E
:1019500040931A0350931B032091FF023091000320
:10196000032E000C440B550BC501B4010E945D0E03
:10197000CA01B901A70196010E945D0E2093FB02E6
:101980003093FC024093FD025093FE022091E2024C
:101990003091E302032E000C440B550BC501B4013A
:1019A0000E945D0ECA01B901A70196010E945D0E59
:1019B0002093DE023093DF024093E0025093E10275
:1019C00063E070E086ED92E00E94640665E070E0FE
:1019D00083ED92E00E94640666E070E080ED92E0A4
:1019E0000E94640669E070E08DEC92E00E9464065B
:1019F0001A8A198A81E090E09C8B8B8B82E090E0C0
:101A00009E8B8D8B83E090E0988F8F8B84E090E0AD
:101A10009A8F898F85E090E09C8F8B8F80E393E095
:101A20009A83898383E193E09C838B8386EF92E0A2
:101A30009E838D8389ED92E098878F8386ED92E077
:101A40009A87898783ED92E09C878B8780ED92E06F
:101A50009E878D878DEC92E0988B8F878CE1FE01BD
:101A60003196A1EBB2E001900D928A95E1F78CE0FE
:101A700090E00E943F0A60ED77E080E090E00E94F5
:101A80005D0283E090E00E943F0A60ED77E080E035
:101A900090E00E945D020E945301E9CFE8E0F2E08D
:101AA0001382128288EE93E0A0E0B0E084839583F5
:101AB000A683B78328E031E03183208325EC30E032
:101AC0003587248724EC30E03787268720EC30E008
:101AD000318B208B21EC30E0338B228B22EC30E0F9
:101AE000358B248B26EC30E0378B268B118E128EB3
:101AF000138E148EE5EAF2E01382128284839583BA
:101B0000A683B78388E191E091838083E0E3F3E0EB
:101B1000118212821686158614821382118E128EFD
:101B2000138E148E28EC30E03287218782E090E01B
:101B3000908B878783E090E0928B818B148A138A45
:101B400081E090E0968B858B108E178A84E090E080
:101B500094878387E3E1F3E011821282168615866B
:101B600014821382118E128E138E148E3287218767
:101B700046E050E0508B478747E050E0528B418B66
:101B8000948B838B45E050E0568B458B108E178AE3
:101B900094878387E6EFF2E011821282168615861B
:101BA00014821382118E128E138E148E3287218727
:101BB00048E050E0508B478749E050E0528B418B22
:101BC0004AE050E0548B438B4BE050E0568B458B02
:101BD000108E178A94878387E9EDF2E011821282D2
:101BE0001686158614821382118E128E138E148E11
:101BF000328721872CE030E0308B27872DE030E0E2
:101C0000328B218B2EE030E0348B238B2FE030E0C1
:101C1000368B258B108E178A9487838786ED92E00A
:101C20000E94DC0683ED92E00E94DC0680ED92E0EB
:101C30000E94DC068DEC92E00C94DC06991B79E0A6
:101C400004C0991F961708F0961B881F7A95C9F74C
:101C50008095089597FB072E16F4009407D077FD22
:101C600009D00E94440E07FC05D03EF49095819562
:101C70009F4F0895709561957F4F0895EE0FFF1F58
:101C80000590F491E02D0994AA1BBB1B51E107C0FC
:101C9000AA1FBB1FA617B70710F0A61BB70B881FFC
:101CA000991F5A95A9F780959095BC01CD0108958B
:101CB00081E090E0F8940C94C00E052E97FB1EF482
:101CC00000940E94740E57FD07D00E948F0E07FCEF
:101CD00003D04EF40C94740E509540953095219598
:101CE0003F4F4F4F5F4F0895909580957095619548
:101CF0007F4F8F4F9F4F08950E94B10EA59F900D6B
:101D0000B49F900DA49F800D911D11240895B7FFDD
:101D10000C947C0E0E947C0E821B930B0895A1E212
:101D20001A2EAA1BBB1BFD010DC0AA1FBB1FEE1F55
:101D3000FF1FA217B307E407F50720F0A21BB30BA0
:101D4000E40BF50B661F771F881F991F1A9469F71C
:101D500060957095809590959B01AC01BD01CF0178
:101D60000895A29FB001B39FC001A39F700D811D74
:101D70001124911DB29F700D811D1124911D089594
:041D8000F894FFCF05
:101D84000100000000000000EA00E708B300910031
:101D9400A5003101000000004C051C0514050005D8
:041DA400F104F00452
:107E0000112484B714BE81FFF0D085E080938100F7
:107E100082E08093C00088E18093C10086E0809377
:107E2000C20080E18093C4008EE0C9D0259A86E02C
:107E300020E33CEF91E0309385002093840096BBD3
:107E4000B09BFECF1D9AA8958150A9F7CC24DD24C4
:107E500088248394B5E0AB2EA1E19A2EF3E0BF2EE7
:107E6000A2D0813461F49FD0082FAFD0023811F036
:107E7000013811F484E001C083E08DD089C08234E0
:107E800011F484E103C0853419F485E0A6D080C0E4
:107E9000853579F488D0E82EFF2485D0082F10E0AE
:107EA000102F00270E291F29000F111F8ED06801E7
:107EB0006FC0863521F484E090D080E0DECF843638
:107EC00009F040C070D06FD0082F6DD080E0C81688
:107ED00080E7D80618F4F601B7BEE895C0E0D1E017
:107EE00062D089930C17E1F7F0E0CF16F0E7DF06D8
:107EF00018F0F601B7BEE89568D007B600FCFDCFD4
:107F0000A601A0E0B1E02C9130E011968C91119780
:107F100090E0982F8827822B932B1296FA010C0160
:107F200087BEE89511244E5F5F4FF1E0A038BF0790
:107F300051F7F601A7BEE89507B600FCFDCF97BE46
:107F4000E89526C08437B1F42ED02DD0F82E2BD052
:107F50003CD0F601EF2C8F010F5F1F4F84911BD097
:107F6000EA94F801C1F70894C11CD11CFA94CF0C13
:107F7000D11C0EC0853739F428D08EE10CD085E9AC
:107F80000AD08FE07ACF813511F488E018D01DD067
:107F900080E101D065CF982F8091C00085FFFCCF94
:107FA0009093C60008958091C00087FFFCCF809118
:107FB000C00084FD01C0A8958091C6000895E0E648
:107FC000F0E098E1908380830895EDDF803219F02E
:107FD00088E0F5DFFFCF84E1DECF1F93182FE3DFCA
:107FE0001150E9F7F2DF1F91089580E0E8DFEE27F6
:047FF000FF270994CA
:027FFE00040479
:0400000300007E007B
:00000001FF