:100000000C945E000C9486000C9486000C94860080
:100010000C9486000C9486000C9486000C94860048
:100020000C9486000C9486000C9486000C949A0420
:100030000C9486000C9486000C9486000C94860028
:100040000C9412040C9486000C94BB030C9495033E
:100050000C9486000C9486000C9486000C94860008
:100060000C945B050C94860000000000240027001F
:100070002A0000000000250028002B0004040404CE
:100080000404040402020202020203030303030342
:10009000010204081020408001020408102001021F
:1000A00004081020000000080002010000030407FB
:1000B0000000000000000000630A5D0A11241FBE5A
:1000C000CFEFD8E0DEBFCDBF11E0A0E0B1E0EEEFB2
:1000D000FBE102C005900D92AC32B107D9F723E0E5
:1000E000ACE2B1E001C01D92A036B207E1F710E02A
:1000F000CDE5D0E004C02197FE010E944E0BCC3527
:10010000D107C9F70E9469080C94F20D0C94000005
:10011000FC01918D828D981761F0828DDF01A80F0F
:10012000B11D5D968C91928D9F5F9F73928F90E031
:1001300008958FEF9FEF0895FC01918D828D9817A0
:1001400031F0828DE80FF11D858D90E008958FEFDD
:100150009FEF0895FC01918D228D892F90E0805CA6
:100160009F4F821B91098F739927089581E192E037
:100170000E94AA0021E0892B09F420E0822F089533
:10018000FC01848DDF01A80FB11DA35ABF4F2C9134
:10019000848D90E001968F739927848FA689B78903
:1001A0002C93A089B1898C9180648C93938D848DDC
:1001B000981306C00288F389E02D80818F7D8083AB
:1001C0000895EF92FF920F931F93CF93DF93EC016B
:1001D00081E0888F9B8D8C8D981305C0E889F98903
:1001E000808185FD24C0F62E0B8D10E00F5F1F4F20
:1001F0000F731127E02E8C8DE8120CC00FB607FC90
:10020000FACFE889F989808185FFF5CFCE010E9478
:10021000C000F1CF8B8DFE01E80FF11DE35AFF4FB7
:10022000F0820B8FEA89FB898081806207C0EE89AA
:10023000FF896083E889F98980818064808381E017
:1002400090E0DF91CF911F910F91FF90EF90089573
:10025000CF93DF93EC01888D8823C9F0EA89FB896D
:10026000808185FD05C0A889B9898C9186FD0FC064
:100270000FB607FCF5CF808185FFF2CFA889B98939
:100280008C9185FFEDCFCE010E94C000E7CFDF91BA
:10029000CF91089590E0FC01EC55FF4F3491FC01A3
:1002A000E057FF4F2491FC01E458FF4FE491EE2307
:1002B00009F43BC0332339F1333091F038F4313055
:1002C000A9F0323001F584B58F7D12C0373091F03E
:1002D0003830A1F03430B9F4809180008F7D03C0B4
:1002E000809180008F77809380000DC084B58F77D8
:1002F00084BD09C08091B0008F7703C08091B000A9
:100300008F7D8093B000F0E0EE0FFF1FEE58FF4F9F
:10031000A591B4918FB7F894EC91611103C0209529
:100320002E2301C02E2B2C938FBF0895CF93DF93E4
:10033000DC018C918C3008F06DC09B013327F901F2
:10034000E057FF4F8491F901E458FF4F2491222395
:1003500099F030E0220F331FF901E859FF4FC591A2
:10036000D491F901EE58FF4F259134919FB7F8943D
:10037000E881E82BE8839FBF8C91E82FF0E09F0194
:10038000220F331FE20FF31FE558FE4F6F7390816A
:10039000907C692B608311961C92119712961C9287
:1003A00012976CE00E94420B9CE0899FB0011124DF
:1003B00040E050E09A01260F371FF901EE0FFF1FB2
:1003C0002E0F3F1FF901E558FE4F908196FD16C094
:1003D0004F5F5F4F4C30510569F781110FC010928C
:1003E000800082E08093810010928500109284004A
:1003F000B19A80916F00826080936F00EC91F0E081
:10040000CF01880F991FE80FF91FE558FE4F808133
:10041000806480838C91DF91CF91089585ED8093E6
:10042000BC008091BC0084FDFCCF1092EC010895CB
:1004300040914F01262F30E0240F311D213231052C
:10044000DCF42091EC012430C9F4FC0180E090E060
:10045000861758F430914F012191DC01A35DBE4F06
:10046000A30FB11D2C930196F3CF80914F01680F1C
:1004700060934F0180E0089581E0089582E008953F
:100480000895E091A5018091A401E81730F4F0E00F
:10049000EA55FE4F808190E008958FEF9FEF089519
:1004A0009091A5018091A401981750F4E92FF0E0F4
:1004B000EA55FE4F208130E09F5F9093A50102C076
:1004C0002FEF3FEFC90108958091A40190E02091A2
:1004D000A501821B91090895CF92DF92EF92FF92BE
:1004E0000F931F93CF93DF937C01262F972F8A01C1
:1004F0008091ED01882391F0C62FD72F6E01C40E95
:10050000D51ECC15DD0571F06991D701ED91FC91F7
:100510000190F081E02DC7010995F3CF642F822F60
:100520000E941802C801DF91CF911F910F91FF9097
:10053000EF90DF90CF900895CF93DF931F92CDB7C8
:10054000DEB769832091ED012223D1F020911002C2
:10055000203240F021E030E0FC013383228380E050
:1005600090E015C08091EE01E82FF0E0E151FE4FE0
:10057000998190838F5F8093EE018093100205C074
:1005800061E0CE0101960E94180281E090E00F9098
:10059000DF91CF9108950E944B0DCF93DF93EC0133
:1005A000688381E089838B859C858530910591F4F2
:1005B0006F85CE010E944A076989CE010E944A07D1
:1005C0006B89CE010E944A076D89CE010E944A07BD
:1005D0006F8918C08430910571F46F85CE010E9437
:1005E0004A076989CE010E944A076B89CE010E94A1
:1005F0004A076D8907C0029751F46F85CE010E94AA
:100600004A076989CE01DF91CF910C944A07DF91A7
:10061000CF9108950F931F93CF93DF93CDB7DEB79C
:1006200028970FB6F894DEBF0FBECDBF1A8219828D
:100630001C821B821E821D8240E050E06AE271E053
:10064000CE0101960E943E080E94D10797FD1EC070
:100650008A309105D9F08F8318860D811E810F5F36
:100660001F4FB801CE0101960E941708882361F33D
:1006700029813A818D819E81BE01695F7F4F820F02
:10068000931F0E94590D1E830D83DECF8091BA0205
:100690009091BB020097C9F069817A81611571055B
:1006A00091F04091BC025091BD022D813E814217D4
:1006B000530748F00E94590D8D819E819093BF028F
:1006C0008093BE0218C00E94E90B89819A819093A1
:1006D000BB028093BA028B819C819093BD02809370
:1006E000BC028D819E819093BF028093BE021A82CC
:1006F00019821C821B821E821D8289819A810E941E
:10070000E90B81E080932C0128960FB6F894DEBFA8
:100710000FBECDBFDF91CF911F910F9108950E9421
:10072000B60081110C940A0308951F920F920FB620
:100730000F9211242F933F934F935F936F937F9367
:100740008F939F93AF93BF93EF93FF9381E192E0D9
:100750000E94C000FF91EF91BF91AF919F918F9147
:100760007F916F915F914F913F912F910F900FBEAD
:100770000F901F9018951F920F920FB60F92112491
:100780002F938F939F93EF93FF93E0912102F0912A
:1007900022028081E0912702F091280282FD12C09E
:1007A000908180912A028F5F8F7320912B02821794
:1007B00051F0E0912A02F0E0EF5EFD4F958F8093BB
:1007C0002A0201C08081FF91EF919F918F912F911B
:1007D0000F900FBE0F901F9018953FB7F89480911F
:1007E000770190917801A0917901B0917A0126B5B5
:1007F000A89B05C02F3F19F00196A11DB11D3FBF59
:10080000BA2FA92F982F8827820F911DA11DB11DE6
:10081000BC01CD0142E0660F771F881F991F4A95E2
:10082000D1F708951F920F920FB60F9211242F93B4
:100830003F938F939F93AF93BF938091A00190912B
:10084000A101A091A201B091A3013091760123E012
:10085000230F2D3720F40196A11DB11D05C026E8F8
:10086000230F0296A11DB11D209376018093A00154
:100870009093A101A093A201B093A301809177016D
:1008800090917801A0917901B0917A010196A11D12
:10089000B11D8093770190937801A0937901B09373
:1008A0007A01BF91AF919F918F913F912F910F90BE
:1008B0000FBE0F901F901895CF93DF931F92CDB767
:1008C000DEB7FC018081806291E09093ED0180931E
:1008D0000F021092EE01109210028EEA92E049830C
:1008E0000E949C024981642F8EEA92E00E949C0241
:1008F00081E00F90DF91CF910C94ED06FC01909177
:1009000075019C30A0F481E0890F8093750190837C
:10091000892F90E0FC01EE0FFF1F8E0F9F1FFC013F
:10092000E558FE4F88EB9BE09283818308958FEF1B
:10093000808308951F920F920FB60F9211242F9368
:100940003F934F935F936F937F938F939F93AF9357
:10095000BF93EF93FF938091740187FF05C01092BE
:100960008500109284001BC020917401022E000C9F
:10097000330B8091750190E02817390784F480913A
:100980007401082E000C990BFC01EE0FFF1F8E0F57
:100990009F1FFC01E558FE4F808186FD15C08091A8
:1009A00074018F5F8093740120917401022E000CFA
:1009B000330B8091750190E028173907C4F48091BA
:1009C00074018C3064F113C080917401082E000C06
:1009D000990BFC01EE0FFF1F8E0F9F1FFC01E558C6
:1009E000FE4F808160E08F730E944A01D8CF8091D2
:1009F000840090918500049680349C4918F480E42A
:100A00009CE905C0809184009091850004969093A4
:100A10008900809388008FEF809374013BC0209100
:100A200084003091850080917401082E000C990B90
:100A3000FC01EE0FFF1F8E0F9F1FFC01E558FE4FBC
:100A400081819281820F931F909389008093880007
:100A500080917401082E000C990BFC01EE0FFF1F12
:100A60008E0F9F1FFC01E558FE4F808186FF12C04C
:100A700080917401082E000C990BFC01EE0FFF1FF2
:100A80008E0F9F1FFC01E558FE4F808161E08F7340
:100A90000E944A01FF91EF91BF91AF919F918F9179
:100AA0007F916F915F914F913F912F910F900FBE6A
:100AB0000F901F9018951F920F920FB60F9211244E
:100AC0002F933F934F935F936F937F938F939F9356
:100AD000AF93BF93EF93FF938091B900887F8036E7
:100AE00009F49CC068F5883209F45BC090F4803149
:100AF00009F454C038F4882309F4F6C0883009F4A6
:100B00004DC0F6C0883109F44CC0803209F45DC094
:100B1000EFC0803409F468C048F4803309F455C04C
:100B2000883309F0E5C08093EA01D8C0803509F424
:100B30004FC0883509F45DC0883409F0D9C0D6C0EB
:100B4000883909F4C7C0A8F4883709F467C038F4B5
:100B5000883609F463C0803709F460C0C9C088389A
:100B600009F4B8C0803909F45FC0803809F0C0C00A
:100B70005BC0803B09F486C038F4803A09F466C053
:100B8000883A09F47FC0B4C0803C09F4A7C0883C0F
:100B900009F4A4C0883B09F48AC0AAC08091C701A7
:100BA00010C09091E9018091E801981770F5E091EB
:100BB000E90181E08E0F8093E901F0E0E853FE4FF8
:100BC00080818093BB0085EC86C08093EA018EC053
:100BD000E091E90181E08E0F8093E9018091BB00F3
:100BE000F0E0E853FE4F80839091E9018091E801A5
:100BF0006EC0E091E90181E08E0F8093E901809160
:100C0000BB00F0E0E853FE4F80838091EB0181113F
:100C10006DC081E08093C60184EA61C083E0809367
:100C2000EC0110927301CFCF80917301803208F0F4
:100C300051C0E091730181E08E0F80937301809128
:100C4000BB00F0E0ED5AFE4F8083BDCF85EC809372
:100C5000BC001092EC0180917301803230F4E0917D
:100C60007301F0E0ED5AFE4F10826091730170E065
:100C7000E0915101F091520183E591E009951092C4
:100C8000730136C084E08093EC0110925001109201
:100C90004F01E0914D01F0914E01099580914F0176
:100CA000811105C081E080934F0110922D01E091E8
:100CB000500181E08E0F80935001F0E0E35DFE4F24
:100CC00080818093BB009091500180914F019817D3
:100CD00008F479CF85E88093BC000AC085EC809346
:100CE000BC001092EC0104C01092EA010E940E02B6
:100CF000FF91EF91BF91AF919F918F917F916F91F4
:100D00005F914F913F912F910F900FBE0F901F90C9
:100D100018950895CF92DF92EF92FF920F931F9351
:100D2000CF93DF936C017A018B01C0E0D0E0CE1548
:100D3000DF0589F0D8016D918D01D601ED91FC910F
:100D40000190F081E02DC6010995892B11F47E01F7
:100D500002C02196ECCFC701DF91CF911F910F9177
:100D6000FF90EF90DF90CF9008958F929F92AF9277
:100D7000BF92CF92DF92EF92FF920E94ED034B0160
:100D80005C0188EEC82E83E0D82EE12CF12C0E9465
:100D9000ED03DC01CB0188199909AA09BB09883E3A
:100DA0009340A105B10558F021E0C21AD108E1082D
:100DB000F10888EE880E83E0981EA11CB11CC114B6
:100DC000D104E104F10419F7FF90EF90DF90CF9088
:100DD000BF90AF909F908F900895382F2091100270
:100DE00090910F02213208F049C08091EC018111ED
:100DF000FCCF42E04093EC013093EB013FEF3093A6
:100E0000EA011092E9012093E801AFEEB1E048EC6D
:100E100051E0FA013E2F341B321718F43D91319303
:100E2000F9CF1092C7012091C701990F922B90938F
:100E3000C7019091C601913061F41092C601909162
:100E4000C7019093BB009091BC0093FDF8CF95EC47
:100E500001C095EE9093BC009091EC019230E1F3CB
:100E60009091EA019F3F79F08091EA01803241F050
:100E70008091EA01803331F084E005C081E003C055
:100E800082E001C083E01092EE01109210021092F5
:100E9000ED0108950F931F93CF93DF93EC018981A8
:100EA000882309F479C001E0683008F400E0162FC7
:100EB00017708881806291E09093ED0180930F021A
:100EC0001092EE0110921002602F8EEA92E00E94C2
:100ED0009C0281E00E94ED0688819091EC019111C5
:100EE000FCCF91E09093EC019093EB012FEF2093D6
:100EF000EA011092E9011092E8019093C7019091E4
:100F0000C7018062880F892B8093C7018091C60139
:100F1000813061F41092C6018091C7018093BB00BB
:100F20008091BC0083FDF8CF85EC01C085EE8093F5
:100F3000BC008091EC018130E1F38091E9018111E5
:100F400003C08091E90101C081E0A8ECB1E026EA8C
:100F500031E0F9019E2F921B981718F49D919193FF
:100F6000F9CF1092A5018093A4018EEA92E00E942D
:100F7000500241E050E060E070E004C0440F551FB3
:100F8000661F771F1A95D2F740954823602FCE0130
:100F90000E945C0481E08A83DF91CF911F910F91C1
:100FA00008952FB7F8948091A0019091A101A0918C
:100FB000A201B091A3012FBF8093190290931A024E
:100FC000A0931B02B0931C02E0911102F091120257
:100FD0000680F781E02D81E192E0099597FF26C018
:100FE0002FB7F8948091A0019091A101A091A20146
:100FF000B091A3012FBF4091190250911A02609144
:101000001B0270911C02841B950BA60BB70B409121
:101010001502509116026091170270911802841700
:101020009507A607B70780F28FEF9FEF08950F93FC
:101030001F93CF93DF93EC0188819981009729F06A
:101040002A813B812617370788F48B016F5F7F4F1A
:101050000E94810C009761F0998388831B830A8327
:101060002C813D81232B11F4FC01108281E001C011
:1010700080E0DF91CF911F910F910895EF92FF9241
:101080000F931F93CF93DF93EC017B018A01BA0189
:101090000E9417082881398181110DC02115310561
:1010A00019F0C9010E94E90B198218821D821C8265
:1010B0001B821A8206C01D830C83B701C9010E94DE
:1010C000590DCE01DF91CF911F910F91FF90EF90BD
:1010D0000895CF93DF93CDB7DEB76C970FB6F89432
:1010E000DEBF0FBECDBF789484B5826084BD84B569
:1010F000816084BD85B5826085BD85B5816085BD13
:1011000080916E00816080936E00109281008091CA
:101110008100826080938100809181008160809352
:101120008100809180008160809380008091B10077
:1011300084608093B1008091B00081608093B000A2
:1011400080917A00846080937A0080917A00826036
:1011500080937A0080917A00816080937A008091F8
:101160007A00806880937A001092C100E091210299
:10117000F091220282E08083E0911D02F0911E0234
:101180001082E0911F02F09120028FEC8083109278
:101190002902E0912502F091260286E08083E09109
:1011A0002302F0912402808180618083E0912302F8
:1011B000F0912402808188608083E0912302F09185
:1011C0002402808180688083E0912302F0912402D0
:1011D00080818F7D808310929F011092A5011092D3
:1011E000A4011092EE01109210021092EC0181E025
:1011F0008093EB011092C60161E082E10E944A01F6
:1012000061E083E10E944A018091B9008E7F809362
:10121000B9008091B9008D7F8093B90088E48093F4
:10122000B80085E48093BC004FEF60E08FE991E067
:101230000E945C044FEF61E08FE991E00E945C0442
:101240008CE08093B80060919F0182E293E00E945D
:10125000CD0260919F018FE393E00E94CD026091E7
:101260009F0185E093E00E94CD0260919F0188EE8E
:1012700092E00E94CD022091480330914903032E51
:10128000000C440B550B812C67E8962E63E9A62EC3
:1012900063E0B62EC501B4010E94600D7AE0C72E4E
:1012A000D12CE12CF12CCA01B901A70196010E94B1
:1012B000600D2093440330934503409346035093BD
:1012C000470320912B0330912C03032E000C440B79
:1012D000550BC501B4010E94600DCA01B901A701F7
:1012E00096010E94600D20932703309328034093BA
:1012F000290350932A0320910E0330910F03032EEC
:10130000000C440B550BC501B4010E94600DCA01CD
:10131000B901A70196010E94600D20930A03309342
:101320000B0340930C0350930D032091F102309175
:10133000F202032E000C440B550BC501B4010E94B0
:10134000600DCA01B901A70196010E94600D2093AA
:10135000ED023093EE024093EF025093F00263E00F
:1013600070E085EE92E00E94960165E070E082EE0A
:1013700092E00E94960166E070E08FED92E00E949C
:10138000960169E070E08CED92E00E9496010E9467
:10139000B5068091E60208E810E0081B110987FDF8
:1013A0001395000F111F000F111F6801012E000C73
:1013B000EE08FF088091E70228E532E0281B31099A
:1013C00087FD3395220F331F220F331FC901330FBF
:1013D000AA0BBB0B9C01AD012C193D094E095F09FD
:1013E000A7E1B0E00E947F0D24EB30E040E050E048
:1013F0000E94600DC20ED31EE41EF51E8091E50210
:101400008C30B8F4C016D1060CF4680192E0C91A09
:10141000D108CC0CDD1C2FB7F89490E0FC01EE0F46
:10142000FF1F8E0F9F1FFC01E558FE4FD282C18225
:101430002FBF0E94B5061A8A198A81E090E09C8B22
:101440008B8B82E090E09E8B8D8B83E090E0988F79
:101450008F8B84E090E09A8F898F85E090E09C8F5D
:101460008B8F8FE393E09A83898382E293E09C835E
:101470008B8385E093E09E838D8388EE92E098874E
:101480008F8385EE92E09A87898782EE92E09C872F
:101490008B878FED92E09E878D878CED92E0988B05
:1014A0008F878CE1FE013196A0ECB2E001900D92A5
:1014B0008A95E1F70E948F03FDCF8091BA02909147
:1014C000BB020C94E90BE1E1F2E01382128288EE98
:1014D00093E0A0E0B0E084839583A683B7832EE0F9
:1014E00031E03183208325EC30E03587248724ECFC
:1014F00030E03787268720EC30E0318B208B21ECE1
:1015000030E0338B228B22EC30E0358B248B26ECC1
:1015100030E0378B268B118E128E138E148EEEEAEE
:10152000F2E01382128284839583A683B7838EE1CF
:1015300091E091838083EFE3F3E0118212821686BB
:10154000158614821382118E128E138E148E28EC3F
:1015500030E03287218782E090E0908B878783E0BC
:1015600090E0928B818B148A138A81E090E0968BB5
:10157000858B108E178A84E090E094878387E2E25F
:10158000F3E0118212821686158614821382118E60
:10159000128E138E148E3287218746E050E0508BD6
:1015A000478747E050E0528B418B948B838B45E01B
:1015B00050E0568B458B108E178A94878387E5E021
:1015C000F3E0118212821686158614821382118E20
:1015D000128E138E148E3287218748E050E0508B94
:1015E000478749E050E0528B418B4AE050E0548BF2
:1015F000438B4BE050E0568B458B108E178A9487B7
:101600008387E8EEF2E01182128216861586148234
:101610001382118E128E138E148E328721872CE046
:1016200030E0308B27872DE030E0328B218B2EE0AD
:1016300030E0348B238B2FE030E0368B258B108EFF
:10164000178A9487838785EE92E00E947E0482EE5B
:1016500092E00E947E048FED92E00E947E048CED69
:1016600092E00E947E04EAEBF2E011821082138283
:1016700012821582148240E050E06AE271E0CF01EC
:101680000C943E08991B79E004C0991F961708F046
:10169000961B881F7A95C9F780950895EE0FFF1F56
:1016A0000590F491E02D0994CF93DF93823091055A
:1016B00010F482E090E0E0915E03F0915F0320E09F
:1016C00030E0C0E0D0E0309711F1408151814817FF
:1016D0005907C0F04817590761F482819381209718
:1016E00019F09B838A832BC090935F0380935E03E2
:1016F00026C02115310519F04217530718F49A0135
:10170000BE01DF01EF010280F381E02DDCCF211566
:10171000310509F1281B390B2430310590F412965C
:101720008D919C9113976115710521F0FB019383B5
:10173000828304C090935F0380935E03FD01329621
:1017400044C0FD01E20FF31F8193919322503109B0
:101750002D933C933AC020915C0330915D03232B81
:1017600041F4209102013091030130935D032093F5
:101770005C0320910001309101012115310541F4F4
:101780002DB73EB74091040150910501241B350B44
:10179000E0915C03F0915D03E217F307A0F42E1BC8
:1017A0003F0B2817390778F0AC014E5F5F4F2417C5
:1017B000350748F04E0F5F1F50935D0340935C0365
:1017C0008193919302C0E0E0F0E0CF01DF91CF91EF
:1017D00008950F931F93CF93DF93009709F48CC064
:1017E000FC0132971382128200915E0310915F0315
:1017F0000115110581F420813181820F931F209101
:101800005C0330915D032817390779F5F0935D0388
:10181000E0935C0371C0D80140E050E0AE17BF0711
:1018200050F412962D913C911397AD01211531057D
:1018300009F1D901F3CF9D01DA013383228360815D
:101840007181860F971F8217930769F4EC01288135
:101850003981260F371F2E5F3F4F318320838A81C6
:101860009B8193838283452B29F4F0935F03E0935C
:101870005E0342C01396FC93EE931297ED014991DB
:1018800059919E01240F351FE217F30771F48081EF
:101890009181840F951F029611969C938E9382815D
:1018A000938113969C938E931297E0E0F0E0D80119
:1018B00012968D919C911397009719F0F8018C0165
:1018C000F6CF8D919C9198012E5F3F4F820F931F11
:1018D00020915C0330915D032817390769F4309734
:1018E00029F410925F0310925E0302C013821282E9
:1018F00010935D0300935C03DF91CF911F910F91D3
:101900000895A0E0B0E0E7E8FCE00C948E0DEC0157
:10191000009721F4CB010E94540BB8C0FC01E60FE4
:10192000F71F9C0122503109E217F30708F4ACC0FD
:10193000D9010D911C91119706171707B0F00530CA
:10194000110508F49FC0C80104978617970708F48B
:1019500099C002501109061B170B019311936D9347
:101960007C93CF010E94E90B8DC05B01A01AB10AE4
:101970004C01800E911EA0915E03B0915F0340E088
:1019800050E0E12CF12C109709F44AC0A815B905D4
:10199000D1F56D907C901197630182E0C80ED11C47
:1019A000CA14DB0480F1A3014A195B096A0182E0D1
:1019B000C80ED11C1296BC9012971396AC91B5E04C
:1019C000CB16D10440F0B282A38351834083D90166
:1019D0006D937C930AC00E5F1F4FC301800F911F50
:1019E000F90191838083EB2DFA2FE114F10431F09A
:1019F000D7011396FC93EE93129744C0F0935F03C4
:101A0000E0935E033FC08D919C9111974817590751
:101A100008F4AC017D0112960D90BC91A02DB3CFBE
:101A200080915C0390915D0388159905E1F4461758
:101A30005707C8F48091000190910101009741F48B
:101A40008DB79EB74091040150910501841B950B01
:101A5000E817F907C8F4F0935D03E0935C03F9011C
:101A6000718360830FC0CB010E94540B7C010097EF
:101A700059F0A801BE010E94500DCE010E94E90B51
:101A8000C70104C0CE0102C080E090E0CDB7DEB750
:101A9000EEE00C94AA0D81E090E0F8940C94F20D25
:101AA000FB01DC0102C001900D9241505040D8F77B
:101AB0000895FB01DC0101900D920020E1F70895EB
:101AC000052E97FB1EF400940E94770D57FD07D05A
:101AD0000E94C10D07FC03D04EF40C94770D509575
:101AE0004095309521953F4F4F4F5F4F089590950A
:101AF0008095709561957F4F8F4F9F4F08950E94FD
:101B0000E30DA59F900DB49F900DA49F800D911D96
:101B1000112408952F923F924F925F926F927F927D
:101B20008F929F92AF92BF92CF92DF92EF92FF92ED
:101B30000F931F93CF93DF93CDB7DEB7CA1BDB0B99
:101B40000FB6F894DEBF0FBECDBF09942A8839883E
:101B500048885F846E847D848C849B84AA84B98445
:101B6000C884DF80EE80FD800C811B81AA81B98151
:101B7000CE0FD11D0FB6F894DEBF0FBECDBFED0165
:101B80000895A1E21A2EAA1BBB1BFD010DC0AA1FBE
:101B9000BB1FEE1FFF1FA217B307E407F50720F0D6
:101BA000A21BB30BE40BF50B661F771F881F991F51
:101BB0001A9469F760957095809590959B01AC019A
:101BC000BD01CF010895A29FB001B39FC001A39FA3
:101BD000700D811D1124911DB29F700D811D112466
:101BE000911D089510E0CDE5D0E004C0FE010E94F3
:0E1BF0004E0B2196CE35D107C9F7F894FFCFE2
:101BFE000000600380000100000000000000E10012
:101C0E008A06AA0088009C002801000000009C02A1
:0C1C1E006C02640250024102400200000F
:107E0000112484B714BE81FFF0D085E080938100F7
:107E100082E08093C00088E18093C10086E0809377
:107E2000C20080E18093C4008EE0C9D0259A86E02C
:107E300020E33CEF91E0309385002093840096BBD3
:107E4000B09BFECF1D9AA8958150A9F7CC24DD24C4
:107E500088248394B5E0AB2EA1E19A2EF3E0BF2EE7
:107E6000A2D0813461F49FD0082FAFD0023811F036
:107E7000013811F484E001C083E08DD089C08234E0
:107E800011F484E103C0853419F485E0A6D080C0E4
:107E9000853579F488D0E82EFF2485D0082F10E0AE
:107EA000102F00270E291F29000F111F8ED06801E7
:107EB0006FC0863521F484E090D080E0DECF843638
:107EC00009F040C070D06FD0082F6DD080E0C81688
:107ED00080E7D80618F4F601B7BEE895C0E0D1E017
:107EE00062D089930C17E1F7F0E0CF16F0E7DF06D8
:107EF00018F0F601B7BEE89568D007B600FCFDCFD4
:107F0000A601A0E0B1E02C9130E011968C91119780
:107F100090E0982F8827822B932B1296FA010C0160
:107F200087BEE89511244E5F5F4FF1E0A038BF0790
:107F300051F7F601A7BEE89507B600FCFDCF97BE46
:107F4000E89526C08437B1F42ED02DD0F82E2BD052
:107F50003CD0F601EF2C8F010F5F1F4F84911BD097
:107F6000EA94F801C1F70894C11CD11CFA94CF0C13
:107F7000D11C0EC0853739F428D08EE10CD085E9AC
:107F80000AD08FE07ACF813511F488E018D01DD067
:107F900080E101D065CF982F8091C00085FFFCCF94
:107FA0009093C60008958091C00087FFFCCF809118
:107FB000C00084FD01C0A8958091C6000895E0E648
:107FC000F0E098E1908380830895EDDF803219F02E
:107FD00088E0F5DFFFCF84E1DECF1F93182FE3DFCA
:107FE0001150E9F7F2DF1F91089580E0E8DFEE27F6
:047FF000FF270994CA
:027FFE00040479
:0400000300007E007B
:00000001FF