:100000000C9468000C9490000C9490000C94900058
:100010000C9490000C9490000C9490000C94900020
:100020000C9490000C9490000C9490000C94230677
:100030000C9490000C9490000C9490000C94900000
:100040000C943D020C9490000C9402090C94DC0872
:100050000C9490000C9490000C9490000C949000E0
:100060000C94E4060C949000FE0305041104220491
:1000700024042B04370448045E04600400000000DC
:10008000240027002A0000000000250028002B0083
:10009000040404040404040402020202020203032E
:1000A0000303030301020408102040800102040836
:1000B00010200102040810200000000800020100C6
:1000C0000003040700000000000000002B10DE0BFE
:1000D00011241FBECFEFD8E0DEBFCDBF11E0A0E0FE
:1000E000B1E0E6E6F8E202C005900D92A833B10750
:1000F000D9F723E0A8E3B1E001C01D92AC36B20706
:10010000E1F710E0C7E6D0E004C02197FE010E94AD
:100110002111C636D107C9F70E94E40B0C942614AE
:100120000C94000085ED8093BC008091BC0084FDA0
:10013000FCCF1092F801089540915A01262F30E02B
:10014000240F311D21323105DCF42091F8012430D7
:10015000C9F4FC0180E090E0861758F430915A0110
:100160002191DC01A85CBE4FA30FB11D2C93019619
:10017000F3CF80915A01680F60935A0180E008958F
:1001800081E0089582E008950895E091CB01809187
:10019000CA01E81730F4F0E0EB55FE4F808190E0A3
:1001A00008958FEF9FEF08959091CB018091CA0140
:1001B000981750F4E92FF0E0EB55FE4F208130E026
:1001C0009F5F9093CB0102C02FEF3FEFC9010895CD
:1001D0008091CA0190E02091CB01821B9109089582
:1001E000CF92DF92EF92FF920F931F93CF93DF9303
:1001F0007C01262F972F8A018091F901882391F0A5
:10020000C62FD72F6E01C40ED51ECC15DD0571F09B
:100210006991D701ED91FC910190F081E02DC7012A
:100220000995F3CF642F822F0E949C00C801DF91B3
:10023000CF911F910F91FF90EF90DF90CF90089595
:10024000CF93DF931F92CDB7DEB769832091F90179
:100250002223D1F020911C02203240F021E030E036
:10026000FC013383228380E090E015C08091FA0185
:10027000E82FF0E0E550FE4F998190838F5F8093E7
:10028000FA0180931C0205C061E0CE0101960E9434
:100290009C0081E090E00F90DF91CF9108950F9343
:1002A0001F93CF93DF93CDB7DEB728970FB6F8949F
:1002B000DEBF0FBECDBF66E371E0CE0101960E94A6
:1002C0006C0B0E94D40A97FD1EC08A309105D9F0AC
:1002D0008F8318860D811E810F5F1F4FB801CE01DD
:1002E00001960E941A0B882361F329813A818D813E
:1002F0009E81BE01695F7F4F820F931F0E94491349
:100300001E830D83DECF8091C6029091C7020097B5
:10031000C9F069817A816115710591F04091C80237
:100320005091C9022D813E814217530748F00E9427
:1003300049138D819E819093CB028093CA0218C08D
:100340000E94D01189819A819093C7028093C6023E
:100350008B819C819093C9028093C8028D819E817C
:100360009093CB028093CA021A8219821C821B824C
:100370001E821D8289819A810E94D01181E0809322
:10038000CC0128960FB6F894DEBF0FBECDBFDF912B
:10039000CF911F910F91089590E0FC01E854FF4F19
:1003A0003491FC01EC55FF4F2491FC01E057FF4FC5
:1003B000E491EE2309F43BC0332339F1333091F05B
:1003C00038F43130A9F0323001F584B58F7D12C098
:1003D000373091F03830A1F03430B9F4809180009A
:1003E0008F7D03C0809180008F77809380000DC047
:1003F00084B58F7784BD09C08091B0008F7703C02A
:100400008091B0008F7D8093B000F0E0EE0FFF1F71
:10041000EA57FF4FA591B4918FB7F894EC91611111
:1004200003C020952E2301C02E2B2C938FBF08953F
:100430003FB7F8948091C6019091C701A091C8017F
:10044000B091C90126B5A89B05C02F3F19F00196B0
:10045000A11DB11D3FBFBA2FA92F982F8827820F4A
:10046000911DA11DB11DBC01CD0142E0660F771F9A
:10047000881F991F4A95D1F708951F920F920FB6C2
:100480000F9211242F933F938F939F93AF93BF931A
:100490008091CE019091CF01A091D001B091D10176
:1004A0003091C50123E0230F2D3720F40196A11DC3
:1004B000B11D05C026E8230F0296A11DB11D209392
:1004C000C5018093CE019093CF01A093D001B0934A
:1004D000D1018091C6019091C701A091C801B0914E
:1004E000C9010196A11DB11D8093C6019093C7015A
:1004F000A093C801B093C901BF91AF919F918F9113
:100500003F912F910F900FBE0F901F901895CF9392
:10051000DF93EC01688381E089838B859C8585303E
:10052000910591F46F85CE010E94A90A6989CE01D7
:100530000E94A90A6B89CE010E94A90A6D89CE0189
:100540000E94A90A6F8918C08430910571F46F85E3
:10055000CE010E94A90A6989CE010E94A90A6B896D
:10056000CE010E94A90A6D8907C0029751F46F85D8
:10057000CE010E94A90A6989CE01DF91CF910C9426
:10058000A90ADF91CF910895CF93DF931F92CDB742
:10059000DEB7FC018081806291E09093F901809345
:1005A0001B021092FA0110921C028AEB92E049831E
:1005B0000E9420014981642F8AEB92E00E94200171
:1005C00081E00F90DF91CF910C94AF09CF93DF932F
:1005D000EC019881906281E08093F90190931B0275
:1005E0001092FA0110921C028AEB92E00E94200104
:1005F00081E00E94AF0988819091F8019111FCCFB0
:1006000091E09093F8019093F7012FEF2093F6017A
:100610001092F5011092F4019093D3019091D301BF
:100620008062880F892B8093D3018091D201813021
:1006300061F41092D2018091D3018093BB0080912C
:10064000BC0083FDF8CF85EC01C085EE8093BC0033
:100650008091F8018130E1F38091F501811103C0AF
:100660008091F50101C081E0A4EDB1E025EA31E01F
:10067000F9019E2F921B981718F49D919193F9CF31
:100680001092CB018093CA018AEB92E00E94D400C1
:10069000DF91CF910895FF920F931F93CF93DF9334
:1006A000EC018981882361F1862F8770F82E6830EC
:1006B00010F095E101C094E1142F062F692FCE01AF
:1006C0000E94E60241E050E060E070E004C0440FA8
:1006D000551F661F771FFA94D2F7112311F0482B8C
:1006E00002C040954823083010F063E101C062E188
:1006F000CE01DF91CF911F910F91FF900C94C40216
:10070000DF91CF911F910F91FF900895CF93DF93C9
:10071000EC018B859C858230910509F5613071056E
:1007200079F02CF4672B09F0E6C040E00AC0623093
:10073000710571F06330710509F0DDC040E009C05A
:1007400041E06F85CE010E944B0341E06989CEC034
:1007500041E06F85CE010E944B0340E0F7CF84302B
:10076000910509F03FC061307105C9F054F4672B61
:1007700009F0C1C041E06F85CE010E944B0340E00B
:1007800014C062307105E1F06330710509F0B3C047
:1007900041E06F85CE010E944B0340E017C040E06E
:1007A0006F85CE010E944B0341E06989CE010E9412
:1007B0004B0341E06B89CE010E944B0340E010C027
:1007C00040E06F85CE010E944B0341E06989CE0174
:1007D0000E944B0340E06B89CE010E944B0341E035
:1007E0006D8984C0059709F086C06A30710508F0EC
:1007F00082C0FB01EC5CFF4F0C94211140E06F853F
:10080000CE010E944B0341E061C040E06F85CE0104
:100810000E944B0341E06989CE010E944B0340E0F6
:100820005AC040E06F85CE010E944B0341E06989C8
:10083000CE010E944B0340E06B89CE010E944B0326
:1008400041E04EC040E001C041E06F85CE010E9412
:100850004B0341E006C041E06F85CE010E944B038F
:1008600040E06989CE010E944B0340E00BC041E0AB
:100870006F85CE010E944B0340E06989CE010E9442
:100880004B0341E06B89CE010E944B0341E010C055
:1008900041E06F85CE010E944B0340E06989CE01A3
:1008A0000E944B0341E06B89CE010E944B0340E064
:1008B0006D89CE010E944B0340E017C041E001C0AA
:1008C00040E06F85CE010E944B0340E06989CE0174
:1008D0000E944B0341E06B89CE010E944B0340E034
:1008E0006D89CE010E944B0341E06F89CE01DF91FB
:1008F000CF910C944B03DF91CF9108954F925F926B
:100900006F927F928F929F92AF92BF92CF92DF921F
:10091000EF92FF920F931F93CF93DF93EC018B0124
:1009200077FF04C000271127061B170B16161706A2
:100930002CF481E090E09C838B8304C0672B11F042
:100940001C821B8284E0E82EF12C9AE0C92ED12C67
:100950000115110509F449C00E941802898C9A8C6E
:10096000AB8CBC8C2B013C01481859086A087B08E9
:100970008D809E80AF80B884481459046A047B043B
:1009800038F3698F7A8F8B8F9C8F2B813C818D857B
:100990009E852130310559F401969E878D872985E2
:1009A0003A858217930771F41E861D860BC0892B2A
:1009B00021F489859A859E878D878D859E850197EF
:1009C0009E878D87015011092B853C858D859E85DD
:1009D0002530310511F4B60101C0B7010E940D1197
:1009E000BC01CE010E948603B3CFDF91CF911F914E
:1009F0000F91FF90EF90DF90CF90BF90AF909F90BE
:100A00008F907F906F905F904F900895CF92DF927C
:100A1000EF92FF92CF93DF93EC01603282E0780790
:100A20000CF03DC077FD06C0653B71052CF064EB12
:100A300070E002C060E070E0898128E830E0690180
:100A4000C81AD10887FDD394CC0CDD1CCC0CDD1C5E
:100A50000D2C000CEE08FF088A8128E532E0281BE7
:100A6000310987FD3395220F331F220F331FC90130
:100A7000330FAA0BBB0B9C01AD012C193D094E098C
:100A80005F09DB010E94B61324EB30E040E050E048
:100A90000E948C13C20ED31EE41EF51EB60188817F
:100AA0008C3080F5998148E850E0491B510997FD49
:100AB0005395440F551F440F551F6417750784F055
:100AC0009A8128E532E0291B310997FD3395220FE1
:100AD000331F220F331FAB01261737070CF4A90170
:100AE00042505109440F551F2FB7F89490E0FC0174
:100AF000EE0FFF1F8E0F9F1FFC01EF57FE4F52831B
:100B000041832FBFDF91CF91FF90EF90DF90CF9087
:100B10000895CB01BA010E9406050C947809CF9381
:100B2000DF93DC018C918C3008F06DC09B01332782
:100B3000F901EC55FF4F8491F901E057FF4F2491E3
:100B4000222399F030E0220F331FF901E458FF4FC0
:100B5000C591D491F901EA57FF4F259134919FB780
:100B6000F894E881E82BE8839FBF8C91E82FF0E0B0
:100B70009F01220F331FE20FF31FEF57FE4F6F73DA
:100B80009081907C692B608311961C92119712962C
:100B90001C9212976CE00E9401119CE0899FB001A9
:100BA000112440E050E09A01260F371FF901EE0FA3
:100BB000FF1F2E0F3F1FF901EF57FE4F908196FD4B
:100BC00016C04F5F5F4F4C30510569F781110FC060
:100BD0001092800082E08093810010928500109234
:100BE0008400B19A80916F00826080936F00EC91D5
:100BF000F0E0CF01880F991FE80FF91FEF57FE4F64
:100C00008081806480838C91DF91CF910895FC0175
:100C1000909180019C30A0F481E0890F8093800145
:100C20009083892F90E0FC01EE0FFF1F8E0F9F1F16
:100C3000FC01EF57FE4F88EB9BE092838183089580
:100C40008FEF808308951F920F920FB60F92112499
:100C50002F933F934F935F936F937F938F939F93C4
:100C6000AF93BF93EF93FF9380917F0187FF05C000
:100C700010928500109284001BC020917F01022EEB
:100C8000000C330B8091800190E02817390784F421
:100C900080917F01082E000C990BFC01EE0FFF1FC5
:100CA0008E0F9F1FFC01EF57FE4F808186FD15C000
:100CB00080917F018F5F80937F0120917F01022EC1
:100CC000000C330B8091800190E028173907C4F4A1
:100CD00080917F018C3064F113C080917F01082ED8
:100CE000000C990BFC01EE0FFF1F8E0F9F1FFC01E4
:100CF000EF57FE4F808160E08F730E94CC01D8CF08
:100D00008091840090918500049680349C4918F469
:100D100080E49CE905C08091840090918500049650
:100D200090938900809388008FEF80937F013BC070
:100D3000209184003091850080917F01082E000C65
:100D4000990BFC01EE0FFF1F8E0F9F1FFC01EF5749
:100D5000FE4F81819281820F931F9093890080932F
:100D6000880080917F01082E000C990BFC01EE0F8A
:100D7000FF1F8E0F9F1FFC01EF57FE4F808186FFE4
:100D800012C080917F01082E000C990BFC01EE0F20
:100D9000FF1F8E0F9F1FFC01EF57FE4F808161E008
:100DA0008F730E94CC01FF91EF91BF91AF919F9102
:100DB0008F917F916F915F914F913F912F910F9004
:100DC0000FBE0F901F9018951F920F920FB60F92A3
:100DD00011242F933F934F935F936F937F938F9340
:100DE0009F93AF93BF93EF93FF938091B900887F58
:100DF000803609F49CC068F5883209F45BC090F431
:100E0000803109F454C038F4882309F4F6C08830DE
:100E100009F44DC0F6C0883109F44CC0803209F4A1
:100E20005DC0EFC0803409F468C048F4803309F431
:100E300055C0883309F0E5C08093F601D8C08035ED
:100E400009F44FC0883509F45DC0883409F0D9C071
:100E5000D6C0883909F4C7C0A8F4883709F467C038
:100E600038F4883609F463C0803709F460C0C9C01B
:100E7000883809F4B8C0803909F45FC0803809F0B7
:100E8000C0C05BC0803B09F486C038F4803A09F4E6
:100E900066C0883A09F47FC0B4C0803C09F4A7C09A
:100EA000883C09F4A4C0883B09F48AC0AAC0809198
:100EB000D30110C09091F5018091F401981770F55D
:100EC000E091F50181E08E0F8093F501F0E0EC52A6
:100ED000FE4F80818093BB0085EC86C08093F60135
:100EE0008EC0E091F50181E08E0F8093F501809135
:100EF000BB00F0E0EC52FE4F80839091F5018091B1
:100F0000F4016EC0E091F50181E08E0F8093F50150
:100F10008091BB00F0E0EC52FE4F80838091F7019E
:100F200081116DC081E08093D20184EA61C083E0C9
:100F30008093F80110927E01CFCF80917E018032A4
:100F400008F051C0E0917E0181E08E0F80937E0118
:100F50008091BB00F0E0E25AFE4F8083BDCF85EC6C
:100F60008093BC001092F80180917E01803230F4B1
:100F7000E0917E01F0E0E25AFE4F108260917E0126
:100F800070E0E0915C01F0915D018EE591E00995E2
:100F900010927E0136C084E08093F80110925B01CC
:100FA00010925A01E0915801F091590109958091F0
:100FB0005A01811105C081E080935A0110923801D5
:100FC000E0915B0181E08E0F80935B01F0E0E85CD3
:100FD000FE4F80818093BB0090915B0180915A010C
:100FE000981708F479CF85E88093BC000AC085EC97
:100FF0008093BC001092F80104C01092F6010E9488
:101000009200FF91EF91BF91AF919F918F917F914E
:101010006F915F914F913F912F910F900FBE0F9065
:101020001F901895FC01918D828D981761F0828D2B
:10103000DF01A80FB11D5D968C91928D9F5F9F730C
:10104000928F90E008958FEF9FEF0895FC01918DAE
:10105000828D981731F0828DE80FF11D858D90E01B
:1010600008958FEF9FEF0895FC01918D228D892FB8
:1010700090E0805C9F4F821B91098F7399270895A0
:101080008DE192E00E94340821E0892B09F420E0F0
:10109000822F0895FC01848DDF01A80FB11DA35A92
:1010A000BF4F2C91848D90E001968F739927848F88
:1010B000A689B7892C93A089B1898C9180648C937F
:1010C000938D848D981306C00288F389E02D80816A
:1010D0008F7D80830895EF92FF920F931F93CF939C
:1010E000DF93EC0181E0888F9B8D8C8D981305C078
:1010F000E889F989808185FD24C0F62E0B8D10E0EA
:101100000F5F1F4F0F731127E02E8C8DE8120CC05C
:101110000FB607FCFACFE889F989808185FFF5CF02
:10112000CE010E944A08F1CF8B8DFE01E80FF11D20
:10113000E35AFF4FF0820B8FEA89FB89808180623E
:1011400007C0EE89FF896083E889F989808180641E
:10115000808381E090E0DF91CF911F910F91FF900C
:10116000EF900895CF93DF93EC01888D8823C9F029
:10117000EA89FB89808185FD05C0A889B9898C91A0
:1011800086FD0FC00FB607FCF5CF808185FFF2CF3B
:10119000A889B9898C9185FFEDCFCE010E944A08BC
:1011A000E7CFDF91CF9108950E94400881110C9400
:1011B0004F0108950E9432131F920F920FB60F92A3
:1011C00011242F933F934F935F936F937F938F934C
:1011D0009F93AF93BF93EF93FF938DE192E00E94B3
:1011E0004A08FF91EF91BF91AF919F918F917F91AD
:1011F0006F915F914F913F912F910F900FBE0F9084
:101200001F9018951F920F920FB60F9211242F93D3
:101210008F939F93EF93FF93E0912D02F0912E0215
:101220008081E0913302F091340282FD12C09081FE
:10123000809136028F5F8F7320913702821751F0B1
:10124000E0913602F0E0E35EFD4F958F8093360229
:1012500001C08081FF91EF919F918F912F910F900D
:101260000FBE0F901F9018950895CF92DF92EF92C6
:10127000FF920F931F93CF93DF936C017A018B0141
:10128000C0E0D0E0CE15DF0589F0D8016D918D0169
:10129000D601ED91FC910190F081E02DC6010995F8
:1012A000892B11F47E0102C02196ECCFC701DF919A
:1012B000CF911F910F91FF90EF90DF90CF90089505
:1012C000CF93DF9344E050E06FE271E08DE192E074
:1012D0000E943509EC0142E050E064E371E08DE1E9
:1012E00092E00E9435098C0F9D1FDF91CF910895E8
:1012F0008F929F92AF92BF92CF92DF92EF92FF9226
:101300000E9418024B015C0182E3C82ED12CE12C13
:10131000F12C0E941802DC01CB0188199909AA0955
:10132000BB09883E9340A105B10558F021E0C21ADF
:10133000D108E108F10888EE880E83E0981EA11C10
:10134000B11CC114D104E104F10419F7FF90EF902E
:10135000DF90CF90BF90AF909F908F900895382FDF
:1013600020911C0290911B02213208F049C080910B
:10137000F8018111FCCF42E04093F8013093F7016E
:101380003FEF3093F6011092F5012093F401ABEF9B
:10139000B1E044ED51E0FA013E2F341B321718F44E
:1013A0003D913193F9CF1092D3012091D301990F40
:1013B000922B9093D3019091D201913061F41092CD
:1013C000D2019091D3019093BB009091BC0093FD0A
:1013D000F8CF95EC01C095EE9093BC009091F80188
:1013E0009230E1F39091F6019F3F79F08091F60100
:1013F000803241F08091F601803331F084E005C005
:1014000081E003C082E001C083E01092FA011092F3
:101410001C021092F9010895CF92DF92EF92FF9291
:101420000F931F93CF93DF931F92CDB7DEB77C014D
:101430006B01623071054CF402E310E0613071051C
:1014400049F0CC24CA94DC2C05C004E610E0CC247E
:10145000C394D12C442381F00B5F1F4F0DC0211585
:10146000310531F4D194C194D1082B5F3F4F40E056
:10147000121613066CF48901B601C70149830E9454
:101480007E049801215031094981442389F3E7CF33
:101490000F90DF91CF911F910F91FF90EF90DF9010
:1014A000CF900C9478098F929F92AF92BF92CF9277
:1014B000DF92EF92FF920F931F93CF93DF931F92D0
:1014C000CDB7DEB77C016B014A01423051054CF4C7
:1014D00002E310E04130510549F088248A94982CA9
:1014E00005C004E610E088248394912C222371F037
:1014F0000B5F1F4F0BC04115510521F44B5F5F4F30
:10150000450120E014161506ACF48A01B401C701A8
:1015100029830E947E04AA24BB24A818B908B50117
:10152000C6010E947E04A80141505109298122234D
:1015300049F3E1CF0F90DF91CF911F910F91FF9071
:10154000EF90DF90CF90BF90AF909F908F900C94D2
:1015500078090F931F93CF93DF93EC018981882340
:10156000F1F001E0683008F400E0162F602FCE01A2
:101570000E94E602912F977041E050E060E070E039
:1015800004C0440F551F661F771F9A95D2F74095E8
:101590004823602FCE010E94C40281E08A83DF913C
:1015A000CF911F910F9108952FB7F8948091CE019C
:1015B0009091CF01A091D001B091D1012FBF809324
:1015C000250290932602A0932702B0932802E0916F
:1015D0001D02F0911E020680F781E02D8DE192E060
:1015E000099597FF26C02FB7F8948091CE0190916E
:1015F000CF01A091D001B091D1012FBF4091250220
:10160000509126026091270270912802841B950B4D
:10161000A60BB70B40912102509122026091230248
:101620007091240284179507A607B70780F28FEF01
:101630009FEF08950F931F93CF93DF93EC01888161
:101640009981009729F02A813B812617370788F472
:101650008B016F5F7F4F0E946812009761F0998342
:1016600088831B830A832C813D81232B11F4FC0189
:10167000108281E001C080E0DF91CF911F910F9136
:101680000895EF92FF920F931F93CF93DF93EC0196
:101690007B018A01BA010E941A0B288139818111CC
:1016A0000DC02115310519F0C9010E94D011198210
:1016B00018821D821C821B821A8206C01D830C8325
:1016C000B701C9010E944913CE01DF91CF911F914B
:1016D0000F91FF90EF900895FC0111821082138208
:1016E0001282158214826115710551F0FB0101907F
:1016F0000020E9F73197AF01461B570B0C94410BC3
:101700000895DF92EF92FF920F931F93CF93DF9391
:101710007C01EB01209729F400E010E0C1E0D0E06B
:1017200002C001E010E066E371E0C7010E946C0BAB
:101730008091CA029091CB0208171907B0F58C1757
:101740009D0708F4EC01E091C602F091C702EC0F8E
:10175000FD1FD08010826091C6027091C702600F99
:10176000711F6115710561F0FB0101900020E9F71F
:101770003197AF01461B570BC7010E94410B0EC0AA
:10178000F70180819181009711F00E94D011F7013B
:101790001182108215821482138212828091C602F5
:1017A0009091C702C80FD91FD882C701DF91CF918E
:1017B0001F910F91FF90EF90DF9008958091C602E6
:1017C0009091C7020C94D011CF93DF93CDB7DEB7C1
:1017D0006E970FB6F894DEBF0FBECDBF789484B578
:1017E000826084BD84B5816084BD85B5826085BD1D
:1017F00085B5816085BD80916E00816080936E00AB
:10180000109281008091810082608093810080919C
:10181000810081608093810080918000816080934D
:1018200080008091B10084608093B1008091B0000D
:1018300081608093B00080917A00846080937A0008
:1018400080917A00826080937A0080917A00816032
:1018500080937A0080917A00806880937A00109259
:10186000C100E0912D02F0912E0282E08083E09190
:101870002902F0912A021082E0912B02F0912C02B1
:101880008FEC808310923502E0913102F0913202A8
:1018900086E08083E0912F02F091300280818061A8
:1018A0008083E0912F02F0913002808188608083F4
:1018B000E0912F02F0913002808180688083E09176
:1018C0002F02F091300280818F7D80831092CD01B4
:1018D0001092CB011092CA011092FA0110921C02D0
:1018E0001092F80181E08093F7011092D20161E03B
:1018F00082E10E94CC0161E083E10E94CC018091F1
:10190000B9008E7F8093B9008091B9008D7F80935C
:10191000B90088E48093B80085E48093BC004FEF61
:1019200060E08DEC91E00E94C4024FEF61E08DEC2D
:1019300091E00E94C4028CE08093B8006091CD01D8
:101940008EE293E00E9487026091CD018BE493E0E8
:101950000E9487026091CD0181E193E00E9487029D
:101960006091CD0184EF92E00E94870220915403A0
:1019700030915503032E000C440B550B812C87E846
:10198000982E83E9A82E83E0B82EC501B4010E94E9
:101990008C139AE0C92ED12CE12CF12CCA01B9018B
:1019A000A70196010E948C1320935003309351039A
:1019B00040935203509353032091370330913803DF
:1019C000032E000C440B550BC501B4010E948C136F
:1019D000CA01B901A70196010E948C132093330319
:1019E00030933403409335035093360320911A0308
:1019F00030911B03032E000C440B550BC501B401A1
:101A00000E948C13CA01B901A70196010E948C1390
:101A10002093160330931703409318035093190330
:101A20002091FD023091FE02032E000C440B550B59
:101A3000C501B4010E948C13CA01B901A701960126
:101A40000E948C132093F9023093FA024093FB0218
:101A50005093FC0263E070E081EF92E00E948F05FA
:101A600065E070E08EEE92E00E948F0566E070E027
:101A70008BEE92E00E948F0569E070E088EE92E0C4
:101A80000E948F058BE493E09A8389838EE293E032
:101A90009C838B8381E193E09E838D8384EF92E02E
:101AA00098878F8381EF92E09A8789878EEE92E004
:101AB0009C878B878BEE92E09E878D8788EE92E0E5
:101AC000988B8F874CE350E06BEE72E0CE0101966D
:101AD0000E9489054CE350E068EE72E0CE01019669
:101AE0000E9489054AE550E061EF72E0CE0101965F
:101AF0000E9489054AE550E06EEE72E0CE01019643
:101B00000E9489051A8A198A81E090E09C8B8B8B50
:101B100082E090E09E8B8D8B83E090E0988F8F8B9E
:101B200084E090E09A8F898F85E090E09C8F8B8F86
:101B30008CE1FE013196ACECB2E001900D928A95F9
:101B4000E1F723E0A22EB12C8091CC01882309F487
:101B50007FC21092CC010091CA021091CB020115F4
:101B6000110509F475C2E090C602F090C7026AE25E
:101B700071E0C7010E944013892B09F4FFCFE114E3
:101B8000F10409F465C2F70180818D3409F06FC159
:101B9000B80161507109CE0101960E94810B098143
:101BA0001A810115110531F0C8010E9450136B0113
:101BB0007C0103C0C12CD12C7601C8010E94D01138
:101BC000C601B5010E940D116B017C01ECEDF2E044
:101BD00000E010E0819191918C159D0539F00F5F27
:101BE0001F4F06301105B1F700E010E0023011057B
:101BF00008F056C0E091D202F091D3028585968517
:101C000031E08233910521F08639910509F030E009
:101C1000E091CE02F091CF028585968521E0823356
:101C2000910549F08639910509F020E0311103C092
:101C3000222309F4FBC06AE570E08091D6029091FE
:101C4000D7022E8F3D8F0E9406053D8D2E8D3323AA
:101C5000A9F08091D2029091D302222359F020E082
:101C600040E050E0BC018091CE029091CF020E94F2
:101C7000530A0DC040E060E070E007C040E060E063
:101C800070E08091CE029091CF020E940C0A67E131
:101C900070E08091D6029091D7020E940605C6C0DE
:101CA000E091CC02F091CD028585968521E08233CA
:101CB000910521F08639910509F020E0E091D002EC
:101CC000F091D102858596858233910519F0863988
:101CD000910511F431E003C02223A1F130E06AE55F
:101CE00070E08091D4029091D5022E8F3D8F0E949A
:101CF00006052E8D3D8D2223A1F08091CC0290917E
:101D0000CD02332351F06091D0027091D10220E0D6
:101D100040E050E00E94530A0DC040E060E070E0F7
:101D200007C040E060E070E08091D0029091D10265
:101D30000E940C0A67E170E08091D4029091D50274
:101D40000E9406050430110508F470C06AE570E0D1
:101D50008091D4029091D5020E9406056091D20232
:101D60007091D3028091CE029091CF0221E0043095
:101D70001105C9F441E050E00E94530A2091DC02B1
:101D80003091DD02D092DD02C092DC028091E60249
:101D90009091E7023093E7022093E6029093DF02EE
:101DA0008093DE0218C040E050E00E94530A209168
:101DB000DE023091DF02D092DF02C092DE0280911B
:101DC000E6029091E7023093E7022093E6029093B7
:101DD000DD028093DC029093E5028093E40267E1E8
:101DE00070E08091D4029091D5020E9406056AE5C8
:101DF00070E08091D6029091D7020E940605609112
:101E0000D2027091D30220E040E050E08091CE02F7
:101E10009091CF020E94530A67E170E08091D60250
:101E20009091D7020E94060500E010E041E0B70162
:101E30000230110581F00330110591F001301105D8
:101E400029F08091CC029091CD020EC08091D002F9
:101E50009091D10209C08091CE029091CF0204C02E
:101E60008091D2029091D3020E940C0AEFC0833578
:101E700009F0EEC0B80161507109CE0101960E94CF
:101E8000810B09811A810115110531F0C8010E94E9
:101E900050136B017C0103C0C12CD12C7601C80109
:101EA0000E94D011F2E0CF16D10409F44EC0C4F460
:101EB000C114D104B1F1CA94CD2809F0C7C067E1BB
:101EC00070E08091D6029091D7020E9406056AE5E3
:101ED00070E08091D4029091D5020E940605A9C0BD
:101EE000F4E0CF16D10409F475C00CF44CC0E5E061
:101EF000CE16D10409F0AAC06091D6027091D70223
:101F000047E150E08CEC92E00E9489056091D40298
:101F10007091D5024AE550E08CEC92E00E94890570
:101F200088C06AE570E08091D4029091D5020E9449
:101F300006056091D0027091D10220E040E050E0AF
:101F40008091CC029091CD020BC06091D202709131
:101F5000D30220E040E050E08091CE029091CF0289
:101F60000E94530A67E170E08091D4029091D502FB
:101F70000E9406056AE570E08091D6029091D70232
:101F80000E94060563C06091D0027091D10220E0EA
:101F900040E050E08091CC029091CD020E94530A23
:101FA0006091D2027091D30220E040E050E0809135
:101FB000CE029091CF020E94530A67E170E08091B7
:101FC000D6029091D7020E9406056091D4027091CA
:101FD000D50228C06091D2027091D30220E040E087
:101FE00050E08091CE029091CF020E94530A6091FE
:101FF000D0027091D10220E040E050E08091CC020C
:102000009091CD020E94530A6091D4027091D50242
:1020100047E150E08CEC92E00E9489056091D60285
:102020007091D7024AE550E08CEC92E00E9489055D
:102030000DC06091D2027091D30220E040E050E0E8
:102040008091CE029091CF020E94530A0E946009B3
:102050000E94D40879CDEDE1F2E01382128288EE7D
:1020600093E0A0E0B0E084839583A683B7832EE05D
:1020700031E03183208325EC30E03587248724EC60
:1020800030E03787268720EC30E0318B208B21EC45
:1020900030E0338B228B22EC30E0358B248B26EC26
:1020A00030E0378B268B118E128E138E148EEAEB56
:1020B000F2E01382128284839583A683B7838EE134
:1020C00091E091838083EBE4F3E011821282168623
:1020D000158614821382118E128E138E148E28ECA4
:1020E00030E03287218782E090E0908B878783E021
:1020F00090E0928B818B148A138A81E090E0968B1A
:10210000858B108E178A84E090E094878387EEE2B7
:10211000F3E0118212821686158614821382118EC4
:10212000128E138E148E3287218746E050E0508B3A
:10213000478747E050E0528B418B948B838B45E07F
:1021400050E0568B458B108E178A94878387E1E188
:10215000F3E0118212821686158614821382118E84
:10216000128E138E148E3287218748E050E0508BF8
:10217000478749E050E0528B418B4AE050E0548B56
:10218000438B4BE050E0568B458B108E178A94871B
:102190008387E4EFF2E0118212821686158614829C
:1021A0001382118E128E138E148E328721872CE0AB
:1021B00030E0308B27872DE030E0328B218B2EE012
:1021C00030E0348B238B2FE030E0368B258B108E64
:1021D000178A9487838781EF92E00E9407068EEE2C
:1021E00092E00E9407068BEE92E00E94070688EEBE
:1021F00092E00E94070666E371E086EC92E00C94A0
:102200006C0B991B79E004C0991F961708F0961B78
:10221000881F7A95C9F78095089597FB072E16F4C5
:10222000009407D077FD09D00E94271107FC05D044
:102230003EF4909581959F4F0895709561957F4FDD
:102240000895EE0FFF1F0590F491E02D0994AA1B4D
:10225000BB1B51E107C0AA1FBB1FA617B70710F091
:10226000A61BB70B881F991F5A95A9F780959095C3
:10227000BC01CD010895CF93DF938230910510F416
:1022800082E090E0E0916A03F0916B0320E030E09F
:10229000C0E0D0E0309711F14081518148175907D3
:1022A000C0F04817590761F482819381209719F093
:1022B0009B838A832BC090936B0380936A0326C011
:1022C0002115310519F04217530718F49A01BE0180
:1022D000DF01EF010280F381E02DDCCF2115310514
:1022E00009F1281B390B2430310590F412968D9199
:1022F0009C9113976115710521F0FB0193838283F3
:1023000004C090936B0380936A03FD01329644C02E
:10231000FD01E20FF31F81939193225031092D9318
:102320003C933AC02091680330916903232B41F418
:1023300020910201309103013093690320936803D7
:1023400020910001309101012115310541F42DB793
:102350003EB74091040150910501241B350BE091DB
:102360006803F0916903E217F307A0F42E1B3F0BFB
:102370002817390778F0AC014E5F5F4F24173507F7
:1023800048F04E0F5F1F5093690340936803819399
:10239000919302C0E0E0F0E0CF01DF91CF9108958A
:1023A0000F931F93CF93DF93009709F48CC0FC0128
:1023B00032971382128200916A0310916B03011508
:1023C000110581F420813181820F931F20916803D0
:1023D000309169032817390779F5F0936903E09381
:1023E000680371C0D80140E050E0AE17BF0750F459
:1023F00012962D913C911397AD012115310509F1EC
:10240000D901F3CF9D01DA01338322836081718189
:10241000860F971F8217930769F4EC012881398191
:10242000260F371F2E5F3F4F318320838A819B8188
:1024300093838283452B29F4F0936B03E0936A0323
:1024400042C01396FC93EE931297ED014991599176
:102450009E01240F351FE217F30771F480819181EB
:10246000840F951F029611969C938E93828193817F
:1024700013969C938E931297E0E0F0E0D8011296A9
:102480008D919C911397009719F0F8018C01F6CF6C
:102490008D919C9198012E5F3F4F820F931F209149
:1024A0006803309169032817390769F4309729F4D4
:1024B00010926B0310926A0302C01382128210936F
:1024C000690300936803DF91CF911F910F910895E5
:1024D000A0E0B0E0EEE6F2E10C94C213EC0100974C
:1024E00021F4CB010E943B11B8C0FC01E60FF71F9D
:1024F0009C0122503109E217F30708F4ACC0D9015E
:102500000D911C91119706171707B0F005301105B2
:1025100008F49FC0C80104978617970708F499C06C
:1025200002501109061B170B019311936D937C93B5
:10253000CF010E94D0118DC05B01A01AB10A4C01DD
:10254000800E911EA0916A03B0916B0340E050E0B1
:10255000E12CF12C109709F44AC0A815B905D1F562
:102560006D907C901197630182E0C80ED11CCA1453
:10257000DB0480F1A3014A195B096A0182E0C80EFD
:10258000D11C1296BC9012971396AC91B5E0CB1665
:10259000D10440F0B282A38351834083D9016D936B
:1025A0007C930AC00E5F1F4FC301800F911FF9017A
:1025B00091838083EB2DFA2FE114F10431F0D701E0
:1025C0001396FC93EE93129744C0F0936B03E09341
:1025D0006A033FC08D919C9111974817590708F4E1
:1025E000AC017D0112960D90BC91A02DB3CF8091CE
:1025F00068039091690388159905E1F44617570718
:10260000C8F48091000190910101009741F48DB7C9
:102610009EB74091040150910501841B950BE8176A
:10262000F907C8F4F0936903E0936803F901718333
:1026300060830FC0CB010E943B117C01009759F0D1
:10264000A801BE010E943713CE010E94D011C7011C
:1026500004C0CE0102C080E090E0CDB7DEB7EEE06E
:102660000C94DE1381E090E0F8940C942614FB01A6
:10267000DC0102C001900D9241505040D8F70895FE
:10268000FB01DC018D91019080190110D9F3990BA8
:102690000895FB01DC0101900D920020E1F70895FF
:1026A0001F93FC0199278827BC01E89411911032EF
:1026B000E9F3193010F01E30C8F31B3251F01D320F
:1026C00049F4689406C00E947713610F711D811D43
:1026D000911D119110531A30B0F33EF490958095EE
:1026E000709561957F4F8F4F9F4F1F910895592F80
:1026F000482F372F262F660F771F881F991F660FC9
:10270000771F881F991F620F731F841F951F660F05
:10271000771F881F991F0895052E97FB1EF40094BC
:102720000E94A31357FD07D00E94F51307FC03D0A6
:102730004EF40C94A31350954095309521953F4F3E
:102740004F4F5F4F089590958095709561957F4F9D
:102750008F4F9F4F08950E941714A59F900DB49F0F
:10276000900DA49F800D911D11240895B7FF0C9426
:10277000AB130E94AB13821B930B08952F923F92D1
:102780004F925F926F927F928F929F92AF92BF9281
:10279000CF92DF92EF92FF920F931F93CF93DF932D
:1027A000CDB7DEB7CA1BDB0B0FB6F894DEBF0FBE8A
:1027B000CDBF09942A88398848885F846E847D84D7
:1027C0008C849B84AA84B984C884DF80EE80FD80D9
:1027D0000C811B81AA81B981CE0FD11D0FB6F8944F
:1027E000DEBF0FBECDBFED010895A1E21A2EAA1BD8
:1027F000BB1BFD010DC0AA1FBB1FEE1FFF1FA217B1
:10280000B307E407F50720F0A21BB30BE40BF50BAD
:10281000661F771F881F991F1A9469F76095709536
:10282000809590959B01AC01BD01CF010895A29FB9
:10283000B001B39FC001A39F700D811D1124911D94
:10284000B29F700D811D1124911D089510E0C7E6FF
:10285000D0E004C0FE010E9421112196C836D107A4
:06286000C9F7F894FFCF58
:1028660000006C03800001000000000000006B08FF
:102876003509340812082608B208000000002001B5
:10288600F000E800D400C500C40053544F50004483
:082896004F4E45000D0A000041
:00000001FF
