:100000000C9462000C948A000C948A000C948A0070
:100010000C948A000C948A000C948A000C948A0038
:100020000C948A000C948A000C948A000C94A60408
:100030000C948A000C948A000C948A000C948A0018
:100040000C945B020C948A000C949D080C94770825
:100050000C948A000C948A000C948A000C948A00F8
:100060000C9467050C948A00220429043504460484
:1000700048044F045B046C04820484040000000004
:10008000250028002B0004040404040404040202D4
:100090000202020203030303030301020408102007
:1000A0004080010204081020010204081020000012
:1000B0000008000201000003040700000000000027
:1000C0000000CF0811241FBECFEFD8E0DEBFCDBFA8
:1000D00011E0A0E0B1E0E2E7FBE102C005900D9283
:1000E000AA34B107D9F723E0AAE4B1E001C01D9218
:1000F000A53BB207E1F710E0C2E6D0E004C02197CB
:10010000FE010E94570DC136D107C9F70E945A0A55
:100110000C94B70D0C940000FC01918D828D981702
:1001200061F0828DDF01A80FB11D5D968C91928DDB
:100130009F5F9F73928F90E008958FEF9FEF0895D8
:10014000FC01918D828D981731F0828DE80FF11DA1
:10015000858D90E008958FEF9FEF0895FC01918DBC
:10016000228D892F90E0805C9F4F821B91098F73B5
:100170009927089580E090E0892B29F00E94C0061D
:1001800081110C940000089585ED8093BC0080914E
:10019000BC0084FDFCCF1092E301089540916C01F6
:1001A000262F30E0240F311D21323105DCF420915F
:1001B000E3012430C9F4FC0180E090E0861758F494
:1001C00030916C012191DC01A65BBE4FA30FB11DE4
:1001D0002C930196F3CF80916C01680F60936C01B2
:1001E00080E0089581E0089582E008950895E09107
:1001F000BC018091BB01E81730F4F0E0EE56FE4FF1
:10020000808190E008958FEF9FEF08959091BC0159
:100210008091BB01981750F4E92FF0E0EE56FE4FA5
:10022000208130E09F5F9093BC0102C02FEF3FEF31
:10023000C90108958091BB0190E02091BC01821B0F
:1002400091090895CF92DF92EF92FF920F931F933F
:10025000CF93DF937C01262F972F8A018091E401B1
:10026000882391F0C62FD72F6E01C40ED51ECC1552
:10027000DD0571F06991D701ED91FC910190F0815C
:10028000E02DC7010995F3CF642F822F0E94CE0085
:10029000C801DF91CF911F910F91FF90EF90DF90F8
:1002A000CF900895CF93DF931F92CDB7DEB76983C8
:1002B0002091E4012223D1F020910702203240F066
:1002C00021E030E0FC013383228380E090E015C020
:1002D0008091E501E82FF0E0EA51FE4F998190838B
:1002E0008F5F8093E5018093070205C061E0CE0136
:1002F00001960E94CE0081E090E00F90DF91CF91B7
:1003000008950E94710DFC01848DDF01A80FB11DBD
:10031000A35ABF4F2C91848D90E001968F7399273B
:10032000848FA689B7892C93A089B1898C91806428
:100330008C93938D848D981306C00288F389E02DE9
:1003400080818F7D8083089590E0FC01E255FF4F0E
:100350003491FC01E656FF4F2491FC01EA57FF4F10
:10036000E491EE2309F43BC0332339F1333091F0AB
:1003700038F43130A9F0323001F584B58F7D12C0E8
:10038000373091F03830A1F03430B9F480918000EA
:100390008F7D03C0809180008F77809380000DC097
:1003A00084B58F7784BD09C08091B0008F7703C07A
:1003B0008091B0008F7D8093B000F0E0EE0FFF1FC2
:1003C000E458FF4FA591B4918FB7F894EC91611167
:1003D00003C020952E2301C02E2B2C938FBF089590
:1003E0003FB7F8948091B7019091B801A091B901FD
:1003F000B091BA0126B5A89B05C02F3F19F0019610
:10040000A11DB11D3FBFBA2FA92F982F8827820F9A
:10041000911DA11DB11DBC01CD0142E0660F771FEA
:10042000881F991F4A95D1F708958F929F92AF9296
:10043000BF92CF92DF92EF92FF926B017C010E94FC
:10044000F0014B015C01C114D104E104F104F1F0AD
:100450000E94F001DC01CB0188199909AA09BB09A6
:10046000883E9340A105B10570F321E0C21AD1087E
:10047000E108F10888EE880E83E0981EA11CB11CEB
:10048000C114D104E104F10419F7DDCFFF90EF901E
:10049000DF90CF90BF90AF909F908F9008952FB72F
:1004A000F8946091B3017091B4018091B50190917D
:1004B000B6012FBF08951F920F920FB60F9211240D
:1004C0002F933F938F939F93AF93BF938091B301EB
:1004D0009091B401A091B501B091B6013091B201F3
:1004E00023E0230F2D3720F40196A11DB11D05C077
:1004F00026E8230F0296A11DB11D2093B20180931F
:10050000B3019093B401A093B501B093B60180916B
:10051000B7019091B801A091B901B091BA010196CB
:10052000A11DB11D8093B7019093B801A093B901AB
:10053000B093BA01BF91AF919F918F913F912F914D
:100540000F900FBE0F901F901895CF93DF93EC0183
:10055000688381E089838B859C858530910591F442
:100560006F85CE010E944C086989CE010E944C081B
:100570006B89CE010E944C086D89CE010E944C0807
:100580006F8918C08430910571F46F85CE010E9487
:100590004C086989CE010E944C086B89CE010E94EB
:1005A0004C086D8907C0029751F46F85CE010E94F7
:1005B0004C086989CE01DF91CF910C944C08DF91F2
:1005C000CF910895CF93DF931F92CDB7DEB7FC0193
:1005D0008081806291E09093E40180930602109202
:1005E000E5011092070288E092E049830E945201DF
:1005F0004981642F88E092E00E94520181E00F90CF
:10060000DF91CF910C94EF07CF93DF93EC019881AA
:10061000906281E08093E401909306021092E501DC
:100620001092070288E092E00E94520181E00E944D
:10063000EF0788819091E3019111FCCF91E09093B5
:10064000E3019093E2012FEF2093E1011092E0018A
:100650001092DF019093BE019091BE018062880FDD
:10066000892B8093BE018091BD01813061F410928D
:10067000BD018091BE018093BB008091BC0083FDD1
:10068000F8CF85EC01C085EE8093BC008091E3013A
:100690008130E1F38091E001811103C08091E0019C
:1006A00001C081E0AFEBB1E022E931E0F9019E2F1A
:1006B000921B981718F49D919193F9CF1092BC0159
:1006C0008093BB0188E092E00E940601DF91CF9108
:1006D0000895FF920F931F93CF93DF93EC018981CD
:1006E000882361F1862F8770F82E683010F095E12D
:1006F00001C094E1142F062F692FCE010E9404033C
:1007000041E050E060E070E004C0440F551F661FF8
:10071000771FFA94D2F7112311F0482B02C04095AD
:100720004823083010F063E101C062E1CE01DF919F
:10073000CF911F910F91FF900C94E202DF91CF9126
:100740001F910F91FF9008950F931F93CF93DF9305
:10075000EC018B018B859C85029709F56130710551
:1007600069F024F4672BD9F440E009C062307105C8
:1007700061F06330710599F440E008C041E06F8595
:10078000CE010E94690341E006C041E06F85CE01C1
:100790000E94690340E06989CE010E9469038B854C
:1007A0009C85049709F040C001301105C1F054F454
:1007B00001151105C9F541E06F85CE010E9469035D
:1007C00040E013C002301105D9F00330110561F586
:1007D00041E06F85CE010E94690340E017C040E010
:1007E0006F85CE010E94690341E06989CE010E94B4
:1007F000690341E06B89CE010E94690340E010C0AB
:1008000040E06F85CE010E94690341E06989CE0115
:100810000E94690340E06B89CE010E94690341E0B8
:100820006D89CE010E9469038B859C85059709F02F
:1008300088C00A30110508F084C0F801EC5CFF4F55
:100840000C94570D40E06F85CE010E94690341E092
:1008500061C040E06F85CE010E94690341E0698973
:10086000CE010E94690340E05AC040E06F85CE018E
:100870000E94690341E06989CE010E94690340E05A
:100880006B89CE010E94690341E04EC040E001C087
:1008900041E06F85CE010E94690341E006C041E05E
:1008A0006F85CE010E94690340E06989CE010E94F4
:1008B000690340E00BC041E06F85CE010E946903EF
:1008C00040E06989CE010E94690341E06B89CE0155
:1008D0000E94690341E010C041E06F85CE010E9493
:1008E000690340E06989CE010E94690341E06B8998
:1008F000CE010E94690340E06D89CE010E94690328
:1009000040E017C041E001C040E06F85CE010E9489
:10091000690340E06989CE010E94690341E06B8967
:10092000CE010E94690340E06D89CE010E946903F7
:1009300041E06F89CE01DF91CF911F910F910C940F
:100940006903DF91CF911F910F9108951F920F922C
:100950000FB60F9211242F933F934F935F936F9392
:100960007F938F939F93AF93BF93EF93FF93809168
:10097000910187FF05C010928500109284001BC072
:1009800020919101022E000C330B8091380290E0EF
:100990002817390784F480919101082E000C990BD7
:1009A000FC01EE0FFF1F8E0F9F1FFC01EC5EFD4F41
:1009B000808186FD15C0809191018F5F80939101A8
:1009C00020919101022E000C330B8091380290E0AF
:1009D00028173907C4F4809191018C3064F113C059
:1009E00080919101082E000C990BFC01EE0FFF1F66
:1009F0008E0F9F1FFC01EC5EFD4F808160E08F73C6
:100A00000E94A401D8CF8091840090918500049623
:100A100080349C4918F480E49CE905C080918400EE
:100A200090918500049690938900809388008FEFC1
:100A3000809391013BC0209184003091850080918A
:100A40009101082E000C990BFC01EE0FFF1F8E0F79
:100A50009F1FFC01EC5EFD4F81819281820F931FED
:100A6000909389008093880080919101082E000C5A
:100A7000990BFC01EE0FFF1F8E0F9F1FFC01EC5E18
:100A8000FD4F808186FF12C080919101082E000CDD
:100A9000990BFC01EE0FFF1F8E0F9F1FFC01EC5EF8
:100AA000FD4F808161E08F730E94A401FF91EF915F
:100AB000BF91AF919F918F917F916F915F914F9176
:100AC0003F912F910F900FBE0F901F9018951F927E
:100AD0000F920FB60F9211242F933F934F935F9372
:100AE0006F937F938F939F93AF93BF93EF93FF93F6
:100AF0008091B900887F803609F49CC068F58832FF
:100B000009F45BC090F4803109F454C038F48823B0
:100B100009F4F6C0883009F44DC0F6C0883109F4F4
:100B20004CC0803209F45DC0EFC0803409F468C065
:100B300048F4803309F455C0883309F0E5C0809348
:100B4000E101D8C0803509F44FC0883509F45DC093
:100B5000883409F0D9C0D6C0883909F4C7C0A8F4D0
:100B6000883709F467C038F4883609F463C08037E1
:100B700009F460C0C9C0883809F4B8C0803909F4E4
:100B80005FC0803809F0C0C05BC0803B09F486C0FC
:100B900038F4803A09F466C0883A09F47FC0B4C0DA
:100BA000803C09F4A7C0883C09F4A4C0883B09F440
:100BB0008AC0AAC08091BE0110C09091E0018091CE
:100BC000DF01981770F5E091E00181E08E0F8093CE
:100BD000E001F0E0E154FE4F80818093BB0085ECA2
:100BE00086C08093E1018EC0E091E00181E08E0F2C
:100BF0008093E0018091BB00F0E0E154FE4F8083E0
:100C00009091E0018091DF016EC0E091E00181E010
:100C10008E0F8093E0018091BB00F0E0E154FE4F25
:100C200080838091E20181116DC081E08093BD01DC
:100C300084EA61C083E08093E30110929001CFCFFA
:100C400080919001803208F051C0E091900181E0E4
:100C50008E0F809390018091BB00F0E0E059FE4F31
:100C60008083BDCF85EC8093BC001092E30180911E
:100C70009001803230F4E0919001F0E0E059FE4FB5
:100C800010826091900170E0E0916E01F0916F012F
:100C900080E791E009951092900136C084E080933E
:100CA000E30110926D0110926C01E0916A01F091E4
:100CB0006B01099580916C01811105C081E08093E1
:100CC0006C0110924A01E0916D0181E08E0F8093DA
:100CD0006D01F0E0E65BFE4F80818093BB00909158
:100CE0006D0180916C01981708F479CF85E88093A5
:100CF000BC000AC085EC8093BC001092E30104C0E4
:100D00001092E1010E94C400FF91EF91BF91AF9159
:100D10009F918F917F916F915F914F913F912F9113
:100D20000F900FBE0F901F901895CF92DF92EF9209
:100D3000FF920F931F93CF93DF936C017A018B0186
:100D4000C0E0D0E0CE15DF0589F0D8016D918D01AE
:100D5000D601ED91FC910190F081E02DC60109953D
:100D6000892B11F47E0102C02196ECCFC701DF91DF
:100D7000CF911F910F91FF90EF90DF90CF9008954A
:100D800082E492E00E94AE0021E0892B09F420E089
:100D9000822F0895CF92DF92EF92FF920F931F93CD
:100DA000CF93DF93EC0181E090E09C838B830E94E2
:100DB000F001098D1A8D2B8D3C8D6B017C01C01AC1
:100DC000D10AE20AF30A0D811E812F813885C016EF
:100DD000D106E206F30658F3698F7A8F8B8F9C8FCA
:100DE0002B813C818D859E852130310569F0892BD1
:100DF00031F08D859E8501979E878D870FC08985EF
:100E00009A859E878D87F5CF01969E878D87298548
:100E10003A858217930711F41E861D862B853C8523
:100E20008D859E852530310519F064E070E002C0A3
:100E30006AE070E00E94430DBC01CE01DF91CF91CA
:100E40001F910F91FF90EF90DF90CF900C94A4032F
:100E50006115710579F0FB0101900020E9F73197E8
:100E6000AF01461B570BDC01ED91FC910280F38131
:100E7000E02D099480E090E008954F925F926F9288
:100E80007F92EF92FF920F931F93CF93DF93CDB793
:100E9000DEB7A1970FB6F894DEBF0FBECDBF7C01C1
:100EA000FA01CB0119A2223008F42AE08E010F5D6D
:100EB0001F4F422E512C612C712CBF01A3019201B6
:100EC0000E94760DF901CA01015011096A3014F42B
:100ED000605D01C0695CD8016C93232B242B252B0A
:100EE00061F7B801C7010E942807A1960FB6F894D0
:100EF000DEBF0FBECDBFDF91CF911F910F91FF904D
:100F0000EF907F906F905F904F900895EF92FF92D7
:100F10000F931F93CF93DF93EC0181E0888F9B8D1C
:100F20008C8D981305C0E889F989808185FD24C0DE
:100F3000F62E0B8D10E00F5F1F4F0F731127E02E61
:100F40008C8DE8120CC00FB607FCFACFE889F9893E
:100F5000808185FFF5CFCE010E948301F1CF8B8D7B
:100F6000FE01E80FF11DE35AFF4FF0820B8FEA8973
:100F7000FB898081806207C0EE89FF896083E889F0
:100F8000F98980818064808381E090E0DF91CF9156
:100F90001F910F91FF90EF900895CF93DF93EC0195
:100FA000888D8823C9F0EA89FB89808185FD05C089
:100FB000A889B9898C9186FD0FC00FB607FCF5CFC3
:100FC000808185FFF2CFA889B9898C9185FFEDCF0B
:100FD000CE010E948301E7CFDF91CF910895382F92
:100FE0002091070290910602213208F049C08091B9
:100FF000E3018111FCCF42E04093E3013093E20131
:101000003FEF3093E1011092E0012093DF01A6EE63
:10101000B1E04FEB51E0FA013E2F341B321718F4C8
:101020003D913193F9CF1092BE012091BE01990FED
:10103000922B9093BE019091BD01913061F410927A
:10104000BD019091BE019093BB009091BC0093FDB7
:10105000F8CF95EC01C095EE9093BC009091E30120
:101060009230E1F39091E1019F3F79F08091E101AD
:10107000803241F08091E101803331F084E005C09D
:1010800081E003C082E001C083E01092E50110928C
:1010900007021092E40108950F931F93CF93DF93FB
:1010A000EC0189818823F1F001E0683008F400E068
:1010B000162F602FCE010E940403912F977041E0FC
:1010C00050E060E070E004C0440F551F661F771FBA
:1010D0009A95D2F740954823602FCE010E94E202F4
:1010E00081E08A83DF91CF911F910F9108951F9224
:1010F0000F920FB60F9211242F933F934F935F934C
:101100006F937F938F939F93AF93BF93EF93FF93CF
:1011100082E492E00E948301FF91EF91BF91AF9131
:101120009F918F917F916F915F914F913F912F91FF
:101130000F900FBE0F901F9018951F920F920FB631
:101140000F9211242F938F939F93EF93FF93E0912E
:101150005202F09153028081E0915802F0915902BD
:1011600082FD12C0908180915B028F5F8F7320910E
:101170005C02821751F0E0915B02F0E0EE5BFD4F04
:10118000958F80935B0201C08081FF91EF919F91C9
:101190008F912F910F900FBE0F901F901895109266
:1011A00045021092440288EE93E0A0E0B0E0809304
:1011B000460290934702A0934802B093490228E068
:1011C00031E0309343022093420225EC30E030932B
:1011D0004F0220934E0224EC30E0309351022093D2
:1011E000500220EC30E0309353022093520221EC65
:1011F00030E0309355022093540222EC30E03093DB
:1012000057022093560226EC30E030935902209387
:10121000580210925B0210925C0210925D021092D2
:101220005E021092E5021092E6021092E70210921E
:10123000E8021092E9021092EA021092EB02109278
:10124000EC021092ED021092EE021092EF02109258
:10125000F0021092F1021092F2021092F302109238
:10126000F40210920B0210920A0280930C029093E7
:101270000D02A0930E02B0930F0288E191E09093CB
:101280000902809308021092990310929A03109217
:10129000A6031092A50310929C0310929B03109238
:1012A000B1031092B2031092B3031092B40328EC6E
:1012B00030E03093A2032093A1031092A803109270
:1012C000A70381E090E09093AA038093A90382E0B2
:1012D00090E09093AC038093AB0383E090E0909315
:1012E000AE038093AD031092B0031092AF0384E07D
:1012F00090E09093A4038093A30310927C03109238
:101300007D03109289031092880310927F0310923C
:101310007E031092940310929503109296031092FC
:101320009703309385032093840390938B038093DA
:101330008A0345E050E050938D0340938C0346E0D0
:1013400050E050938F0340938E0347E050E050935A
:101350009103409390031092930310929203909301
:1013600087038093860310925F03109260031092AC
:101370006C0310926B03109262031092610310923F
:101380007703109278031092790310927A033093C6
:1013900068032093670348E050E050936E03409346
:1013A0006D0349E050E05093700340936F034AE0AF
:1013B00050E050937203409371034BE050E0509320
:1013C0007403409373031092760310927503909305
:1013D0006A038093690310924203109243031092B0
:1013E0004F0310924E031092450310924403109243
:1013F0005A0310925B0310925C0310925D033093CA
:101400004B0320934A032CE030E0309351032093A8
:1014100050032DE030E030935303209352032EE02D
:1014200030E030935503209354032FE030E03093A5
:101430005703209356031092590310925803909328
:101440004D0380934C03809138028C30A0F491E0DE
:10145000980F9093380280933E0390E0FC01EE0FCA
:10146000FF1F8E0F9F1FFC01EC5EFD4F88EB9BE082
:101470009283818303C08FEF80933E038091380273
:101480008C30A0F491E0980F9093380280933B0346
:1014900090E0FC01EE0FFF1F8E0F9F1FFC01EC5E22
:1014A000FD4F88EB9BE09283818308958FEF8093BB
:1014B0003B030895CF93DF93CDB7DEB764970FB6A4
:1014C000F894DEBF0FBECDBF789484B5826084BD32
:1014D00084B5816084BD85B5826085BD85B5816038
:1014E00085BD80916E00816080936E0010928100B6
:1014F0008091810082608093810080918100816071
:101500008093810080918000816080938000809131
:10151000B10084608093B1008091B00081608093BD
:10152000B00080917A00846080937A0080917A0084
:10153000826080937A0080917A00816080937A0043
:1015400080917A00806880937A001092C100109296
:101550002303109224031092250310922603109265
:10156000E1021092E2021092E3021092E40260EDB6
:1015700077E080E090E00E94150282E492E0909390
:10158000220380932103E0915202F091530282E002
:101590008083E0914E02F0914F021082E091500260
:1015A000F091510280E1808310925A02E09156023C
:1015B000F091570286E08083E0915402F091550249
:1015C000808180618083E0915402F0915502808196
:1015D00088608083E0915402F09155028081806898
:1015E0008083E0915402F091550280818F7D808349
:1015F0000E944F026093E1027093E2028093E30243
:101600009093E40264E271E08091210390912203BF
:101610000E9428076AE070E080E090E00E941502D6
:1016200081E08093F502109239021092BC01109271
:10163000BB011092E501109207021092E301809322
:10164000E2011092BD0161E082E10E94A40161E02B
:1016500083E10E94A4018091B9008E7F8093B9003C
:101660008091B9008D7F8093B90088E48093B800A1
:1016700085E48093BC004FEF60E089E392E00E9434
:10168000E2024FEF61E089E392E00E94E2028CE027
:101690008093B8006091390288E993E00E94A50226
:1016A000609139028BE793E00E94A50260913902B4
:1016B0008EE593E00E94A5026091390281E493E0F7
:1016C0000E94A5022091A1033091A203032E000CD9
:1016D000440B550B812C87E8982E83E9A82E83E0D4
:1016E000B82EC501B4010E94980D9AE0C92ED12CE4
:1016F000E12CF12CCA01B901A70196010E94980DB5
:1017000020939D0330939E0340939F035093A00327
:101710002091840330918503032E000C440B550B5C
:10172000C501B4010E94980DCA01B901A701960133
:101730000E94980D2093800330938103409382038D
:10174000509383032091670330916803032E000CAC
:10175000440B550BC501B4010E94980DCA01B90193
:10176000A70196010E94980D2093630330936403B0
:10177000409365035093660320914A0330914B03D5
:10178000032E000C440B550BC501B4010E94980DAB
:10179000CA01B901A70196010E94980D2093460342
:1017A0003093470340934803509349031A861986A0
:1017B00081E090E09C878B8782E090E09E878D8718
:1017C00083E090E0988B8F8784E090E09A8B898B00
:1017D00085E090E09C8B8B8B88E993E09A838983EA
:1017E00084E1FE013196A7E2B3E001900D928A9563
:1017F000E1F724EF822E99249394A12CB12C0E941E
:101800004F02672B682B692B41F40E944F02623014
:1018100071058105910508F40BC10E944F02609388
:101820003E0270933F028093400290934102C09029
:101830003A02D0903B02E0903C02F0903D026C15E1
:101840007D058E059F0540F460933A0270933B023C
:1018500080933C0290933D02C0903A02D0903B02AC
:10186000E0903C02F0903D029B01AC012C193D0937
:101870004E095F0969017A013AEFC316D104E10408
:10188000F10408F4D5C060933A0270933B02809350
:101890003C0290933D028092ED029092EE02A09263
:1018A000EF02B092F0021092F1021092F202109246
:1018B000F3021092F4028091E5029091E602A09169
:1018C000E702B091E8028093E9029093EA02A093C4
:1018D000EB02B093EC020E944F026093E50270931A
:1018E000E6028093E7029093E8020E944F02609321
:1018F000E1027093E2028093E3029093E4020E947B
:101900004F026B017C0166E371E0809121039091AD
:1019100022030E9428072AE041E050E060E070E0E6
:1019200080912103909122030E943D076DE371E0B5
:1019300080912103909122030E9428072AE0B70199
:10194000A60180912103909122030E943D076FE33D
:1019500071E080912103909122030E9428078091D9
:10196000E5029091E602A091E702B091E802B7018A
:10197000A601481B590B6A0B7B0B2AE080912103BF
:10198000909122030E943D076FE371E08091210353
:10199000909122030E9428074091E5025091E602AF
:1019A0006091E7027091E8028091E9029091EA0269
:1019B000A091EB02B091EC02481B590B6A0B7B0B18
:1019C0002AE080912103909122030E943D0761E467
:1019D00071E080912103909122030E9428070E94C8
:1019E0004F02AB01BC012AE08091210390912203B8
:1019F0000E943D07E0902103F090220363E471E030
:101A0000C7010E94280763E371E0C7010E9428070D
:101A100065E070E080E090E00E9415020E944F02B5
:101A20006093E5027093E6028093E7029093E802E8
:101A300088E993E00E94CA0668EE73E080E090E0D7
:101A40000E9415028BE793E00E94CA0668EE73E0DD
:101A500080E090E00E9415028EE593E00E94CA06A5
:101A600068EE73E080E090E00E94150281E493E06C
:101A70000E94CA0660ED77E080E090E00E941502C7
:101A80000E94BA00BCCE97FB072E16F4009407D034
:101A900077FD09D00E945D0D07FC05D03EF49095BE
:101AA00081959F4F0895709561957F4F0895EE0F32
:101AB000FF1F0590F491E02D0994AA1BBB1B51E177
:101AC00007C0AA1FBB1FA617B70710F0A61BB70BAE
:101AD000881F991F5A95A9F780959095BC01CD0153
:101AE000089581E090E0F8940C94B70DA1E21A2ECD
:101AF000AA1BBB1BFD010DC0AA1FBB1FEE1FFF1FB2
:101B0000A217B307E407F50720F0A21BB30BE40B01
:101B1000F50B661F771F881F991F1A9469F7609548
:101B20007095809590959B01AC01BD01CF01089502
:101B3000052E97FB1EF400940E94AF0D57FD07D0B1
:101B40000E94760D07FC03D04EF40C94AF0D509517
:101B50004095309521953F4F4F4F5F4F0895909599
:101B60008095709561957F4F8F4F9F4F0895F894A2
:021B7000FFCFA5
:101B7200010000000000000086079506AE008C0000
:101B8200A000CD0700000000520122011A01060147
:101B9200F700F600564D4450565F317C315F564D8A
:101BA2004450560D0A00564D4450455F003A323AB1
:0A1BB200007C005F564D44504500D2
:107E0000112484B714BE81FFF0D085E080938100F7
:107E100082E08093C00088E18093C10086E0809377
:107E2000C20080E18093C4008EE0C9D0259A86E02C
:107E300020E33CEF91E0309385002093840096BBD3
:107E4000B09BFECF1D9AA8958150A9F7CC24DD24C4
:107E500088248394B5E0AB2EA1E19A2EF3E0BF2EE7
:107E6000A2D0813461F49FD0082FAFD0023811F036
:107E7000013811F484E001C083E08DD089C08234E0
:107E800011F484E103C0853419F485E0A6D080C0E4
:107E9000853579F488D0E82EFF2485D0082F10E0AE
:107EA000102F00270E291F29000F111F8ED06801E7
:107EB0006FC0863521F484E090D080E0DECF843638
:107EC00009F040C070D06FD0082F6DD080E0C81688
:107ED00080E7D80618F4F601B7BEE895C0E0D1E017
:107EE00062D089930C17E1F7F0E0CF16F0E7DF06D8
:107EF00018F0F601B7BEE89568D007B600FCFDCFD4
:107F0000A601A0E0B1E02C9130E011968C91119780
:107F100090E0982F8827822B932B1296FA010C0160
:107F200087BEE89511244E5F5F4FF1E0A038BF0790
:107F300051F7F601A7BEE89507B600FCFDCF97BE46
:107F4000E89526C08437B1F42ED02DD0F82E2BD052
:107F50003CD0F601EF2C8F010F5F1F4F84911BD097
:107F6000EA94F801C1F70894C11CD11CFA94CF0C13
:107F7000D11C0EC0853739F428D08EE10CD085E9AC
:107F80000AD08FE07ACF813511F488E018D01DD067
:107F900080E101D065CF982F8091C00085FFFCCF94
:107FA0009093C60008958091C00087FFFCCF809118
:107FB000C00084FD01C0A8958091C6000895E0E648
:107FC000F0E098E1908380830895EDDF803219F02E
:107FD00088E0F5DFFFCF84E1DECF1F93182FE3DFCA
:107FE0001150E9F7F2DF1F91089580E0E8DFEE27F6
:047FF000FF270994CA
:027FFE00040479
:0400000300007E007B
:00000001FF