:100000000C9458000C9480000C9480000C94800098
:100010000C9480000C9480000C9480000C94800060
:100020000C9480000C9480000C9480000C94450388
:100030000C9480000C9480000C9480000C94800040
:100040000C94FB020C9480000C9480000C948000B3
:100050000C9480000C9480000C9480000C94800020
:100060000C9406040C948000000000002500280079
:100070002B00040404040404040402020202020229
:10008000030303030303010204081020408001025C
:1000900004081020010204081020000000080002DB
:1000A0000100000304070000000000000000340508
:1000B00011241FBECFEFD8E0DEBFCDBF22E0A4E108
:1000C000B1E001C01D92AE37B207E1F711E0A0E048
:1000D000B1E0EAE7FFE002C005900D92A431B1075C
:1000E000D9F710E0C8E5D0E004C02197FE010E94D6
:1000F0006F07C735D107C9F70E9461060C94BB078B
:100100000C940000382F2091D2019091D10121321E
:1001100008F049C08091AE018111FCCF42E04093CC
:10012000AE013093AD013FEF3093AC011092AB01C3
:100130002093AA01A1EBB1E04AE851E0FA013E2F79
:10014000341B321718F43D913193F9CF1092890185
:1001500020918901990F922B9093890190918801A8
:10016000913061F410928801909189019093BB00C5
:100170009091BC0093FDF8CF95EC01C095EE909363
:10018000BC009091AE019230E1F39091AC019F3FA1
:1001900079F08091AC01803241F08091AC018033E4
:1001A00031F084E005C081E003C082E001C083E05B
:1001B0001092B0011092D2011092AF010895CF9227
:1001C000DF92EF92FF920F931F93CF93DF936C0117
:1001D0007A018B01C0E0D0E0CE15DF0589F0D801AF
:1001E0006D918D01D601ED91FC910190F081E02D92
:1001F000C6010995892B11F47E0102C02196ECCF2E
:10020000C701DF91CF911F910F91FF90EF90DF9089
:10021000CF90089590E0FC01E656FF4F3491FC0129
:10022000EA57FF4F2491FC01EE58FF4FE491EE2373
:1002300009F43BC0332339F1333091F038F43130D5
:10024000A9F0323001F584B58F7D12C0373091F0BE
:100250003830A1F03430B9F4809180008F7D03C034
:10026000809180008F77809380000DC084B58F7758
:1002700084BD09C08091B0008F7703C08091B00029
:100280008F7D8093B000F0E0EE0FFF1FE859FF4F25
:10029000A591B4918FB7F894EC91611103C02095AA
:1002A0002E2301C02E2B2C938FBF089585ED8093B4
:1002B000BC008091BC0084FDFCCF1092AE0108957B
:1002C00040913601262F30E0240F311D21323105B7
:1002D000DCF42091AE012430C9F4FC0180E090E010
:1002E000861758F4309136012191DC01AC5EBE4F87
:1002F000A30FB11D2C930196F3CF80913601680FA7
:100300006093360180E0089581E0089582E00895C9
:100310000895E091670180916601E81730F4F0E0FC
:10032000E859FE4F808190E008958FEF9FEF089588
:100330009091670180916601981750F4E92FF0E0E1
:10034000E859FE4F208130E09F5F9093670102C023
:100350002FEF3FEFC90108958091660190E0209151
:100360006701821B91090895CF92DF92EF92FF926D
:100370000F931F93CF93DF937C01262F972F8A0132
:100380008091AF01882391F0C62FD72F6E01C40E44
:10039000D51ECC15DD0571F06991D701ED91FC9169
:1003A0000190F081E02DC7010995F3CF642F822FD2
:1003B0000E946001C801DF91CF911F910F91FF90C2
:1003C000EF90DF90CF900895CF93DF931F92CDB73A
:1003D000DEB769832091AF012223D1F02091D201B1
:1003E000203240F021E030E0FC013383228380E0C2
:1003F00090E015C08091B001E82FF0E0EF54FE4F7F
:10040000998190838F5F8093B0018093D20105C062
:1004100061E0CE0101960E94600181E090E00F90C2
:10042000DF91CF910895CF93DF931F92CDB7DEB7C1
:10043000FC018081806291E09093AF018093D101B3
:100440001092B0011092D20183ED91E049830E9495
:10045000E4014981642F83ED91E00E94E40181E091
:100460000F90DF91CF910C9482000F931F93CF9345
:10047000DF93EC018981882309F479C001E06830B9
:1004800008F400E0162F17708881806291E0909345
:10049000AF018093D1011092B0011092D201602F70
:1004A00083ED91E00E94E40181E00E948200888156
:1004B0009091AE019111FCCF91E09093AE01909399
:1004C000AD012FEF2093AC011092AB011092AA0165
:1004D00090938901909189018062880F892B809384
:1004E000890180918801813061F4109288018091A6
:1004F00089018093BB008091BC0083FDF8CF85EC1F
:1005000001C085EE8093BC008091AE018130E1F3A3
:100510008091AB01811103C08091AB0101C081E0EA
:10052000AAE8B1E028E631E0F9019E2F921B981766
:1005300018F49D919193F9CF109267018093660111
:1005400083ED91E00E94980141E050E060E070E0AE
:1005500004C0440F551F661F771F1A95D2F74095A8
:100560004823602FCE010E94130281E08A83DF912D
:10057000CF911F910F910895CF93DF93EC01688382
:1005800081E089838B859C858530910591F46F8509
:10059000CE010E9435026989CE010E9435026B8925
:1005A000CE010E9435026D89CE010E9435026F890D
:1005B00018C08430910571F46F85CE010E94350218
:1005C0006989CE010E9435026B89CE010E943502F5
:1005D0006D8907C0029751F46F85CE010E943502E4
:1005E0006989CE01DF91CF910C943502DF91CF91D3
:1005F00008950E9475071F920F920FB60F92112453
:100600002F933F938F939F93AF93BF9380916101FB
:1006100090916201A0916301B091640130916001F9
:1006200023E0230F2D3720F40196A11DB11D05C035
:1006300026E8230F0296A11DB11D2093600180932F
:10064000610190936201A0936301B0936401809172
:100650005C0190915D01A0915E01B0915F010196F6
:10066000A11DB11D80935C0190935D01A0935E017B
:10067000B0935F01BF91AF919F918F913F912F9167
:100680000F900FBE0F901F9018951F920F920FB6EC
:100690000F9211242F933F934F935F936F937F9308
:1006A0008F939F93AF93BF93EF93FF9380915B01E1
:1006B00087FF05C010928500109284001BC0209116
:1006C0005B01022E000C330B8091030290E028178F
:1006D000390784F480915B01082E000C990BFC0112
:1006E000EE0FFF1F8E0F9F1FFC01E152FE4F808116
:1006F00086FD15C080915B018F5F80935B01209127
:100700005B01022E000C330B8091030290E028174E
:100710003907C4F480915B018C3064F113C080917F
:100720005B01082E000C990BFC01EE0FFF1F8E0FD2
:100730009F1FFC01E152FE4F808160E08F730E9499
:100740000A01D8CF8091840090918500049680346E
:100750009C4918F480E49CE905C080918400909144
:100760008500049690938900809388008FEF809392
:100770005B013BC0209184003091850080915B013A
:10078000082E000C990BFC01EE0FFF1F8E0F9F1F10
:10079000FC01E152FE4F81819281820F931F909361
:1007A00089008093880080915B01082E000C990BD2
:1007B000FC01EE0FFF1F8E0F9F1FFC01E152FE4F49
:1007C000808186FF12C080915B01082E000C990B7E
:1007D000FC01EE0FFF1F8E0F9F1FFC01E152FE4F29
:1007E000808161E08F730E940A01FF91EF91BF91B8
:1007F000AF919F918F917F916F915F914F913F91B9
:100800002F910F900FBE0F901F9018951F920F926F
:100810000FB60F9211242F933F934F935F936F93D3
:100820007F938F939F93AF93BF93EF93FF938091A9
:10083000B900887F803609F49CC068F5883209F4D5
:100840005BC090F4803109F454C038F4882309F473
:10085000F6C0883009F44DC0F6C0883109F44CC0A8
:10086000803209F45DC0EFC0803409F468C048F4F8
:10087000803309F455C0883309F0E5C08093AC019A
:10088000D8C0803509F44FC0883509F45DC088347C
:1008900009F0D9C0D6C0883909F4C7C0A8F4883790
:1008A00009F467C038F4883609F463C0803709F466
:1008B00060C0C9C0883809F4B8C0803909F45FC085
:1008C000803809F0C0C05BC0803B09F486C038F4B2
:1008D000803A09F466C0883A09F47FC0B4C0803C0D
:1008E00009F4A7C0883C09F4A4C0883B09F48AC075
:1008F000AAC08091890110C09091AB018091AA019A
:10090000981770F5E091AB0181E08E0F8093AB01F9
:10091000F0E0E657FE4F80818093BB0085EC86C0F7
:100920008093AC018EC0E091AB0181E08E0F80938B
:10093000AB018091BB00F0E0E657FE4F80839091C1
:10094000AB018091AA016EC0E091AB0181E08E0FF6
:100950008093AB018091BB00F0E0E657FE4F8083AF
:100960008091AD0181116DC081E08093880184EA9E
:1009700061C083E08093AE0110925A01CFCF809185
:100980005A01803208F051C0E0915A0181E08E0F87
:1009900080935A018091BB00F0E0E65CFE4F8083BB
:1009A000BDCF85EC8093BC001092AE0180915A01BE
:1009B000803230F4E0915A01F0E0E65CFE4F1082A4
:1009C00060915A0170E0E0913801F09139018AE3B9
:1009D00091E0099510925A0136C084E08093AE01EF
:1009E0001092370110923601E0913401F0913501F7
:1009F000099580913601811105C081E0809336010F
:100A000010921401E091370181E08E0F809337013D
:100A1000F0E0EC5EFE4F80818093BB009091370147
:100A200080913601981708F479CF85E88093BC004F
:100A30000AC085EC8093BC001092AE0104C01092F5
:100A4000AC010E945601FF91EF91BF91AF919F9130
:100A50008F917F916F915F914F913F912F910F9067
:100A60000FBE0F901F9018951092D6011092D501CD
:100A700088EE93E0A0E0B0E08093D7019093D80196
:100A8000A093D901B093DA0188E091E09093D4016A
:100A90008093D301109262021092630210926F024F
:100AA00010926E02109265021092640210927A0205
:100AB00010927B0210927C0210927D0228EC30E0B2
:100AC00030936B0220936A021092710210927002AE
:100AD00081E090E0909373028093720282E090E054
:100AE000909375028093740283E090E09093770274
:100AF00080937602109279021092780284E090E05E
:100B000090936D0280936C021092450210924602FF
:100B10001092520210925102109248021092470213
:100B200010925D0210925E0210925F0210926002BB
:100B300030934E0220934D029093540280935302BF
:100B400045E050E0509356024093550246E050E095
:100B5000509358024093570247E050E050935A0296
:100B60004093590210925C0210925B0290935002E3
:100B700080934F021092280210922902109235029F
:100B80001092340210922B0210922A02109240020C
:100B900010924102109242021092430230933102AD
:100BA0002093300248E050E05093370240933602E1
:100BB00049E050E050933902409338024AE050E057
:100BC00050933B0240933A024BE050E050933D0279
:100BD00040933C0210923F0210923E0290933302E7
:100BE0008093320210920B0210920C0210921802A3
:100BF0001092170210920E0210920D021092230210
:100C000010922402109225021092260230931402B0
:100C1000209313022CE030E030931A022093190243
:100C20002DE030E030931C0220931B022EE030E0D8
:100C300030931E0220931D022FE030E030932002FB
:100C400020931F021092220210922102909316020A
:100C500080931502809103028C30A0F491E0980FEC
:100C6000909303028093070290E0FC01EE0FFF1FB8
:100C70008E0F9F1FFC01E152FE4F88EB9BE0928399
:100C8000818303C08FEF80930702809103028C3031
:100C9000A0F491E0980F909303028093040290E0F7
:100CA000FC01EE0FFF1F8E0F9F1FFC01E152FE4F54
:100CB00088EB9BE09283818308958FEF80930402F9
:100CC0000895789484B5826084BD84B5816084BDC4
:100CD00085B5826085BD85B5816085BD80916E00DA
:100CE000816080936E00109281008091810082600B
:100CF0008093810080918100816080938100809148
:100D000080008160809380008091B1008460809336
:100D1000B1008091B00081608093B00080917A0032
:100D2000846080937A0080917A00826080937A0058
:100D300080917A00816080937A0080917A00806847
:100D400080937A001092C1001092650110926701A1
:100D5000109266011092B0011092D2011092AE0171
:100D600081E08093AD011092880161E082E10E94F0
:100D70000A0161E083E10E940A018091B9008E7F3F
:100D80008093B9008091B9008D7F8093B90088E489
:100D90008093B80085E48093BC004FEF60E085E667
:100DA00091E00E9413024FEF61E085E691E00E941E
:100DB00013028CE08093B8006091650181E692E0B7
:100DC0000E94BC026091650184E492E00E94BC0232
:100DD0006091650187E292E00E94BC02609165012A
:100DE0008AE092E00E94BC0220916A0230916B027C
:100DF000032E000C440B550B812C87E8982E83E9B9
:100E0000A82E83E0B82EC501B4010E947A079AE0AB
:100E1000C92ED12CE12CF12CCA01B901A7019601F0
:100E20000E947A072093660230936702409368021B
:100E30005093690220914D0230914E02032E000C16
:100E4000440B550BC501B4010E947A07CA01B901D0
:100E5000A70196010E947A072093490230934A0223
:100E600040934B0250934C0220913002309131025A
:100E7000032E000C440B550BC501B4010E947A07E8
:100E8000CA01B901A70196010E947A0720932C029A
:100E900030932D0240932E0250932F022091130283
:100EA00030911402032E000C440B550BC501B40104
:100EB0000E947A07CA01B901A70196010E947A0728
:100EC00020930F02309310024093110250931202AC
:100ED000C0E0D0E02097F1F30E940000FBCFEE0FBE
:100EE000FF1F0590F491E02D099481E090E0F894C3
:100EF0000C94BB07052E97FB1EF400940E949107EB
:100F000057FD07D00E94990707FC03D04EF40C94BC
:100F1000910750954095309521953F4F4F4F5F4F2A
:100F2000089590958095709561957F4F8F4F9F4F55
:100F30000895A1E21A2EAA1BBB1BFD010DC0AA1F1A
:100F4000BB1FEE1FFF1FA217B307E407F50720F032
:100F5000A21BB30BE40BF50B661F771F881F991FAD
:100F60001A9469F760957095809590959B01AC01F6
:0A0F7000BD01CF010895F894FFCFF2
:100F7A000100000000000000E401B401AC01980186
:040F8A008901880150
:00000001FF
