:100000000C9462000C948A000C948A000C948A0070
:100010000C948A000C948A000C948A000C948A0038
:100020000C948A000C948A000C948A000C948A0028
:100030000C948A000C948A000C948A000C948A0018
:100040000C94C8040C948A000C948A000C948A00C6
:100050000C948A000C948A000C948A000C948A00F8
:100060000C9412050C948A00E603ED03F9030A04CC
:100070000C0413041F04300446044804000000006C
:10008000250028002B0004040404040404040202D4
:100090000202020203030303030301020408102007
:1000A0004080010204081020010204081020000012
:1000B0000008000201000003040700000000000027
:1000C0000000400611241FBECFEFD8E0DEBFCDBF39
:1000D00011E0A0E0B1E0ECE1F1E102C005900D9289
:1000E000A031B107D9F722E0A0E1B1E001C01D9233
:1000F000AE34B207E1F710E0C2E6D0E004C02197C9
:10010000FE010E944B08C136D107C9F70E94D906EB
:100110000C948C080C940000382F2091CD01909104
:10012000CC01213208F049C08091A9018111FCCF96
:1001300042E04093A9013093A8013FEF3093A7011B
:100140001092A6012093A501ACEAB1E045E851E088
:10015000FA013E2F341B321718F43D913193F9CF39
:100160001092840120918401990F922B9093840125
:1001700090918301913061F41092830190918401F8
:100180009093BB009091BC0093FDF8CF95EC01C01B
:1001900095EE9093BC009091A9019230E1F390917B
:1001A000A7019F3F79F08091A701803241F08091B3
:1001B000A701803331F084E005C081E003C082E014
:1001C00001C083E01092AB011092CD011092AA0100
:1001D000089590E0FC01E255FF4F2491FC01E656A2
:1001E000FF4F3491FC01EA57FF4FE491EE23B1F148
:1001F000222339F1233091F038F42130A9F0223054
:1002000001F584B58F7D12C0273091F02830A1F020
:100210002430B9F4809180008F7D03C080918000EC
:100220008F77809380000DC084B58F7784BD09C01F
:100230008091B0008F7703C08091B0008F7D809354
:10024000B000F0E0EE0FFF1FE458FF4FA591B4910E
:100250008FB7F894EC913E2B3C938FBF0895CF92CB
:10026000DF92EF92FF920F931F93CF93DF936C0176
:100270007A018B01C0E0D0E0CE15DF0589F0D8010E
:100280006D918D01D601ED91FC910190F081E02DF1
:10029000C6010995892B11F47E0102C02196ECCF8D
:1002A000C701DF91CF911F910F91FF90EF90DF90E9
:1002B000CF9008953FB7F89480917C0190917D0193
:1002C000A0917E01B0917F0126B5A89B05C02F3F6C
:1002D00019F00196A11DB11D3FBFBA2FA92F982F6C
:1002E0008827820F911DA11DB11DBC01CD0142E0E7
:1002F000660F771F881F991F4A95D1F7089585EDDE
:100300008093BC008091BC0084FDFCCF1092A901B9
:10031000089540913201262F30E0240F311D213203
:100320003105DCF42091A9012430C9F4FC0180E0FE
:1003300090E0861758F4309132012191DC01A05FE2
:10034000BE4FA30FB11D2C930196F3CF80913201C4
:10035000680F6093320180E0089581E0089582E0A3
:1003600008950895E091810180918001E81730F4AB
:10037000F0E0E95AFE4F808190E008958FEF9FEF03
:1003800008959091810180918001981750F4E92F90
:10039000F0E0E95AFE4F208130E09F5F90938101A9
:1003A00002C02FEF3FEFC90108958091800190E0D6
:1003B00020918101821B91090895CF92DF92EF92E3
:1003C000FF920F931F93CF93DF937C01262F972FDC
:1003D0008A018091AA01882391F0C62FD72F6E0140
:1003E000C40ED51ECC15DD0571F06991D701ED91D4
:1003F000FC910190F081E02DC7010995F3CF642FA6
:10040000822F0E948901C801DF91CF911F910F9126
:10041000FF90EF90DF90CF900895CF93DF931F92DE
:10042000CDB7DEB769832091AA012223D1F02091B4
:10043000CD01203240F021E030E0FC013383228303
:1004400080E090E015C08091AB01E82FF0E0E4552A
:10045000FE4F998190838F5F8093AB018093CD0194
:1004600005C061E0CE0101960E94890181E090E023
:100470000F90DF91CF910895CF93DF931F92CDB767
:10048000DEB7FC018081806291E09093AA018093A5
:10049000CC011092AB011092CD018EEC91E049831A
:1004A0000E940D024981642F8EEC91E00E940D02A2
:1004B00081E00F90DF91CF910C948C000E9487080F
:1004C000CF93DF93EC019881906281E08093AA0141
:1004D0009093CC011092AB011092CD018EEC91E083
:1004E0000E940D0281E00E948C0088819091A901F8
:1004F0009111FCCF91E09093A9019093A8012FEF67
:100500002093A7011092A6011092A5019093840157
:10051000909184018062880F892B8093840180915F
:100520008301813061F41092830180918401809372
:10053000BB008091BC0083FDF8CF85EC01C085EE47
:100540008093BC008091A9018130E1F38091A601E4
:10055000811103C08091A60101C081E0A5E8B1E04E
:1005600027E531E0F9019E2F921B981718F49D9111
:100570009193F9CF10928101809380018EEC91E0EC
:100580000E94C101DF91CF9108950F931F93CF93E4
:10059000DF93EC0189818823F1F001E0683008F4F1
:1005A00000E0162F602FCE010E946002912F9770FD
:1005B00041E050E060E070E004C0440F551F661F4A
:1005C000771F9A95D2F740954823602FCE010E945D
:1005D0003C0281E08A83DF91CF911F910F910895B2
:1005E000CF93DF93EC01688381E089838B859C85C1
:1005F0008530910591F46F85CE010E94C50269890D
:10060000CE010E94C5026B89CE010E94C5026D8990
:10061000CE010E94C5026F8918C08430910571F423
:100620006F85CE010E94C5026989CE010E94C50274
:100630006B89CE010E94C5026D8907C0029751F4F3
:100640006F85CE010E94C5026989CE01DF91CF91ED
:100650000C94C502DF91CF910895FF920F931F93E1
:10066000CF93DF93EC018981882361F1862F877016
:10067000F82E683010F095E101C094E1142F062F98
:10068000692FCE010E94600241E050E060E070E01E
:1006900004C0440F551F661F771FFA94D2F7112329
:1006A00011F0482B02C040954823083010F063E158
:1006B00001C062E1CE01DF91CF911F910F91FF90B8
:1006C0000C943C02DF91CF911F910F91FF90089500
:1006D0000F931F93CF93DF93EC018B018B859C8548
:1006E000029709F56130710569F024F4672BD9F49C
:1006F00040E009C06230710561F06330710599F422
:1007000040E008C041E06F85CE010E942D0341E02A
:1007100006C041E06F85CE010E942D0340E069894B
:10072000CE010E942D038B859C85049709F040C063
:1007300001301105C1F054F401151105C9F541E06E
:100740006F85CE010E942D0340E013C002301105D9
:10075000D9F00330110561F541E06F85CE010E94AB
:100760002D0340E017C040E06F85CE010E942D03AD
:1007700041E06989CE010E942D0341E06B89CE01E1
:100780000E942D0340E010C040E06F85CE010E9422
:100790002D0341E06989CE010E942D0340E06B8961
:1007A000CE010E942D0341E06D89CE010E942D03F0
:1007B0008B859C85059709F088C00A30110508F0E3
:1007C00084C0F801EC5CFF4F0C944B0840E06F854F
:1007D000CE010E942D0341E061C040E06F85CE0153
:1007E0000E942D0341E06989CE010E942D0340E063
:1007F0005AC040E06F85CE010E942D0341E0698917
:10080000CE010E942D0340E06B89CE010E942D0392
:1008100041E04EC040E001C041E06F85CE010E9442
:100820002D0341E006C041E06F85CE010E942D03FB
:1008300040E06989CE010E942D0340E00BC041E0F9
:100840006F85CE010E942D0340E06989CE010E9490
:100850002D0341E06B89CE010E942D0341E010C0C1
:1008600041E06F85CE010E942D0340E06989CE01F1
:100870000E942D0341E06B89CE010E942D0340E0D0
:100880006D89CE010E942D0340E017C041E001C0F8
:1008900040E06F85CE010E942D0340E06989CE01C2
:1008A0000E942D0341E06B89CE010E942D0340E0A0
:1008B0006D89CE010E942D0341E06F89CE01DF9149
:1008C000CF911F910F910C942D03DF91CF911F9128
:1008D0000F910895CF92DF92EF92FF920F931F93A3
:1008E000CF93DF93EC0181E090E09C838B830E94A7
:1008F0005A01098D1A8D2B8D3C8D6B017C01C01A1C
:10090000D10AE20AF30A0D811E812F813885C016B3
:10091000D106E206F30658F3698F7A8F8B8F9C8F8E
:100920002B813C818D859E852130310569F0892B95
:1009300031F08D859E8501979E878D870FC08985B3
:100940009A859E878D87F5CF01969E878D8729850D
:100950003A858217930711F41E861D862B853C85E8
:100960008D859E852530310519F064E070E002C068
:100970006AE070E00E941808BC01CE01DF91CF91BF
:100980001F910F91FF90EF90DF90CF900C94680330
:100990001F920F920FB60F9211242F933F938F93B4
:1009A0009F93AF93BF938091780190917901A0912B
:1009B0007A01B0917B013091770123E0230F2D372D
:1009C00020F40196A11DB11D05C026E8230F029653
:1009D000A11DB11D20937701809378019093790137
:1009E000A0937A01B0937B0180917C0190917D016D
:1009F000A0917E01B0917F010196A11DB11D809350
:100A00007C0190937D01A0937E01B0937F01BF9103
:100A1000AF919F918F913F912F910F900FBE0F90AB
:100A20001F9018951F920F920FB60F9211242F93BB
:100A30003F934F935F936F937F938F939F93AF9366
:100A4000BF93EF93FF938091B900887F803609F4BC
:100A50009CC068F5883209F45BC090F4803109F4D9
:100A600054C038F4882309F4F6C0883009F44DC026
:100A7000F6C0883109F44CC0803209F45DC0EFC083
:100A8000803409F468C048F4803309F455C08833D1
:100A900009F0E5C08093A701D8C0803509F44FC0A4
:100AA000883509F45DC0883409F0D9C0D6C08839CA
:100AB00009F4C7C0A8F4883709F467C038F4883649
:100AC00009F463C0803709F460C0C9C0883809F4EC
:100AD000B8C0803909F45FC0803809F0C0C05BC07D
:100AE000803B09F486C038F4803A09F466C0883A3D
:100AF00009F47FC0B4C0803C09F4A7C0883C09F465
:100B0000A4C0883B09F48AC0AAC08091840110C0A7
:100B10009091A6018091A501981770F5E091A6012A
:100B200081E08E0F8093A601F0E0EB57FE4F8081AD
:100B30008093BB0085EC86C08093A7018EC0E091B6
:100B4000A60181E08E0F8093A6018091BB00F0E0AA
:100B5000EB57FE4F80839091A6018091A5016EC056
:100B6000E091A60181E08E0F8093A6018091BB00E9
:100B7000F0E0EB57FE4F80838091A80181116DC09A
:100B800081E08093830184EA61C083E08093A901BE
:100B900010925601CFCF80915601803208F051C09B
:100BA000E091560181E08E0F809356018091BB0049
:100BB000F0E0EA5CFE4F8083BDCF85EC8093BC0003
:100BC0001092A90180915601803230F4E0915601D3
:100BD000F0E0EA5CFE4F10826091560170E0E09117
:100BE0003401F091350186E391E0099510925601A8
:100BF00036C084E08093A901109233011092320133
:100C0000E0913001F091310109958091320181111B
:100C100005C081E08093320110921001E091330110
:100C200081E08E0F80933301F0E0E05FFE4F808122
:100C30008093BB009091330180913201981708F4A2
:100C400079CF85E88093BC000AC085EC8093BC0016
:100C50001092A90104C01092A7010E947F01FF9188
:100C6000EF91BF91AF919F918F917F916F915F9124
:100C70004F913F912F910F900FBE0F901F9018959D
:100C8000EEECF1E01382128288EE93E0A0E0B0E097
:100C900084839583A683B78384E091E091838083E6
:100CA000E1E3F2E011821282168615861482138225
:100CB000118E128E138E148E28EC30E0328721872D
:100CC000108A178681E090E0928B818B82E090E021
:100CD000948B838B83E090E0968B858B108E178AA4
:100CE00084E090E094878387E4E1F2E0118212824D
:100CF0001686158614821382118E128E138E148E10
:100D000032872187908B878745E050E0528B418B5B
:100D100046E050E0548B438B47E050E0568B458BC8
:100D2000108E178A94878387E7EFF1E01182128291
:100D30001686158614821382118E128E138E148ECF
:100D40003287218748E050E0508B478749E050E0E8
:100D5000528B418B4AE050E0548B438B4BE050E088
:100D6000568B458B108E178A94878387EAEDF1E0C6
:100D7000118212821686158614821382118E128EAB
:100D8000138E148E328721872CE030E0308B27873A
:100D90002DE030E0328B218B2EE030E0348B238B42
:100DA0002FE030E0368B258B108E178A948783874F
:100DB0000895789484B5826084BD84B5816084BDD3
:100DC00085B5826085BD85B5816085BD80916E00E9
:100DD000816080936E00109281008091810082601A
:100DE0008093810080918100816080938100809157
:100DF00080008160809380008091B1008460809346
:100E0000B1008091B00081608093B00080917A0041
:100E1000846080937A0080917A00826080937A0067
:100E200080917A00816080937A0080917A00806856
:100E300080937A001092C100109282011092810179
:100E4000109280011092AB011092CD011092A90175
:100E500081E08093A8011092830182E10E94E90061
:100E600083E10E94E9008091B9008E7F8093B900F0
:100E70008091B9008D7F8093B90088E48093B80099
:100E800085E48093BC004FEF60E082E891E00E942F
:100E90003C024FEF61E082E891E00E943C026091E9
:100EA000820181E392E00E94F0026091820184E17C
:100EB00092E00E94F0026091820187EF91E00E942F
:100EC000F002609182018AED91E00E94F00220918F
:100ED0003A0230913B02032E000C440B550B812C3F
:100EE00097E8992E93E9A92E93E0B92EC501B40194
:100EF0000E942C086AE0C62ED12CE12CF12CCA01EC
:100F0000B901A70196010E942C0820933602309364
:100F10003702409338025093390220911D023091DC
:100F20001E02032E000C440B550BC501B4010E9498
:100F30002C08CA01B901A70196010E942C08209330
:100F4000190230931A0240931B0250931C02209105
:100F5000000230910102032E000C440B550BC50119
:100F6000B4010E942C08CA01B901A70196010E9490
:100F70002C082093FC013093FD014093FE01509317
:100F8000FF012091E3013091E401032E000C440B9A
:100F9000550BC501B4010E942C08CA01B901A70173
:100FA00096010E942C082093DF013093E0014093CA
:100FB000E1015093E201C0E0D0E081E392E00E94C1
:100FC0006A0484E192E00E946A0487EF91E00E9443
:100FD0006A048AED91E00E946A040E945A014B0162
:100FE0005C018AE0C82ED12CE12CF12C0E945A0120
:100FF000DC01CB0188199909AA09BB09883E9340F5
:10100000A105B10558F021E0C21AD108E108F108A4
:1010100088EE880E83E0981EA11CB11CC114D10477
:10102000E104F10419F7209741F20E940000C5CFB6
:1010300097FB072E16F4009407D077FD09D00E9485
:10104000510807FC05D03EF4909581959F4F089577
:10105000709561957F4F0895052E97FB1EF40094BF
:101060000E94430857FD07D00E94650807FC03D083
:101070004EF40C94430850954095309521953F4F80
:101080004F4F5F4F089590958095709561957F4F74
:101090008F4F9F4F0895EE0FFF1F0590F491E02DA5
:1010A0000994AA1BBB1B51E107C0AA1FBB1FA617AF
:1010B000B70710F0A61BB70B881F991F5A95A9F701
:1010C00080959095BC01CD010895A1E21A2EAA1B2E
:1010D000BB1BFD010DC0AA1FBB1FEE1FFF1FA217E8
:1010E000B307E407F50720F0A21BB30BE40BF50BE5
:1010F000661F771F881F991F1A9469F7609570956E
:10110000809590959B01AC01BD01CF01089581E0D0
:0C11100090E0F8940C948C08F894FFCF49
:10111C00000000000D02DD01D501C101B201B101D9
:107E0000112484B714BE81FFF0D085E080938100F7
:107E100082E08093C00088E18093C10086E0809377
:107E2000C20080E18093C4008EE0C9D0259A86E02C
:107E300020E33CEF91E0309385002093840096BBD3
:107E4000B09BFECF1D9AA8958150A9F7CC24DD24C4
:107E500088248394B5E0AB2EA1E19A2EF3E0BF2EE7
:107E6000A2D0813461F49FD0082FAFD0023811F036
:107E7000013811F484E001C083E08DD089C08234E0
:107E800011F484E103C0853419F485E0A6D080C0E4
:107E9000853579F488D0E82EFF2485D0082F10E0AE
:107EA000102F00270E291F29000F111F8ED06801E7
:107EB0006FC0863521F484E090D080E0DECF843638
:107EC00009F040C070D06FD0082F6DD080E0C81688
:107ED00080E7D80618F4F601B7BEE895C0E0D1E017
:107EE00062D089930C17E1F7F0E0CF16F0E7DF06D8
:107EF00018F0F601B7BEE89568D007B600FCFDCFD4
:107F0000A601A0E0B1E02C9130E011968C91119780
:107F100090E0982F8827822B932B1296FA010C0160
:107F200087BEE89511244E5F5F4FF1E0A038BF0790
:107F300051F7F601A7BEE89507B600FCFDCF97BE46
:107F4000E89526C08437B1F42ED02DD0F82E2BD052
:107F50003CD0F601EF2C8F010F5F1F4F84911BD097
:107F6000EA94F801C1F70894C11CD11CFA94CF0C13
:107F7000D11C0EC0853739F428D08EE10CD085E9AC
:107F80000AD08FE07ACF813511F488E018D01DD067
:107F900080E101D065CF982F8091C00085FFFCCF94
:107FA0009093C60008958091C00087FFFCCF809118
:107FB000C00084FD01C0A8958091C6000895E0E648
:107FC000F0E098E1908380830895EDDF803219F02E
:107FD00088E0F5DFFFCF84E1DECF1F93182FE3DFCA
:107FE0001150E9F7F2DF1F91089580E0E8DFEE27F6
:047FF000FF270994CA
:027FFE00040479
:0400000300007E007B
:00000001FF