:100000000C9462000C948A000C948A000C948A0070
:100010000C948A000C948A000C948A000C948A0038
:100020000C948A000C948A000C948A000C948A0028
:100030000C948A000C948A000C948A000C948A0018
:100040000C9417030C948A000C9486020C946002A2
:100050000C948A000C948A000C948A000C948A00F8
:100060000C9425050C948A00A104A804B404C504CA
:10007000C704CE04DA04EB04010503050000000008
:10008000250028002B0004040404040404040202D4
:100090000202020203030303030301020408102007
:1000A0004080010204081020010204081020000012
:1000B0000008000201000003040700000000000027
:1000C0000000AD0A11241FBECFEFD8E0DEBFCDBFC8
:1000D00011E0A0E0B1E0ECEEF7E102C005900D9276
:1000E000A634B107D9F723E0A6E4B1E001C01D9220
:1000F000A137B207E1F710E0C2E6D0E004C02197D3
:10010000FE010E94B30BC136D107C9F70E9408084F
:100110000C94F40B0C940000FC01918D828D9817C7
:1001200061F0828DDF01A80FB11D5D968C91928DDB
:100130009F5F9F73928F90E008958FEF9FEF0895D8
:10014000FC01918D828D981731F0828DE80FF11DA1
:10015000858D90E008958FEF9FEF0895FC01918DBC
:10016000228D892F90E0805C9F4F821B91098F73B5
:10017000992708958CE092E00E94AE0021E0892B3F
:1001800009F420E0822F0895FC01848DDF01A80F7F
:10019000B11DA35ABF4F2C91848D90E001968F73AF
:1001A0009927848FA689B7892C93A089B1898C91CE
:1001B00080648C93938D848D981306C00288F38994
:1001C000E02D80818F7D80830895EF92FF920F93C1
:1001D0001F93CF93DF93EC0181E0888F9B8D8C8DF3
:1001E000981305C0E889F989808185FD24C0F62E21
:1001F0000B8D10E00F5F1F4F0F731127E02E8C8DBA
:10020000E8120CC00FB607FCFACFE889F9898081A3
:1002100085FFF5CFCE010E94C400F1CF8B8DFE018A
:10022000E80FF11DE35AFF4FF0820B8FEA89FB893B
:100230008081806207C0EE89FF896083E889F9893F
:1002400080818064808381E090E0DF91CF911F9175
:100250000F91FF90EF900895CF93DF93EC01888D7D
:100260008823C9F0EA89FB89808185FD05C0A889BA
:10027000B9898C9186FD0FC00FB607FCF5CF808140
:1002800085FFF2CFA889B9898C9185FFEDCFCE018A
:100290000E94C400E7CFDF91CF91089580E090E005
:1002A000892B29F00E94BA0081110C940000089556
:1002B0002FB7F8946091AE017091AF018091B001B9
:1002C0009091B1012FBF089585ED8093BC0080917E
:1002D000BC0084FDFCCF1092E701089540916801B5
:1002E000262F30E0240F311D21323105DCF420911E
:1002F000E7012430C9F4FC0180E090E0861758F44F
:10030000309168012191DC01AA5BBE4FA30FB11DA2
:100310002C930196F3CF80916801680F6093680178
:1003200080E0089581E0089582E008950895E091C5
:10033000B7018091B601E81730F4F0E0E357FE4FC3
:10034000808190E008958FEF9FEF08959091B7011D
:100350008091B601981750F4E92FF0E0E357FE4F73
:10036000208130E09F5F9093B70102C02FEF3FEFF5
:10037000C90108958091B60190E02091B701821BD8
:1003800091090895CF92DF92EF92FF920F931F93FE
:10039000CF93DF937C01262F972F8A018091E8016C
:1003A000882391F0C62FD72F6E01C40ED51ECC1511
:1003B000DD0571F06991D701ED91FC910190F0811B
:1003C000E02DC7010995F3CF642F822F0E946E01A3
:1003D000C801DF91CF911F910F91FF90EF90DF90B7
:1003E000CF900895CF93DF931F92CDB7DEB7698387
:1003F0002091E8012223D1F020910B02203240F01D
:1004000021E030E0FC013383228380E090E015C0DE
:100410008091E901E82FF0E0E651FE4F9981908349
:100420008F5F8093E90180930B0205C061E0CE01EC
:1004300001960E946E0181E090E00F90DF91CF91D4
:1004400008950E94CD0BCF93DF93EC01688381E088
:1004500089838B859C858530910591F46F85CE01CC
:100460000E94DB066989CE010E94DB066B89CE0102
:100470000E94DB066D89CE010E94DB066F8918C0E1
:100480008430910571F46F85CE010E94DB06698985
:10049000CE010E94DB066B89CE010E94DB066D89CE
:1004A00007C0029751F46F85CE010E94DB0669896F
:1004B000CE01DF91CF910C94DB06DF91CF910895AF
:1004C0001F920F920FB60F9211242F933F934F93C9
:1004D0005F936F937F938F939F93AF93BF93EF93AC
:1004E000FF938CE092E00E94C400FF91EF91BF91D6
:1004F000AF919F918F917F916F915F914F913F91BC
:100500002F910F900FBE0F901F9018951F920F9272
:100510000FB60F9211242F938F939F93EF93FF9316
:10052000E0911C02F0911D028081E0912202F09185
:10053000230282FD12C09081809125028F5F8F730C
:1005400020912602821751F0E0912502F0E0E45F4D
:10055000FD4F958F8093250201C08081FF91EF911F
:100560009F918F912F910F900FBE0F901F90189514
:100570003FB7F8948091B2019091B301A091B4017A
:10058000B091B50126B5A89B05C02F3F19F0019683
:10059000A11DB11D3FBFBA2FA92F982F8827820F09
:1005A000911DA11DB11DBC01CD0142E0660F771F59
:1005B000881F991F4A95D1F708958F929F92AF9205
:1005C000BF92CF92DF92EF92FF926B017C010E946B
:1005D000B8024B015C01C114D104E104F104F1F053
:1005E0000E94B802DC01CB0188199909AA09BB094C
:1005F000883E9340A105B10570F321E0C21AD108ED
:10060000E108F10888EE880E83E0981EA11CB11C59
:10061000C114D104E104F10419F7DDCFFF90EF908C
:10062000DF90CF90BF90AF909F908F9008951F92D2
:100630000F920FB60F9211242F933F938F939F9396
:10064000AF93BF938091AE019091AF01A091B001A3
:10065000B091B1013091AD0123E0230F2D3720F48B
:100660000196A11DB11D05C026E8230F0296A11D0C
:10067000B11D2093AD018093AE019093AF01A09383
:10068000B001B093B1018091B2019091B301A091FA
:10069000B401B091B5010196A11DB11D8093B201C5
:1006A0009093B301A093B401B093B501BF91AF9102
:1006B0009F918F913F912F910F900FBE0F901F90A0
:1006C0001895CF93DF931F92CDB7DEB7FC018081E1
:1006D000806291E09093E80180930A021092E90110
:1006E00010920B0281EF92E049830E94F20149814E
:1006F000642F81EF92E00E94F20181E00F90DF9180
:10070000CF910C947E06CF93DF93EC019881906299
:1007100081E08093E80190930A021092E90110921F
:100720000B0281EF92E00E94F20181E00E947E06BE
:1007300088819091E7019111FCCF91E09093E701BE
:100740009093E6012FEF2093E5011092E4011092BF
:10075000E3019093C2019091C2018062880F892BBE
:100760008093C2018091C101813061F41092C10176
:100770008091C2018093BB008091BC0083FDF8CFC3
:1007800085EC01C085EE8093BC008091E70181304B
:10079000E1F38091E401811103C08091E40101C083
:1007A00081E0A3ECB1E02DE831E0F9019E2F921B2E
:1007B000981718F49D919193F9CF1092B7018093F7
:1007C000B60181EF92E00E94A601DF91CF910895DA
:1007D000FF920F931F93CF93DF93EC0189818823BE
:1007E00061F1862F8770F82E683010F095E101C016
:1007F00094E1142F062F692FCE010E94830341E05C
:1008000050E060E070E004C0440F551F661F771F82
:10081000FA94D2F7112311F0482B02C040954823D7
:10082000083010F063E101C062E1CE01DF91CF91A9
:100830001F910F91FF900C946103DF91CF911F9155
:100840000F91FF9008950F931F93CF93DF93EC01C7
:100850008B018B859C85029709F56130710569F0E4
:1008600024F4672BD9F440E009C06230710561F0CF
:100870006330710599F440E008C041E06F85CE0116
:100880000E94E80341E006C041E06F85CE010E946E
:10089000E80340E06989CE010E94E8038B859C85CE
:1008A000049709F040C001301105C1F054F401155E
:1008B0001105C9F541E06F85CE010E94E80340E0D3
:1008C00013C002301105D9F00330110561F541E084
:1008D0006F85CE010E94E80340E017C040E06F85BD
:1008E000CE010E94E80341E06989CE010E94E8033D
:1008F00041E06B89CE010E94E80340E010C040E077
:100900006F85CE010E94E80341E06989CE010E9413
:10091000E80340E06B89CE010E94E80341E06D8965
:10092000CE010E94E8038B859C85059709F088C05D
:100930000A30110508F084C0F801EC5CFF4F0C94FC
:10094000B30B40E06F85CE010E94E80341E061C037
:1009500040E06F85CE010E94E80341E06989CE0145
:100960000E94E80340E05AC040E06F85CE010E943B
:10097000E80341E06989CE010E94E80340E06B8909
:10098000CE010E94E80341E04EC040E001C041E0DA
:100990006F85CE010E94E80341E006C041E06F850B
:1009A000CE010E94E80340E06989CE010E94E8037D
:1009B00040E00BC041E06F85CE010E94E80340E0BB
:1009C0006989CE010E94E80341E06B89CE010E9453
:1009D000E80341E010C041E06F85CE010E94E803CA
:1009E00040E06989CE010E94E80341E06B89CE01B5
:1009F0000E94E80340E06D89CE010E94E80340E0D8
:100A000017C041E001C040E06F85CE010E94E803BD
:100A100040E06989CE010E94E80341E06B89CE0184
:100A20000E94E80340E06D89CE010E94E80341E0A6
:100A30006F89CE01DF91CF911F910F910C94E80344
:100A4000DF91CF911F910F9108951F920F920FB6D2
:100A50000F9211242F933F934F935F936F937F9344
:100A60008F939F93AF93BF93EF93FF938091B900C0
:100A7000887F803609F49CC068F5883209F45BC031
:100A800090F4803109F454C038F4882309F4F6C096
:100A9000883009F44DC0F6C0883109F44CC080326A
:100AA00009F45DC0EFC0803409F468C048F48033B5
:100AB00009F455C0883309F0E5C08093E501D8C03A
:100AC000803509F44FC0883509F45DC0883409F0D9
:100AD000D9C0D6C0883909F4C7C0A8F4883709F44A
:100AE00067C038F4883609F463C0803709F460C001
:100AF000C9C0883809F4B8C0803909F45FC08038AB
:100B000009F0C0C05BC0803B09F486C038F4803A6D
:100B100009F466C0883A09F47FC0B4C0803C09F487
:100B2000A7C0883C09F4A4C0883B09F48AC0AAC0C5
:100B30008091C20110C09091E4018091E301981767
:100B400070F5E091E40181E08E0F8093E401F0E024
:100B5000ED53FE4F80818093BB0085EC86C080936F
:100B6000E5018EC0E091E40181E08E0F8093E40105
:100B70008091BB00F0E0ED53FE4F80839091E40143
:100B80008091E3016EC0E091E40181E08E0F8093DB
:100B9000E4018091BB00F0E0ED53FE4F8083809133
:100BA000E60181116DC081E08093C10184EA61C0DA
:100BB00083E08093E70110928C01CFCF80918C016C
:100BC000803208F051C0E0918C0181E08E0F80935B
:100BD0008C018091BB00F0E0E459FE4F8083BDCFD3
:100BE00085EC8093BC001092E70180918C018032EB
:100BF00030F4E0918C01F0E0E459FE4F10826091F6
:100C00008C0170E0E0916A01F0916B018CE691E05B
:100C1000099510928C0136C084E08093E701109210
:100C2000690110926801E0916601F09167010995F0
:100C300080916801811105C081E080936801109264
:100C40004601E091690181E08E0F80936901F0E037
:100C5000EA5BFE4F80818093BB0090916901809197
:100C60006801981708F479CF85E88093BC000AC022
:100C700085EC8093BC001092E70104C01092E5015E
:100C80000E946401FF91EF91BF91AF919F918F916D
:100C90007F916F915F914F913F912F910F900FBE78
:100CA0000F901F901895CF92DF92EF92FF920F93C3
:100CB0001F93CF93DF936C017A018B01C0E0D0E0EA
:100CC000CE15DF0589F0D8016D918D01D601ED912A
:100CD000FC910190F081E02DC6010995892B11F45A
:100CE0007E0102C02196ECCFC701DF91CF911F9109
:100CF0000F91FF90EF90DF90CF900895382F2091C3
:100D00000B0290910A02213208F049C08091E7015C
:100D10008111FCCF42E04093E7013093E6013FEFC1
:100D20003093E5011092E4012093E301AAEEB1E0D3
:100D300043EC51E0FA013E2F341B321718F43D9179
:100D40003193F9CF1092C2012091C201990F922BD9
:100D50009093C2019091C101913061F41092C10150
:100D60009091C2019093BB009091BC0093FDF8CF8D
:100D700095EC01C095EE9093BC009091E701923004
:100D8000E1F39091E5019F3F79F08091E501803298
:100D900041F08091E501803331F084E005C081E0CD
:100DA00003C082E001C083E01092E90110920B02BF
:100DB0001092E80108950F931F93CF93DF93EC01F6
:100DC00089818823F1F001E0683008F400E0162FF3
:100DD000602FCE010E948303912F977041E050E075
:100DE00060E070E004C0440F551F661F771F9A959E
:100DF000D2F740954823602FCE010E94610381E025
:100E00008A83DF91CF911F910F91089590E0FC01AB
:100E1000E255FF4F2491FC01E656FF4F3491FC014F
:100E2000EA57FF4FE491EE23B1F1222339F1233049
:100E300091F038F42130A9F0223001F584B58F7D8E
:100E400012C0273091F02830A1F02430B9F48091FD
:100E500080008F7D03C0809180008F778093800019
:100E60000DC084B58F7784BD09C08091B0008F77A5
:100E700003C08091B0008F7D8093B000F0E0EE0F52
:100E8000FF1FE458FF4FA591B4918FB7F894EC91F0
:100E90003E2B3C938FBF0895CF92DF92EF92FF924B
:100EA0000F931F93CF93DF93EC0181E090E09C833D
:100EB0008B830E94B802098D1A8D2B8D3C8D6B019E
:100EC0007C01C01AD10AE20AF30A0D811E812F812A
:100ED0003885C016D106E206F30658F3698F7A8F7B
:100EE0008B8F9C8F2B813C818D859E852130310598
:100EF00069F0892B31F08D859E8501979E878D87BE
:100F00000FC089859A859E878D87F5CF01969E872C
:100F10008D8729853A858217930711F41E861D86D1
:100F20002B853C858D859E852530310519F064E043
:100F300070E002C06AE070E00E94800BBC01CE014C
:100F4000DF91CF911F910F91FF90EF90DF90CF90A5
:100F50000C9423046115710579F0FB0101900020C8
:100F6000E9F73197AF01461B570BDC01ED91FC917E
:100F70000280F381E02D099480E090E008954F9283
:100F80005F926F927F92EF92FF920F931F93CF9396
:100F9000DF93CDB7DEB7A1970FB6F894DEBF0FBED3
:100FA000CDBF7C01FA01CB0119A2223008F42AE05E
:100FB0008E010F5D1F4F422E512C612C712CBF01F1
:100FC000A30192010E94D20BF901CA01015011093B
:100FD0006A3014F4605D01C0695CD8016C93232B06
:100FE000242B252B61F7B801C7010E94AA07A196FF
:100FF0000FB6F894DEBF0FBECDBFDF91CF911F912A
:101000000F91FF90EF907F906F905F904F900895B9
:10101000789484B5826084BD84B5816084BD85B5D3
:10102000826085BD85B5816085BD80916E008160DF
:1010300080936E0010928100809181008260809385
:101040008100809181008160809381008091800087
:101050008160809380008091B10084608093B100B2
:101060008091B00081608093B00080917A008460AC
:1010700080937A0080917A00826080937A008091D8
:101080007A00816080937A0080917A0080688093F2
:101090007A001092C1001092ED021092EE021092AE
:1010A000EF021092F0021092AB021092AC0210927A
:1010B000AD021092AE0260ED77E080E090E00E9419
:1010C000DD028CE092E09093EC028093EB02E091E1
:1010D0001C02F0911D0282E08083E0911802F091E1
:1010E00019021082E0911A02F0911B0280E18083C4
:1010F00010922402E0912002F091210286E0808388
:10110000E0911E02F0911F02808180618083E09156
:101110001E02F0911F02808188608083E0911E0290
:10112000F0911F02808180688083E0911E02F0911F
:101130001F0280818F7D80830E9458016093AB02E3
:101140007093AC028093AD029093AE0260E271E0C6
:101150008091EB029091EC020E94AA076AE070E095
:1011600080E090E00E94DD0281E08093BF02109257
:10117000B8011092B7011092B6011092E9011092D5
:101180000B021092E7018093E6011092C10182E107
:101190000E94060783E10E9406078091B9008E7FB6
:1011A0008093B9008091B9008D7F8093B90088E465
:1011B0008093B80085E48093BC004FEF60E088EB3B
:1011C00091E00E9461034FEF61E088EB91E00E94A3
:1011D00061036091B80184E593E00E94230260916D
:1011E000B80187E393E00E9423026091B8018AE18D
:1011F00093E00E9423026091B8018DEF92E00E947B
:10120000230220915D0330915E03032E000C440BFA
:10121000550B812C87E8982E83E9A82E83E0B82E01
:10122000C501B4010E94940B9AE0C92ED12CE12C87
:10123000F12CCA01B901A70196010E94940B2093D9
:10124000590330935A0340935B0350935C032091FE
:10125000400330914103032E000C440B550BC50194
:10126000B4010E94940BCA01B901A70196010E9422
:10127000940B20933C0330933D0340933E035093E3
:101280003F032091230330912403032E000C440BD1
:10129000550BC501B4010E94940BCA01B901A70105
:1012A00096010E94940B20931F03309320034093D8
:1012B0002103509322032091060330910703032E4C
:1012C000000C440B550BC501B4010E94940BCA01DC
:1012D000B901A70196010E94940B20930203309359
:1012E0000303409304035093050324EF822E9924B3
:1012F0009394A12CB12C0E945801672B682B692B69
:1013000041F40E945801623071058105910508F48D
:101310000BC10E9458016093BD017093BE01809380
:10132000BF019093C001C090B901D090BA01E09084
:10133000BB01F090BC016C157D058E059F0540F446
:101340006093B9017093BA018093BB019093BC0183
:10135000C090B901D090BA01E090BB01F090BC01FF
:101360009B01AC012C193D094E095F0969017A0105
:101370003AEFC316D104E104F10408F4D5C0609338
:10138000B9017093BA018093BB019093BC01809224
:10139000B7029092B802A092B902B092BA0210922B
:1013A000BB021092BC021092BD021092BE0280914C
:1013B000AF029091B002A091B102B091B2028093BD
:1013C000B3029093B402A093B502B093B6020E9408
:1013D00058016093AF027093B0028093B102909372
:1013E000B2020E9458016093AB027093AC028093EA
:1013F000AD029093AE020E9458016B017C0162E342
:1014000071E08091EB029091EC020E94AA072AE021
:1014100041E050E060E070E08091EB029091EC02DE
:101420000E94BF0769E371E08091EB029091EC02AA
:101430000E94AA072AE0B701A6018091EB029091D1
:10144000EC020E94BF076BE371E08091EB02909188
:10145000EC020E94AA078091AF029091B002A09185
:10146000B102B091B202B701A601481B590B6A0B39
:101470007B0B2AE08091EB029091EC020E94BF0767
:101480006BE371E08091EB029091EC020E94AA075D
:101490004091AF025091B0026091B1027091B202DE
:1014A0008091B3029091B402A091B502B091B602BE
:1014B000481B590B6A0B7B0B2AE08091EB02909141
:1014C000EC020E94BF076DE371E08091EB02909106
:1014D000EC020E94AA070E945801AB01BC012AE05D
:1014E0008091EB029091EC020E94BF07E090EB022A
:1014F000F090EC026FE371E0C7010E94AA076FE26F
:1015000071E0C7010E94AA0765E070E080E090E00A
:101510000E94DD020E9458016093AF027093B002F6
:101520008093B1029093B20284E593E00E944C074D
:1015300087E393E00E944C078AE193E00E944C0706
:101540008DEF92E00E944C076AE070E080E090E04E
:101550000E94DD020E944E01CECEECE0F2E013824A
:10156000128288EE93E0A0E0B0E084839583A683A6
:10157000B78324E031E03183208325EC30E03587E8
:10158000248724EC30E03787268720EC30E0318B4D
:10159000208B21EC30E0338B228B22EC30E0358B3A
:1015A000248B26EC30E0378B268B118E128E138E17
:1015B000148EE9EAF2E016821782108611861286EE
:1015C00013861486158616861786108A118A128A43
:1015D000138A148A158AE1EFF2E01382128284835F
:1015E0009583A683B78384E191E091838083E4E5CA
:1015F000F3E0118212821686158614821382118EF0
:10160000128E138E148E28EC30E032872187108AD8
:10161000178681E090E0928B818B82E090E0948B42
:10162000838B83E090E0968B858B108E178A84E005
:1016300090E094878387E7E3F3E0118212821686B5
:10164000158614821382118E128E138E148E328799
:101650002187908B878745E050E0528B418B46E095
:1016600050E0548B438B47E050E0568B458B108EF7
:10167000178A94878387EAE1F3E011821282168643
:10168000158614821382118E128E138E148E328759
:10169000218748E050E0508B478749E050E0528B6B
:1016A000418B4AE050E0548B438B4BE050E0568B2B
:1016B000458B108E178A94878387EDEFF2E01182B5
:1016C00012821686158614821382118E128E138E44
:1016D000148E328721872CE030E0308B27872DE075
:1016E00030E0328B218B2EE030E0348B238B2FE0E7
:1016F00030E0368B258B108E178A94878387089568
:1017000097FB072E16F4009407D077FD09D00E94AE
:10171000B90B07FC05D03EF4909581959F4F089535
:10172000709561957F4F0895052E97FB1EF40094E8
:101730000E94AB0B57FD07D00E94D20B07FC03D0D1
:101740004EF40C94AB0B50954095309521953F4F3E
:101750004F4F5F4F089590958095709561957F4F9D
:101760008F4F9F4F0895EE0FFF1F0590F491E02DCE
:101770000994AA1BBB1B51E107C0AA1FBB1FA617D8
:10178000B70710F0A61BB70B881F991F5A95A9F72A
:1017900080959095BC01CD01089581E090E0F8948A
:1017A0000C94F40BA1E21A2EAA1BBB1BFD010DC069
:1017B000AA1FBB1FEE1FFF1FA217B307E407F50701
:1017C00020F0A21BB30BE40BF50B661F771F881FDD
:1017D000991F1A9469F760957095809590959B0173
:0C17E000AC01BD01CF010895F894FFCFCB
:1017EC0000000000E5005306AE008C00A0002C01A8
:1017FC0000000000F201C201BA01A6019701960196
:10180C00564D4450565F317C315F564D4450560D09
:10181C000A00564D4450455F003A323A007C005F56
:06182C00564D445045003A
:107E0000112484B714BE81FFF0D085E080938100F7
:107E100082E08093C00088E18093C10086E0809377
:107E2000C20080E18093C4008EE0C9D0259A86E02C
:107E300020E33CEF91E0309385002093840096BBD3
:107E4000B09BFECF1D9AA8958150A9F7CC24DD24C4
:107E500088248394B5E0AB2EA1E19A2EF3E0BF2EE7
:107E6000A2D0813461F49FD0082FAFD0023811F036
:107E7000013811F484E001C083E08DD089C08234E0
:107E800011F484E103C0853419F485E0A6D080C0E4
:107E9000853579F488D0E82EFF2485D0082F10E0AE
:107EA000102F00270E291F29000F111F8ED06801E7
:107EB0006FC0863521F484E090D080E0DECF843638
:107EC00009F040C070D06FD0082F6DD080E0C81688
:107ED00080E7D80618F4F601B7BEE895C0E0D1E017
:107EE00062D089930C17E1F7F0E0CF16F0E7DF06D8
:107EF00018F0F601B7BEE89568D007B600FCFDCFD4
:107F0000A601A0E0B1E02C9130E011968C91119780
:107F100090E0982F8827822B932B1296FA010C0160
:107F200087BEE89511244E5F5F4FF1E0A038BF0790
:107F300051F7F601A7BEE89507B600FCFDCF97BE46
:107F4000E89526C08437B1F42ED02DD0F82E2BD052
:107F50003CD0F601EF2C8F010F5F1F4F84911BD097
:107F6000EA94F801C1F70894C11CD11CFA94CF0C13
:107F7000D11C0EC0853739F428D08EE10CD085E9AC
:107F80000AD08FE07ACF813511F488E018D01DD067
:107F900080E101D065CF982F8091C00085FFFCCF94
:107FA0009093C60008958091C00087FFFCCF809118
:107FB000C00084FD01C0A8958091C6000895E0E648
:107FC000F0E098E1908380830895EDDF803219F02E
:107FD00088E0F5DFFFCF84E1DECF1F93182FE3DFCA
:107FE0001150E9F7F2DF1F91089580E0E8DFEE27F6
:047FF000FF270994CA
:027FFE00040479
:0400000300007E007B
:00000001FF